{
  "_format": "hh-sol-artifact-1",
  "contractName": "BettingContract",
  "sourceName": "contracts/bettingContract.sol",
  "abi": [
    {
      "anonymous": false,
      "inputs": [
        {
          "indexed": false,
          "internalType": "address",
          "name": "previousAdmin",
          "type": "address"
        },
        {
          "indexed": false,
          "internalType": "address",
          "name": "newAdmin",
          "type": "address"
        }
      ],
      "name": "AdminChanged",
      "type": "event"
    },
    {
      "anonymous": false,
      "inputs": [
        {
          "indexed": true,
          "internalType": "address",
          "name": "beacon",
          "type": "address"
        }
      ],
      "name": "BeaconUpgraded",
      "type": "event"
    },
    {
      "anonymous": false,
      "inputs": [
        {
          "indexed": false,
          "internalType": "uint8",
          "name": "version",
          "type": "uint8"
        }
      ],
      "name": "Initialized",
      "type": "event"
    },
    {
      "anonymous": false,
      "inputs": [
        {
          "indexed": true,
          "internalType": "address",
          "name": "previousOwner",
          "type": "address"
        },
        {
          "indexed": true,
          "internalType": "address",
          "name": "newOwner",
          "type": "address"
        }
      ],
      "name": "OwnershipTransferred",
      "type": "event"
    },
    {
      "anonymous": false,
      "inputs": [
        {
          "indexed": true,
          "internalType": "address",
          "name": "implementation",
          "type": "address"
        }
      ],
      "name": "Upgraded",
      "type": "event"
    },
    {
      "inputs": [],
      "name": "_token",
      "outputs": [
        {
          "internalType": "contract IMsysERC20",
          "name": "",
          "type": "address"
        }
      ],
      "stateMutability": "view",
      "type": "function"
    },
    {
      "inputs": [
        {
          "internalType": "string",
          "name": "team1",
          "type": "string"
        },
        {
          "internalType": "string",
          "name": "team2",
          "type": "string"
        },
        {
          "internalType": "uint256",
          "name": "timeStamp",
          "type": "uint256"
        }
      ],
      "name": "addMatch",
      "outputs": [],
      "stateMutability": "nonpayable",
      "type": "function"
    },
    {
      "inputs": [
        {
          "internalType": "address",
          "name": "walletAddress",
          "type": "address"
        },
        {
          "internalType": "string",
          "name": "name",
          "type": "string"
        },
        {
          "internalType": "string",
          "name": "email",
          "type": "string"
        }
      ],
      "name": "addUser",
      "outputs": [],
      "stateMutability": "nonpayable",
      "type": "function"
    },
    {
      "inputs": [],
      "name": "admin",
      "outputs": [
        {
          "internalType": "address",
          "name": "",
          "type": "address"
        }
      ],
      "stateMutability": "view",
      "type": "function"
    },
    {
      "inputs": [
        {
          "internalType": "uint256",
          "name": "matchId",
          "type": "uint256"
        },
        {
          "internalType": "uint256",
          "name": "teamWon",
          "type": "uint256"
        }
      ],
      "name": "announceResult",
      "outputs": [],
      "stateMutability": "nonpayable",
      "type": "function"
    },
    {
      "inputs": [
        {
          "internalType": "uint256",
          "name": "",
          "type": "uint256"
        }
      ],
      "name": "bettingAmountArray",
      "outputs": [
        {
          "internalType": "uint256",
          "name": "",
          "type": "uint256"
        }
      ],
      "stateMutability": "view",
      "type": "function"
    },
    {
      "inputs": [
        {
          "internalType": "address",
          "name": "userAddress",
          "type": "address"
        }
      ],
      "name": "disableUser",
      "outputs": [],
      "stateMutability": "nonpayable",
      "type": "function"
    },
    {
      "inputs": [
        {
          "internalType": "address",
          "name": "userAddress",
          "type": "address"
        }
      ],
      "name": "enableUser",
      "outputs": [],
      "stateMutability": "nonpayable",
      "type": "function"
    },
    {
      "inputs": [],
      "name": "getAllMatches",
      "outputs": [
        {
          "components": [
            {
              "internalType": "uint256",
              "name": "matchId",
              "type": "uint256"
            },
            {
              "internalType": "string",
              "name": "team1",
              "type": "string"
            },
            {
              "internalType": "string",
              "name": "team2",
              "type": "string"
            },
            {
              "internalType": "uint256",
              "name": "won",
              "type": "uint256"
            },
            {
              "internalType": "uint256",
              "name": "statusCode",
              "type": "uint256"
            },
            {
              "internalType": "uint256",
              "name": "date",
              "type": "uint256"
            }
          ],
          "internalType": "struct BettingContract.Match[]",
          "name": "",
          "type": "tuple[]"
        }
      ],
      "stateMutability": "view",
      "type": "function"
    },
    {
      "inputs": [
        {
          "internalType": "uint256",
          "name": "matchId",
          "type": "uint256"
        },
        {
          "internalType": "uint256",
          "name": "teamSelected",
          "type": "uint256"
        }
      ],
      "name": "getAllParticipants",
      "outputs": [
        {
          "components": [
            {
              "internalType": "address",
              "name": "participantAddress",
              "type": "address"
            },
            {
              "internalType": "uint256",
              "name": "selectedTeam",
              "type": "uint256"
            },
            {
              "internalType": "uint256",
              "name": "amount",
              "type": "uint256"
            }
          ],
          "internalType": "struct BettingContract.Participant[]",
          "name": "",
          "type": "tuple[]"
        }
      ],
      "stateMutability": "view",
      "type": "function"
    },
    {
      "inputs": [],
      "name": "getBettingAmountArray",
      "outputs": [
        {
          "internalType": "uint256[]",
          "name": "",
          "type": "uint256[]"
        }
      ],
      "stateMutability": "view",
      "type": "function"
    },
    {
      "inputs": [],
      "name": "getMatchesLength",
      "outputs": [
        {
          "internalType": "uint256",
          "name": "",
          "type": "uint256"
        }
      ],
      "stateMutability": "view",
      "type": "function"
    },
    {
      "inputs": [
        {
          "internalType": "uint256",
          "name": "matchId",
          "type": "uint256"
        },
        {
          "internalType": "uint256",
          "name": "teamSelected",
          "type": "uint256"
        }
      ],
      "name": "getParticipantsLength",
      "outputs": [
        {
          "internalType": "uint256",
          "name": "",
          "type": "uint256"
        }
      ],
      "stateMutability": "view",
      "type": "function"
    },
    {
      "inputs": [],
      "name": "getUsersLength",
      "outputs": [
        {
          "internalType": "uint256",
          "name": "",
          "type": "uint256"
        }
      ],
      "stateMutability": "view",
      "type": "function"
    },
    {
      "inputs": [
        {
          "internalType": "address",
          "name": "token",
          "type": "address"
        }
      ],
      "name": "initialize",
      "outputs": [],
      "stateMutability": "nonpayable",
      "type": "function"
    },
    {
      "inputs": [
        {
          "internalType": "uint256",
          "name": "",
          "type": "uint256"
        }
      ],
      "name": "matches",
      "outputs": [
        {
          "internalType": "uint256",
          "name": "matchId",
          "type": "uint256"
        },
        {
          "internalType": "string",
          "name": "team1",
          "type": "string"
        },
        {
          "internalType": "string",
          "name": "team2",
          "type": "string"
        },
        {
          "internalType": "uint256",
          "name": "won",
          "type": "uint256"
        },
        {
          "internalType": "uint256",
          "name": "statusCode",
          "type": "uint256"
        },
        {
          "internalType": "uint256",
          "name": "date",
          "type": "uint256"
        }
      ],
      "stateMutability": "view",
      "type": "function"
    },
    {
      "inputs": [],
      "name": "owner",
      "outputs": [
        {
          "internalType": "address",
          "name": "",
          "type": "address"
        }
      ],
      "stateMutability": "view",
      "type": "function"
    },
    {
      "inputs": [
        {
          "internalType": "uint256",
          "name": "",
          "type": "uint256"
        },
        {
          "internalType": "uint256",
          "name": "",
          "type": "uint256"
        },
        {
          "internalType": "uint256",
          "name": "",
          "type": "uint256"
        }
      ],
      "name": "participants",
      "outputs": [
        {
          "internalType": "address",
          "name": "participantAddress",
          "type": "address"
        },
        {
          "internalType": "uint256",
          "name": "selectedTeam",
          "type": "uint256"
        },
        {
          "internalType": "uint256",
          "name": "amount",
          "type": "uint256"
        }
      ],
      "stateMutability": "view",
      "type": "function"
    },
    {
      "inputs": [
        {
          "internalType": "uint256",
          "name": "matchId",
          "type": "uint256"
        },
        {
          "internalType": "uint256",
          "name": "teamSelected",
          "type": "uint256"
        },
        {
          "internalType": "uint256",
          "name": "amount",
          "type": "uint256"
        }
      ],
      "name": "participate",
      "outputs": [],
      "stateMutability": "nonpayable",
      "type": "function"
    },
    {
      "inputs": [],
      "name": "proxiableUUID",
      "outputs": [
        {
          "internalType": "bytes32",
          "name": "",
          "type": "bytes32"
        }
      ],
      "stateMutability": "view",
      "type": "function"
    },
    {
      "inputs": [],
      "name": "renounceOwnership",
      "outputs": [],
      "stateMutability": "nonpayable",
      "type": "function"
    },
    {
      "inputs": [
        {
          "internalType": "address",
          "name": "newOwner",
          "type": "address"
        }
      ],
      "name": "transferOwnership",
      "outputs": [],
      "stateMutability": "nonpayable",
      "type": "function"
    },
    {
      "inputs": [
        {
          "internalType": "uint256",
          "name": "matchId",
          "type": "uint256"
        },
        {
          "internalType": "uint256",
          "name": "statusCode",
          "type": "uint256"
        }
      ],
      "name": "updateMatchStatus",
      "outputs": [],
      "stateMutability": "nonpayable",
      "type": "function"
    },
    {
      "inputs": [
        {
          "internalType": "address",
          "name": "newImplementation",
          "type": "address"
        }
      ],
      "name": "upgradeTo",
      "outputs": [],
      "stateMutability": "nonpayable",
      "type": "function"
    },
    {
      "inputs": [
        {
          "internalType": "address",
          "name": "newImplementation",
          "type": "address"
        },
        {
          "internalType": "bytes",
          "name": "data",
          "type": "bytes"
        }
      ],
      "name": "upgradeToAndCall",
      "outputs": [],
      "stateMutability": "payable",
      "type": "function"
    },
    {
      "inputs": [
        {
          "internalType": "address",
          "name": "",
          "type": "address"
        }
      ],
      "name": "userList",
      "outputs": [
        {
          "internalType": "uint256",
          "name": "id",
          "type": "uint256"
        },
        {
          "internalType": "address",
          "name": "walletAddress",
          "type": "address"
        },
        {
          "internalType": "string",
          "name": "name",
          "type": "string"
        },
        {
          "internalType": "string",
          "name": "email",
          "type": "string"
        },
        {
          "internalType": "bool",
          "name": "disabled",
          "type": "bool"
        }
      ],
      "stateMutability": "view",
      "type": "function"
    },
    {
      "inputs": [
        {
          "internalType": "uint256",
          "name": "",
          "type": "uint256"
        }
      ],
      "name": "users",
      "outputs": [
        {
          "internalType": "uint256",
          "name": "id",
          "type": "uint256"
        },
        {
          "internalType": "address",
          "name": "walletAddress",
          "type": "address"
        },
        {
          "internalType": "string",
          "name": "name",
          "type": "string"
        },
        {
          "internalType": "string",
          "name": "email",
          "type": "string"
        },
        {
          "internalType": "bool",
          "name": "disabled",
          "type": "bool"
        }
      ],
      "stateMutability": "view",
      "type": "function"
    }
  ],
  "bytecode": "0x60a06040523060805234801561001457600080fd5b50608051612af361004c6000396000818161070d0152818161075601528181610994015281816109d40152610a670152612af36000f3fe60806040526004361061019c5760003560e01c8063899a27c8116100ec578063e588e6bc1161008a578063f14733d411610064578063f14733d4146104da578063f2fde38b146104fc578063f851a4401461051c578063fad54f3a1461053c57600080fd5b8063e588e6bc1461047a578063ecd0c0c31461049a578063ee6649a1146104ba57600080fd5b8063c2e43e49116100c6578063c2e43e49146103d5578063c4d66de814610402578063d7554a6814610422578063e1e606711461044257600080fd5b8063899a27c8146103615780638da5cb5b14610381578063c17c5a45146103b357600080fd5b80634f1ef286116101595780636003ea74116101335780636003ea74146102ec578063715018a61461030c57806374afc209146103215780638009caf41461034157600080fd5b80634f1ef286146102af57806352d1902d146102c2578063595b1a3e146102d757600080fd5b8063080eb32c146101a15780631a4c6ce7146101eb5780631b4e7bd21461020a5780633659cfe61461023b578063365b98b21461025d5780634768d4ef1461027d575b600080fd5b3480156101ad57600080fd5b506101c16101bc366004612384565b61055c565b604080516001600160a01b0390941684526020840192909252908201526060015b60405180910390f35b3480156101f757600080fd5b5060ca545b6040519081526020016101e2565b34801561021657600080fd5b5061022a6102253660046123cc565b6105b6565b6040516101e295949392919061243f565b34801561024757600080fd5b5061025b6102563660046123cc565b610702565b005b34801561026957600080fd5b5061022a610278366004612490565b6107eb565b34801561028957600080fd5b5061029d610298366004612490565b610831565b6040516101e2969594939291906124a9565b61025b6102bd36600461257f565b610989565b3480156102ce57600080fd5b506101fc610a5a565b3480156102e357600080fd5b5060cb546101fc565b3480156102f857600080fd5b5061025b6103073660046125e1565b610b0d565b34801561031857600080fd5b5061025b610b42565b34801561032d57600080fd5b5061025b61033c3660046125e1565b610b56565b34801561034d57600080fd5b506101fc61035c366004612490565b611111565b34801561036d57600080fd5b5061025b61037c366004612384565b611132565b34801561038d57600080fd5b506097546001600160a01b03165b6040516001600160a01b0390911681526020016101e2565b3480156103bf57600080fd5b506103c861141a565b6040516101e29190612603565b3480156103e157600080fd5b506103f56103f03660046125e1565b6115c5565b6040516101e291906126b2565b34801561040e57600080fd5b5061025b61041d3660046123cc565b61165c565b34801561042e57600080fd5b5061025b61043d366004612734565b61179e565b34801561044e57600080fd5b506101fc61045d3660046125e1565b600091825260ce6020908152604080842092845291905290205490565b34801561048657600080fd5b5061025b6104953660046123cc565b611a9c565b3480156104a657600080fd5b5060c95461039b906001600160a01b031681565b3480156104c657600080fd5b5061025b6104d53660046123cc565b611b16565b3480156104e657600080fd5b506104ef611b94565b6040516101e291906127a8565b34801561050857600080fd5b5061025b6105173660046123cc565b611bec565b34801561052857600080fd5b5060cf5461039b906001600160a01b031681565b34801561054857600080fd5b5061025b6105573660046127ec565b611c62565b60ce602052826000526040600020602052816000526040600020818154811061058457600080fd5b60009182526020909120600390910201805460018201546002909201546001600160a01b039091169450909250905083565b60cd6020526000908152604090208054600182015460028301805492936001600160a01b03909216926105e890612859565b80601f016020809104026020016040519081016040528092919081815260200182805461061490612859565b80156106615780601f1061063657610100808354040283529160200191610661565b820191906000526020600020905b81548152906001019060200180831161064457829003601f168201915b50505050509080600301805461067690612859565b80601f01602080910402602001604051908101604052809291908181526020018280546106a290612859565b80156106ef5780601f106106c4576101008083540402835291602001916106ef565b820191906000526020600020905b8154815290600101906020018083116106d257829003601f168201915b5050506004909301549192505060ff1685565b306001600160a01b037f00000000000000000000000000000000000000000000000000000000000000001614156107545760405162461bcd60e51b815260040161074b90612894565b60405180910390fd5b7f00000000000000000000000000000000000000000000000000000000000000006001600160a01b031661079d600080516020612a77833981519152546001600160a01b031690565b6001600160a01b0316146107c35760405162461bcd60e51b815260040161074b906128e0565b6107cc81611ded565b604080516000808252602082019092526107e891839190611df5565b50565b60cb81815481106107fb57600080fd5b60009182526020909120600590910201805460018201546002830180549294506001600160a01b0390911692916105e890612859565b60ca818154811061084157600080fd5b6000918252602090912060069091020180546001820180549193509061086690612859565b80601f016020809104026020016040519081016040528092919081815260200182805461089290612859565b80156108df5780601f106108b4576101008083540402835291602001916108df565b820191906000526020600020905b8154815290600101906020018083116108c257829003601f168201915b5050505050908060020180546108f490612859565b80601f016020809104026020016040519081016040528092919081815260200182805461092090612859565b801561096d5780601f106109425761010080835404028352916020019161096d565b820191906000526020600020905b81548152906001019060200180831161095057829003601f168201915b5050505050908060030154908060040154908060050154905086565b306001600160a01b037f00000000000000000000000000000000000000000000000000000000000000001614156109d25760405162461bcd60e51b815260040161074b90612894565b7f00000000000000000000000000000000000000000000000000000000000000006001600160a01b0316610a1b600080516020612a77833981519152546001600160a01b031690565b6001600160a01b031614610a415760405162461bcd60e51b815260040161074b906128e0565b610a4a82611ded565b610a5682826001611df5565b5050565b6000306001600160a01b037f00000000000000000000000000000000000000000000000000000000000000001614610afa5760405162461bcd60e51b815260206004820152603860248201527f555550535570677261646561626c653a206d757374206e6f742062652063616c60448201527f6c6564207468726f7567682064656c656761746563616c6c0000000000000000606482015260840161074b565b50600080516020612a7783398151915290565b610b15611f74565b8060ca8381548110610b2957610b2961292c565b9060005260206000209060060201600401819055505050565b610b4a611f74565b610b546000611fce565b565b610b5e611f74565b60ca5482908110610ba35760405162461bcd60e51b815260206004820152600f60248201526e125b9d985b1a59081b585d18da1259608a1b604482015260640161074b565b60ca8181548110610bb657610bb661292c565b906000526020600020906006020160040154600214610c0d5760405162461bcd60e51b81526020600482015260136024820152724d61746368206973206e6f742061637469766560681b604482015260640161074b565b8160011480610c1c5750816002145b80610c275750816003145b610c615760405162461bcd60e51b815260206004820152600b60248201526a15dc9bdb99c8125b9c1d5d60aa1b604482015260640161074b565b6103e8600060015b6003811015610d055760005b600087815260ce60209081526040808320858452909152902054811015610cf257600087815260ce602090815260408083208584529091529020805482908110610cc157610cc161292c565b90600052602060002090600302016002015484610cde9190612958565b935080610cea81612970565b915050610c75565b5080610cfd81612970565b915050610c69565b508360031415610ec95760015b6003811015610e995760005b600087815260ce60209081526040808320858452909152902054811015610e8657600087815260ce60209081526040808320858452909152812080546063919084908110610d6e57610d6e61292c565b9060005260206000209060030201600201546064610d8c919061298b565b610d9691906129aa565b60c95460008a815260ce60209081526040808320888452909152902080549293506001600160a01b0390911691633f81164691309186908110610ddb57610ddb61292c565b600091825260209091206003909102015460405160e084901b6001600160e01b03191681526001600160a01b0392831660048201529116602482015260448101849052606401600060405180830381600087803b158015610e3b57600080fd5b505af1158015610e4f573d6000803e3d6000fd5b505050508460cc8981548110610e6757610e6761292c565b6000918252602090912001555080610e7e81612970565b915050610d1e565b5080610e9181612970565b915050610d12565b50600360ca8681548110610eaf57610eaf61292c565b90600052602060002090600602016004018190555061110a565b60005b600086815260ce60209081526040808320888452909152902054811015610f4957600086815260ce602090815260408083208884529091529020805482908110610f1857610f1861292c565b90600052602060002090600302016002015482610f359190612958565b915080610f4181612970565b915050610ecc565b5060005b600086815260ce6020908152604080832088845290915290205481101561109557600086815260ce602090815260408083208884529091528120805483908110610f9957610f9961292c565b60009182526020822060026003909202010154915083610fb9838761298b565b610fc391906129aa565b60c95460008a815260ce602090815260408083208c8452909152902080549293506001600160a01b0390911691633f811646913091879081106110085761100861292c565b600091825260209091206003909102015460405160e084901b6001600160e01b03191681526001600160a01b0392831660048201529116602482015260448101849052606401600060405180830381600087803b15801561106857600080fd5b505af115801561107c573d6000803e3d6000fd5b505050505050808061108d90612970565b915050610f4d565b50600360ca86815481106110ab576110ab61292c565b9060005260206000209060060201600401819055508360ca86815481106110d4576110d461292c565b9060005260206000209060060201600301819055508160cc86815481106110fd576110fd61292c565b6000918252602090912001555b5050505050565b60cc818154811061112157600080fd5b600091825260209091200154905081565b33600081815260cd60205260409020600101546001600160a01b0316146111a95760405162461bcd60e51b815260206004820152602560248201527f4f6e6c7920526567697374657265642055736572732063616e20506172746963604482015264697061746560d81b606482015260840161074b565b33600090815260cd602052604090206004015460ff161561120c5760405162461bcd60e51b815260206004820181905260248201527f44697361626c65642055736572732063616e2774205061727469636970617465604482015260640161074b565b60ca54839081106112515760405162461bcd60e51b815260206004820152600f60248201526e125b9d985b1a59081b585d18da1259608a1b604482015260640161074b565b60ca81815481106112645761126461292c565b9060005260206000209060060201600401546002146112bb5760405162461bcd60e51b81526020600482015260136024820152724d61746368206973206e6f742061637469766560681b604482015260640161074b565b60006112c86064846129aa565b905060006112d682856129cc565b60c954604051639fe802f160e01b8152306004820152602481018390529192506001600160a01b031690639fe802f190604401600060405180830381600087803b15801561132357600080fd5b505af1158015611337573d6000803e3d6000fd5b505060c954604051633dbc658560e01b8152336004820152602481018690526001600160a01b039091169250633dbc65859150604401600060405180830381600087803b15801561138757600080fd5b505af115801561139b573d6000803e3d6000fd5b50505060009687525060ce6020908152604080882087895282528088208151606081018352338152808401988952918201938452805460018082018355918a5292909820905160039092020180546001600160a01b0319166001600160a01b039092169190911781559451958501959095555050915160029091015550565b606060ca805480602002602001604051908101604052809291908181526020016000905b828210156115bc57838290600052602060002090600602016040518060c00160405290816000820154815260200160018201805461147b90612859565b80601f01602080910402602001604051908101604052809291908181526020018280546114a790612859565b80156114f45780601f106114c9576101008083540402835291602001916114f4565b820191906000526020600020905b8154815290600101906020018083116114d757829003601f168201915b5050505050815260200160028201805461150d90612859565b80601f016020809104026020016040519081016040528092919081815260200182805461153990612859565b80156115865780601f1061155b57610100808354040283529160200191611586565b820191906000526020600020905b81548152906001019060200180831161156957829003601f168201915b5050505050815260200160038201548152602001600482015481526020016005820154815250508152602001906001019061143e565b50505050905090565b600082815260ce602090815260408083208484528252808320805482518185028101850190935280835260609492939192909184015b82821015611650576000848152602090819020604080516060810182526003860290920180546001600160a01b03168352600180820154848601526002909101549183019190915290835290920191016115fb565b50505050905092915050565b600054610100900460ff161580801561167c5750600054600160ff909116105b806116965750303b158015611696575060005460ff166001145b6116f95760405162461bcd60e51b815260206004820152602e60248201527f496e697469616c697a61626c653a20636f6e747261637420697320616c72656160448201526d191e481a5b9a5d1a585b1a5e995960921b606482015260840161074b565b6000805460ff19166001179055801561171c576000805461ff0019166101001790555b60c980546001600160a01b0384166001600160a01b03199182161790915560cf80549091163317905561174d612020565b61175561204f565b8015610a56576000805461ff0019169055604051600181527f7f26b83ff96e1f2b6a682f133852f6798a09c465da95921460cefb38474024989060200160405180910390a15050565b6117a6611f74565b60cf546001600160a01b03848116911614156117fd5760405162461bcd60e51b815260206004820152601660248201527520b236b4b71031b0b73737ba1031329030902ab9b2b960511b604482015260640161074b565b6001600160a01b03808416600081815260cd602052604090206001015490911614156118605760405162461bcd60e51b8152602060048201526012602482015271155cd95c88185b1c9958591e48195e1a5cdd60721b604482015260640161074b565b6040805160a08101825260cb5481526001600160a01b0385811660208084018281528486018881526060860188905260006080870181905293845260cd8352959092208451815591516001830180546001600160a01b0319169190941617909255925180519293926118d892600285019201906122eb565b50606082015180516118f49160038401916020909101906122eb565b50608091820151600491909101805460ff19169115159190911790556040805160a08101825260cb80548083526001600160a01b0388811660208086019182529585018981526060860189905260009786018890526001840185559390965283517fa7ce836d032b2bf62b7e2097a8e0a6d8aeb35405ad15271e96d3b0188a1d06fb600590930292830190815595517fa7ce836d032b2bf62b7e2097a8e0a6d8aeb35405ad15271e96d3b0188a1d06fc830180546001600160a01b03191691909216179055905180519294936119f1937fa7ce836d032b2bf62b7e2097a8e0a6d8aeb35405ad15271e96d3b0188a1d06fd909301929101906122eb565b5060608201518051611a0d9160038401916020909101906122eb565b50608091909101516004918201805460ff191691151591909117905560c95460405163152055fb60e01b81526001600160a01b0386811693820193909352611388602482015233604482015291169063152055fb90606401600060405180830381600087803b158015611a7f57600080fd5b505af1158015611a93573d6000803e3d6000fd5b50505050505050565b611aa4611f74565b6001600160a01b038116600090815260cd602052604081205460cb80549091908110611ad257611ad261292c565b6000918252602080832060046005909302018201805494151560ff199586161790556001600160a01b03909416825260cd9093526040902090910180549091169055565b611b1e611f74565b6001600160a01b038116600090815260cd602052604090205460cb8054600192908110611b4d57611b4d61292c565b6000918252602080832060046005909302018201805494151560ff199586161790556001600160a01b03909416825260cd9093526040902090910180549091166001179055565b606060cc805480602002602001604051908101604052809291908181526020018280548015611be257602002820191906000526020600020905b815481526020019060010190808311611bce575b5050505050905090565b611bf4611f74565b6001600160a01b038116611c595760405162461bcd60e51b815260206004820152602660248201527f4f776e61626c653a206e6577206f776e657220697320746865207a65726f206160448201526564647265737360d01b606482015260840161074b565b6107e881611fce565b611c6a611f74565b60c95460405163152055fb60e01b81523060048201526103e860248201523360448201526001600160a01b039091169063152055fb90606401600060405180830381600087803b158015611cbd57600080fd5b505af1158015611cd1573d6000803e3d6000fd5b50506040805160c08101825260ca805480835260208084018a815294840189905260006060850181905260016080860181905260a086018a90528301845592909252825160069091027f42d72674974f694b5f5159593243114d38a5c39c89d6b62fee061ff523240ee1810191825593518051939650909450611d79937f42d72674974f694b5f5159593243114d38a5c39c89d6b62fee061ff523240ee201929101906122eb565b5060408201518051611d959160028401916020909101906122eb565b50606082015160038201556080820151600482015560a090910151600590910155505060cc805460018101825560009182527f47197230e1e4b29fc0bd84d7d78966c0925452aff72a2a121538b102457e9ebe015550565b6107e8611f74565b7f4910fdfa16fed3260ed0e7147f7cc6da11a60208b5b9406d12a635614ffd91435460ff1615611e2d57611e2883612076565b505050565b826001600160a01b03166352d1902d6040518163ffffffff1660e01b815260040160206040518083038186803b158015611e6657600080fd5b505afa925050508015611e96575060408051601f3d908101601f19168201909252611e93918101906129e3565b60015b611ef95760405162461bcd60e51b815260206004820152602e60248201527f45524331393637557067726164653a206e657720696d706c656d656e7461746960448201526d6f6e206973206e6f74205555505360901b606482015260840161074b565b600080516020612a778339815191528114611f685760405162461bcd60e51b815260206004820152602960248201527f45524331393637557067726164653a20756e737570706f727465642070726f786044820152681a58589b195555525160ba1b606482015260840161074b565b50611e28838383612112565b6097546001600160a01b03163314610b545760405162461bcd60e51b815260206004820181905260248201527f4f776e61626c653a2063616c6c6572206973206e6f7420746865206f776e6572604482015260640161074b565b609780546001600160a01b038381166001600160a01b0319831681179093556040519116919082907f8be0079c531659141344cd1fd0a4f28419497f9722a3daafe3b4186f6b6457e090600090a35050565b600054610100900460ff166120475760405162461bcd60e51b815260040161074b906129fc565b610b5461213d565b600054610100900460ff16610b545760405162461bcd60e51b815260040161074b906129fc565b6001600160a01b0381163b6120e35760405162461bcd60e51b815260206004820152602d60248201527f455243313936373a206e657720696d706c656d656e746174696f6e206973206e60448201526c1bdd08184818dbdb9d1c9858dd609a1b606482015260840161074b565b600080516020612a7783398151915280546001600160a01b0319166001600160a01b0392909216919091179055565b61211b8361216d565b6000825111806121285750805b15611e285761213783836121ad565b50505050565b600054610100900460ff166121645760405162461bcd60e51b815260040161074b906129fc565b610b5433611fce565b61217681612076565b6040516001600160a01b038216907fbc7cd75a20ee27fd9adebab32041f755214dbc6bffa90cc0225b39da2e5c2d3b90600090a250565b60606001600160a01b0383163b6122155760405162461bcd60e51b815260206004820152602660248201527f416464726573733a2064656c65676174652063616c6c20746f206e6f6e2d636f6044820152651b9d1c9858dd60d21b606482015260840161074b565b600080846001600160a01b0316846040516122309190612a47565b600060405180830381855af49150503d806000811461226b576040519150601f19603f3d011682016040523d82523d6000602084013e612270565b606091505b50915091506122988282604051806060016040528060278152602001612a97602791396122a1565b95945050505050565b606083156122b05750816122ba565b6122ba83836122c1565b9392505050565b8151156122d15781518083602001fd5b8060405162461bcd60e51b815260040161074b9190612a63565b8280546122f790612859565b90600052602060002090601f016020900481019282612319576000855561235f565b82601f1061233257805160ff191683800117855561235f565b8280016001018555821561235f579182015b8281111561235f578251825591602001919060010190612344565b5061236b92915061236f565b5090565b5b8082111561236b5760008155600101612370565b60008060006060848603121561239957600080fd5b505081359360208301359350604090920135919050565b80356001600160a01b03811681146123c757600080fd5b919050565b6000602082840312156123de57600080fd5b6122ba826123b0565b60005b838110156124025781810151838201526020016123ea565b838111156121375750506000910152565b6000815180845261242b8160208601602086016123e7565b601f01601f19169290920160200192915050565b8581526001600160a01b038516602082015260a06040820181905260009061246990830186612413565b828103606084015261247b8186612413565b91505082151560808301529695505050505050565b6000602082840312156124a257600080fd5b5035919050565b86815260c0602082015260006124c260c0830188612413565b82810360408401526124d48188612413565b60608401969096525050608081019290925260a0909101529392505050565b634e487b7160e01b600052604160045260246000fd5b600067ffffffffffffffff80841115612524576125246124f3565b604051601f8501601f19908116603f0116810190828211818310171561254c5761254c6124f3565b8160405280935085815286868601111561256557600080fd5b858560208301376000602087830101525050509392505050565b6000806040838503121561259257600080fd5b61259b836123b0565b9150602083013567ffffffffffffffff8111156125b757600080fd5b8301601f810185136125c857600080fd5b6125d785823560208401612509565b9150509250929050565b600080604083850312156125f457600080fd5b50508035926020909101359150565b60006020808301818452808551808352604092508286019150828160051b87010184880160005b838110156126a457603f19898403018552815160c08151855288820151818a87015261265882870182612413565b91505087820151858203898701526126708282612413565b606084810151908801526080808501519088015260a09384015193909601929092525050938601939086019060010161262a565b509098975050505050505050565b602080825282518282018190526000919060409081850190868401855b8281101561270757815180516001600160a01b03168552868101518786015285015185850152606090930192908501906001016126cf565b5091979650505050505050565b600082601f83011261272557600080fd5b6122ba83833560208501612509565b60008060006060848603121561274957600080fd5b612752846123b0565b9250602084013567ffffffffffffffff8082111561276f57600080fd5b61277b87838801612714565b9350604086013591508082111561279157600080fd5b5061279e86828701612714565b9150509250925092565b6020808252825182820181905260009190848201906040850190845b818110156127e0578351835292840192918401916001016127c4565b50909695505050505050565b60008060006060848603121561280157600080fd5b833567ffffffffffffffff8082111561281957600080fd5b61282587838801612714565b9450602086013591508082111561283b57600080fd5b5061284886828701612714565b925050604084013590509250925092565b600181811c9082168061286d57607f821691505b6020821081141561288e57634e487b7160e01b600052602260045260246000fd5b50919050565b6020808252602c908201527f46756e6374696f6e206d7573742062652063616c6c6564207468726f7567682060408201526b19195b1959d85d1958d85b1b60a21b606082015260800190565b6020808252602c908201527f46756e6374696f6e206d7573742062652063616c6c6564207468726f7567682060408201526b6163746976652070726f787960a01b606082015260800190565b634e487b7160e01b600052603260045260246000fd5b634e487b7160e01b600052601160045260246000fd5b6000821982111561296b5761296b612942565b500190565b600060001982141561298457612984612942565b5060010190565b60008160001904831182151516156129a5576129a5612942565b500290565b6000826129c757634e487b7160e01b600052601260045260246000fd5b500490565b6000828210156129de576129de612942565b500390565b6000602082840312156129f557600080fd5b5051919050565b6020808252602b908201527f496e697469616c697a61626c653a20636f6e7472616374206973206e6f74206960408201526a6e697469616c697a696e6760a81b606082015260800190565b60008251612a598184602087016123e7565b9190910192915050565b6020815260006122ba602083018461241356fe360894a13ba1a3210667c828492db98dca3e2076cc3735a920a3ca505d382bbc416464726573733a206c6f772d6c6576656c2064656c65676174652063616c6c206661696c6564a2646970667358221220a72935b0c23fba929b7c3587ff37c1d36e19fdc703eeb8c83aeb937cbb9bc39464736f6c63430008090033",
  "linkReferences": {},
  "deployedLinkReferences": {}
}