{
  "_format": "hh-sol-artifact-1",
  "contractName": "V1",
  "sourceName": "contracts/contractV1.sol",
  "abi": [
    {
      "inputs": [],
      "name": "increase",
      "outputs": [],
      "stateMutability": "nonpayable",
      "type": "function"
    },
    {
      "inputs": [
        {
          "internalType": "uint256",
          "name": "_num",
          "type": "uint256"
        }
      ],
      "name": "initialValue",
      "outputs": [],
      "stateMutability": "nonpayable",
      "type": "function"
    },
    {
      "inputs": [],
      "name": "number",
      "outputs": [
        {
          "internalType": "uint256",
          "name": "",
          "type": "uint256"
        }
      ],
      "stateMutability": "view",
      "type": "function"
    }
  ],
  "bytecode": "0x608060405234801561001057600080fd5b5060fd8061001f6000396000f3fe6080604052348015600f57600080fd5b5060043610603c5760003560e01c80638381f58a146041578063e8927fbc14605b578063f8d4ca88146063575b600080fd5b604960005481565b60405190815260200160405180910390f35b60616073565b005b6061606e366004608a565b600055565b60016000808282546083919060a2565b9091555050565b600060208284031215609b57600080fd5b5035919050565b6000821982111560c257634e487b7160e01b600052601160045260246000fd5b50019056fea264697066735822122003257bab5a4949e9be9e868e8d96973706b74d3d2d6158e4a68809bf145b5b7464736f6c63430008090033",
  "linkReferences": {},
  "deployedLinkReferences": {}
}