{
  "_format": "hh-sol-artifact-1",
  "contractName": "V2",
  "sourceName": "contracts/contractV2.sol",
  "abi": [
    {
      "inputs": [],
      "name": "decrease",
      "outputs": [],
      "stateMutability": "nonpayable",
      "type": "function"
    },
    {
      "inputs": [],
      "name": "increase",
      "outputs": [],
      "stateMutability": "nonpayable",
      "type": "function"
    },
    {
      "inputs": [
        {
          "internalType": "uint256",
          "name": "_num",
          "type": "uint256"
        }
      ],
      "name": "initialValue",
      "outputs": [],
      "stateMutability": "nonpayable",
      "type": "function"
    },
    {
      "inputs": [],
      "name": "number",
      "outputs": [
        {
          "internalType": "uint256",
          "name": "",
          "type": "uint256"
        }
      ],
      "stateMutability": "view",
      "type": "function"
    }
  ],
  "bytecode": "0x608060405234801561001057600080fd5b50610150806100206000396000f3fe608060405234801561001057600080fd5b506004361061004c5760003560e01c80638381f58a14610051578063d732d9551461006c578063e8927fbc14610076578063f8d4ca881461007e575b600080fd5b61005a60005481565b60405190815260200160405180910390f35b610074610091565b005b6100746100aa565b61007461008c3660046100bc565b600055565b60016000808282546100a391906100eb565b9091555050565b60016000808282546100a39190610102565b6000602082840312156100ce57600080fd5b5035919050565b634e487b7160e01b600052601160045260246000fd5b6000828210156100fd576100fd6100d5565b500390565b60008219821115610115576101156100d5565b50019056fea2646970667358221220619145e902c465062103bc1a9fb82af657db67e2eb2abd8cae12fbf01c04101a64736f6c63430008090033",
  "linkReferences": {},
  "deployedLinkReferences": {}
}