{"contracts/contractV1.sol":{"V1":{"abi":[{"inputs":[],"name":"increase","outputs":[],"stateMutability":"nonpayable","type":"function"},{"inputs":[{"internalType":"uint256","name":"_num","type":"uint256"}],"name":"initialValue","outputs":[],"stateMutability":"nonpayable","type":"function"},{"inputs":[],"name":"number","outputs":[{"internalType":"uint256","name":"","type":"uint256"}],"stateMutability":"view","type":"function"}],"evm":{"bytecode":{"linkReferences":{},"object":"608060405234801561001057600080fd5b5060fd8061001f6000396000f3fe6080604052348015600f57600080fd5b5060043610603c5760003560e01c80638381f58a146041578063e8927fbc14605b578063f8d4ca88146063575b600080fd5b604960005481565b60405190815260200160405180910390f35b60616073565b005b6061606e366004608a565b600055565b60016000808282546083919060a2565b9091555050565b600060208284031215609b57600080fd5b5035919050565b6000821982111560c257634e487b7160e01b600052601160045260246000fd5b50019056fea264697066735822122003257bab5a4949e9be9e868e8d96973706b74d3d2d6158e4a68809bf145b5b7464736f6c63430008090033","opcodes":"PUSH1 0x80 PUSH1 0x40 MSTORE CALLVALUE DUP1 ISZERO PUSH2 0x10 JUMPI PUSH1 0x0 DUP1 REVERT JUMPDEST POP PUSH1 0xFD DUP1 PUSH2 0x1F PUSH1 0x0 CODECOPY PUSH1 0x0 RETURN INVALID PUSH1 0x80 PUSH1 0x40 MSTORE CALLVALUE DUP1 ISZERO PUSH1 0xF JUMPI PUSH1 0x0 DUP1 REVERT JUMPDEST POP PUSH1 0x4 CALLDATASIZE LT PUSH1 0x3C JUMPI PUSH1 0x0 CALLDATALOAD PUSH1 0xE0 SHR DUP1 PUSH4 0x8381F58A EQ PUSH1 0x41 JUMPI DUP1 PUSH4 0xE8927FBC EQ PUSH1 0x5B JUMPI DUP1 PUSH4 0xF8D4CA88 EQ PUSH1 0x63 JUMPI JUMPDEST PUSH1 0x0 DUP1 REVERT JUMPDEST PUSH1 0x49 PUSH1 0x0 SLOAD DUP2 JUMP JUMPDEST PUSH1 0x40 MLOAD SWAP1 DUP2 MSTORE PUSH1 0x20 ADD PUSH1 0x40 MLOAD DUP1 SWAP2 SUB SWAP1 RETURN JUMPDEST PUSH1 0x61 PUSH1 0x73 JUMP JUMPDEST STOP JUMPDEST PUSH1 0x61 PUSH1 0x6E CALLDATASIZE PUSH1 0x4 PUSH1 0x8A JUMP JUMPDEST PUSH1 0x0 SSTORE JUMP JUMPDEST PUSH1 0x1 PUSH1 0x0 DUP1 DUP3 DUP3 SLOAD PUSH1 0x83 SWAP2 SWAP1 PUSH1 0xA2 JUMP JUMPDEST SWAP1 SWAP2 SSTORE POP POP JUMP JUMPDEST PUSH1 0x0 PUSH1 0x20 DUP3 DUP5 SUB SLT ISZERO PUSH1 0x9B JUMPI PUSH1 0x0 DUP1 REVERT JUMPDEST POP CALLDATALOAD SWAP2 SWAP1 POP JUMP JUMPDEST PUSH1 0x0 DUP3 NOT DUP3 GT ISZERO PUSH1 0xC2 JUMPI PUSH4 0x4E487B71 PUSH1 0xE0 SHL PUSH1 0x0 MSTORE PUSH1 0x11 PUSH1 0x4 MSTORE PUSH1 0x24 PUSH1 0x0 REVERT JUMPDEST POP ADD SWAP1 JUMP INVALID LOG2 PUSH5 0x6970667358 0x22 SLT KECCAK256 SUB 0x25 PUSH28 0xAB5A4949E9BE9E868E8D96973706B74D3D2D6158E4A68809BF145B5B PUSH21 0x64736F6C6343000809003300000000000000000000 "},"methodIdentifiers":{"increase()":"e8927fbc","initialValue(uint256)":"f8d4ca88","number()":"8381f58a"}},"storageLayout":{"storage":[{"astId":2660,"contract":"contracts/contractV1.sol:V1","label":"number","offset":0,"slot":"0","type":"t_uint256"}],"types":{"t_uint256":{"encoding":"inplace","label":"uint256","numberOfBytes":"32"}}}}}}