{"contracts/bettingContract.sol":{"BettingContract":{"abi":[{"anonymous":false,"inputs":[{"indexed":false,"internalType":"address","name":"previousAdmin","type":"address"},{"indexed":false,"internalType":"address","name":"newAdmin","type":"address"}],"name":"AdminChanged","type":"event"},{"anonymous":false,"inputs":[{"indexed":true,"internalType":"address","name":"beacon","type":"address"}],"name":"BeaconUpgraded","type":"event"},{"anonymous":false,"inputs":[{"indexed":false,"internalType":"uint8","name":"version","type":"uint8"}],"name":"Initialized","type":"event"},{"anonymous":false,"inputs":[{"indexed":true,"internalType":"address","name":"previousOwner","type":"address"},{"indexed":true,"internalType":"address","name":"newOwner","type":"address"}],"name":"OwnershipTransferred","type":"event"},{"anonymous":false,"inputs":[{"indexed":true,"internalType":"address","name":"implementation","type":"address"}],"name":"Upgraded","type":"event"},{"inputs":[],"name":"_token","outputs":[{"internalType":"contract IERC20Upgradeable","name":"","type":"address"}],"stateMutability":"view","type":"function"},{"inputs":[{"internalType":"string","name":"team1","type":"string"},{"internalType":"string","name":"team2","type":"string"},{"internalType":"uint256","name":"timeStamp","type":"uint256"}],"name":"addMatch","outputs":[],"stateMutability":"nonpayable","type":"function"},{"inputs":[],"name":"admin","outputs":[{"internalType":"address","name":"","type":"address"}],"stateMutability":"view","type":"function"},{"inputs":[{"internalType":"uint256","name":"matchId","type":"uint256"},{"internalType":"uint256","name":"teamWon","type":"uint256"}],"name":"announceResult","outputs":[],"stateMutability":"nonpayable","type":"function"},{"inputs":[{"internalType":"uint256","name":"","type":"uint256"}],"name":"bettingAmountArray","outputs":[{"internalType":"uint256","name":"","type":"uint256"}],"stateMutability":"view","type":"function"},{"inputs":[],"name":"getAllMatches","outputs":[{"components":[{"internalType":"uint256","name":"matchId","type":"uint256"},{"internalType":"string","name":"team1","type":"string"},{"internalType":"string","name":"team2","type":"string"},{"internalType":"uint256","name":"won","type":"uint256"},{"internalType":"uint256","name":"statusCode","type":"uint256"},{"internalType":"uint256","name":"date","type":"uint256"}],"internalType":"struct BettingContract.Match[]","name":"","type":"tuple[]"}],"stateMutability":"view","type":"function"},{"inputs":[{"internalType":"uint256","name":"matchId","type":"uint256"},{"internalType":"uint256","name":"teamSelected","type":"uint256"}],"name":"getAllParticipants","outputs":[{"components":[{"internalType":"address","name":"participantAddress","type":"address"},{"internalType":"uint256","name":"selectedTeam","type":"uint256"},{"internalType":"uint256","name":"amount","type":"uint256"}],"internalType":"struct BettingContract.Participant[]","name":"","type":"tuple[]"}],"stateMutability":"view","type":"function"},{"inputs":[],"name":"getBettingAmountArray","outputs":[{"internalType":"uint256[]","name":"","type":"uint256[]"}],"stateMutability":"view","type":"function"},{"inputs":[],"name":"getMatchesLength","outputs":[{"internalType":"uint256","name":"","type":"uint256"}],"stateMutability":"view","type":"function"},{"inputs":[{"internalType":"uint256","name":"matchId","type":"uint256"},{"internalType":"uint256","name":"teamSelected","type":"uint256"}],"name":"getParticipantsLength","outputs":[{"internalType":"uint256","name":"","type":"uint256"}],"stateMutability":"view","type":"function"},{"inputs":[{"internalType":"address","name":"token","type":"address"}],"name":"initialize","outputs":[],"stateMutability":"nonpayable","type":"function"},{"inputs":[{"internalType":"uint256","name":"","type":"uint256"}],"name":"matches","outputs":[{"internalType":"uint256","name":"matchId","type":"uint256"},{"internalType":"string","name":"team1","type":"string"},{"internalType":"string","name":"team2","type":"string"},{"internalType":"uint256","name":"won","type":"uint256"},{"internalType":"uint256","name":"statusCode","type":"uint256"},{"internalType":"uint256","name":"date","type":"uint256"}],"stateMutability":"view","type":"function"},{"inputs":[],"name":"owner","outputs":[{"internalType":"address","name":"","type":"address"}],"stateMutability":"view","type":"function"},{"inputs":[{"internalType":"uint256","name":"","type":"uint256"},{"internalType":"uint256","name":"","type":"uint256"},{"internalType":"uint256","name":"","type":"uint256"}],"name":"participants","outputs":[{"internalType":"address","name":"participantAddress","type":"address"},{"internalType":"uint256","name":"selectedTeam","type":"uint256"},{"internalType":"uint256","name":"amount","type":"uint256"}],"stateMutability":"view","type":"function"},{"inputs":[{"internalType":"uint256","name":"matchId","type":"uint256"},{"internalType":"uint256","name":"teamSelected","type":"uint256"},{"internalType":"uint256","name":"amount","type":"uint256"}],"name":"participate","outputs":[],"stateMutability":"nonpayable","type":"function"},{"inputs":[],"name":"proxiableUUID","outputs":[{"internalType":"bytes32","name":"","type":"bytes32"}],"stateMutability":"view","type":"function"},{"inputs":[],"name":"renounceOwnership","outputs":[],"stateMutability":"nonpayable","type":"function"},{"inputs":[{"internalType":"address","name":"newOwner","type":"address"}],"name":"transferOwnership","outputs":[],"stateMutability":"nonpayable","type":"function"},{"inputs":[{"internalType":"uint256","name":"matchId","type":"uint256"},{"internalType":"uint256","name":"statusCode","type":"uint256"}],"name":"updateMatchStatus","outputs":[],"stateMutability":"nonpayable","type":"function"},{"inputs":[{"internalType":"address","name":"newImplementation","type":"address"}],"name":"upgradeTo","outputs":[],"stateMutability":"nonpayable","type":"function"},{"inputs":[{"internalType":"address","name":"newImplementation","type":"address"},{"internalType":"bytes","name":"data","type":"bytes"}],"name":"upgradeToAndCall","outputs":[],"stateMutability":"payable","type":"function"},{"inputs":[{"internalType":"address","name":"","type":"address"}],"name":"userList","outputs":[{"internalType":"uint256","name":"id","type":"uint256"},{"internalType":"address","name":"walletAddress","type":"address"},{"internalType":"string","name":"name","type":"string"},{"internalType":"string","name":"email","type":"string"},{"internalType":"bool","name":"disabled","type":"bool"}],"stateMutability":"view","type":"function"},{"inputs":[{"internalType":"uint256","name":"","type":"uint256"}],"name":"users","outputs":[{"internalType":"uint256","name":"id","type":"uint256"},{"internalType":"address","name":"walletAddress","type":"address"},{"internalType":"string","name":"name","type":"string"},{"internalType":"string","name":"email","type":"string"},{"internalType":"bool","name":"disabled","type":"bool"}],"stateMutability":"view","type":"function"}],"evm":{"bytecode":{"linkReferences":{},"object":"60a06040523060805234801561001457600080fd5b506080516125e761004c6000396000818161063c01528181610685015281816108c301528181610903015261099601526125e76000f3fe6080604052600436106101405760003560e01c80638009caf4116100b6578063e1e606711161006f578063e1e60671146103b1578063ecd0c0c3146103e9578063f14733d414610409578063f2fde38b1461042b578063f851a4401461044b578063fad54f3a1461046b57600080fd5b80638009caf4146102d0578063899a27c8146102f05780638da5cb5b14610310578063c17c5a4514610342578063c2e43e4914610364578063c4d66de81461039157600080fd5b80634768d4ef116101085780634768d4ef146102215780634f1ef2861461025357806352d1902d146102665780636003ea741461027b578063715018a61461029b57806374afc209146102b057600080fd5b8063080eb32c146101455780631a4c6ce71461018f5780631b4e7bd2146101ae5780633659cfe6146101df578063365b98b214610201575b600080fd5b34801561015157600080fd5b50610165610160366004611eca565b61048b565b604080516001600160a01b0390941684526020840192909252908201526060015b60405180910390f35b34801561019b57600080fd5b5060ca545b604051908152602001610186565b3480156101ba57600080fd5b506101ce6101c9366004611f12565b6104e5565b604051610186959493929190611f85565b3480156101eb57600080fd5b506101ff6101fa366004611f12565b610631565b005b34801561020d57600080fd5b506101ce61021c366004611fd6565b61071a565b34801561022d57600080fd5b5061024161023c366004611fd6565b610760565b60405161018696959493929190611fef565b6101ff6102613660046120c5565b6108b8565b34801561027257600080fd5b506101a0610989565b34801561028757600080fd5b506101ff610296366004612127565b610a3c565b3480156102a757600080fd5b506101ff610a71565b3480156102bc57600080fd5b506101ff6102cb366004612127565b610a85565b3480156102dc57600080fd5b506101a06102eb366004611fd6565b611072565b3480156102fc57600080fd5b506101ff61030b366004611eca565b611093565b34801561031c57600080fd5b506097546001600160a01b03165b6040516001600160a01b039091168152602001610186565b34801561034e57600080fd5b506103576113bd565b6040516101869190612149565b34801561037057600080fd5b5061038461037f366004612127565b611568565b60405161018691906121f8565b34801561039d57600080fd5b506101ff6103ac366004611f12565b6115ff565b3480156103bd57600080fd5b506101a06103cc366004612127565b600091825260ce6020908152604080842092845291905290205490565b3480156103f557600080fd5b5060c95461032a906001600160a01b031681565b34801561041557600080fd5b5061041e611741565b604051610186919061225a565b34801561043757600080fd5b506101ff610446366004611f12565b611799565b34801561045757600080fd5b5060cf5461032a906001600160a01b031681565b34801561047757600080fd5b506101ff6104863660046122be565b61180f565b60ce60205282600052604060002060205281600052604060002081815481106104b357600080fd5b60009182526020909120600390910201805460018201546002909201546001600160a01b039091169450909250905083565b60cd6020526000908152604090208054600182015460028301805492936001600160a01b03909216926105179061232b565b80601f01602080910402602001604051908101604052809291908181526020018280546105439061232b565b80156105905780601f1061056557610100808354040283529160200191610590565b820191906000526020600020905b81548152906001019060200180831161057357829003601f168201915b5050505050908060030180546105a59061232b565b80601f01602080910402602001604051908101604052809291908181526020018280546105d19061232b565b801561061e5780601f106105f35761010080835404028352916020019161061e565b820191906000526020600020905b81548152906001019060200180831161060157829003601f168201915b5050506004909301549192505060ff1685565b306001600160a01b037f00000000000000000000000000000000000000000000000000000000000000001614156106835760405162461bcd60e51b815260040161067a90612366565b60405180910390fd5b7f00000000000000000000000000000000000000000000000000000000000000006001600160a01b03166106cc60008051602061256b833981519152546001600160a01b031690565b6001600160a01b0316146106f25760405162461bcd60e51b815260040161067a906123b2565b6106fb81611933565b604080516000808252602082019092526107179183919061193b565b50565b60cb818154811061072a57600080fd5b60009182526020909120600590910201805460018201546002830180549294506001600160a01b0390911692916105179061232b565b60ca818154811061077057600080fd5b600091825260209091206006909102018054600182018054919350906107959061232b565b80601f01602080910402602001604051908101604052809291908181526020018280546107c19061232b565b801561080e5780601f106107e35761010080835404028352916020019161080e565b820191906000526020600020905b8154815290600101906020018083116107f157829003601f168201915b5050505050908060020180546108239061232b565b80601f016020809104026020016040519081016040528092919081815260200182805461084f9061232b565b801561089c5780601f106108715761010080835404028352916020019161089c565b820191906000526020600020905b81548152906001019060200180831161087f57829003601f168201915b5050505050908060030154908060040154908060050154905086565b306001600160a01b037f00000000000000000000000000000000000000000000000000000000000000001614156109015760405162461bcd60e51b815260040161067a90612366565b7f00000000000000000000000000000000000000000000000000000000000000006001600160a01b031661094a60008051602061256b833981519152546001600160a01b031690565b6001600160a01b0316146109705760405162461bcd60e51b815260040161067a906123b2565b61097982611933565b6109858282600161193b565b5050565b6000306001600160a01b037f00000000000000000000000000000000000000000000000000000000000000001614610a295760405162461bcd60e51b815260206004820152603860248201527f555550535570677261646561626c653a206d757374206e6f742062652063616c60448201527f6c6564207468726f7567682064656c656761746563616c6c0000000000000000606482015260840161067a565b5060008051602061256b83398151915290565b610a44611aba565b8060ca8381548110610a5857610a586123fe565b9060005260206000209060060201600401819055505050565b610a79611aba565b610a836000611b14565b565b610a8d611aba565b60ca5482908110610ad25760405162461bcd60e51b815260206004820152600f60248201526e125b9d985b1a59081b585d18da1259608a1b604482015260640161067a565b60ca8181548110610ae557610ae56123fe565b906000526020600020906006020160040154600214610b3c5760405162461bcd60e51b81526020600482015260136024820152724d61746368206973206e6f742061637469766560681b604482015260640161067a565b8160011480610b4b5750816002145b80610b565750816003145b610b905760405162461bcd60e51b815260206004820152600b60248201526a15dc9bdb99c8125b9c1d5d60aa1b604482015260640161067a565b6103e8600060015b6003811015610c345760005b600087815260ce60209081526040808320858452909152902054811015610c2157600087815260ce602090815260408083208584529091529020805482908110610bf057610bf06123fe565b90600052602060002090600302016002015484610c0d919061242a565b935080610c1981612442565b915050610ba4565b5080610c2c81612442565b915050610b98565b508360031415610e115760015b6003811015610de15760005b600087815260ce60209081526040808320858452909152902054811015610dce57600087815260ce60209081526040808320858452909152812080546063919084908110610c9d57610c9d6123fe565b9060005260206000209060030201600201546064610cbb919061245d565b610cc5919061247c565b60c95460008a815260ce60209081526040808320888452909152902080549293506001600160a01b039091169163a9059cbb919085908110610d0957610d096123fe565b600091825260209091206003909102015460405160e083901b6001600160e01b03191681526001600160a01b03909116600482015260248101849052604401602060405180830381600087803b158015610d6257600080fd5b505af1158015610d76573d6000803e3d6000fd5b505050506040513d601f19601f82011682018060405250810190610d9a919061249e565b508460cc8981548110610daf57610daf6123fe565b6000918252602090912001555080610dc681612442565b915050610c4d565b5080610dd981612442565b915050610c41565b50600360ca8681548110610df757610df76123fe565b90600052602060002090600602016004018190555061106b565b60005b600086815260ce60209081526040808320888452909152902054811015610e9157600086815260ce602090815260408083208884529091529020805482908110610e6057610e606123fe565b90600052602060002090600302016002015482610e7d919061242a565b915080610e8981612442565b915050610e14565b5060005b600086815260ce60209081526040808320888452909152902054811015610ff657600086815260ce602090815260408083208884529091528120805483908110610ee157610ee16123fe565b60009182526020822060026003909202010154915083610f01838761245d565b610f0b919061247c565b60c95460008a815260ce602090815260408083208c8452909152902080549293506001600160a01b039091169163a9059cbb919086908110610f4f57610f4f6123fe565b600091825260209091206003909102015460405160e083901b6001600160e01b03191681526001600160a01b03909116600482015260248101849052604401602060405180830381600087803b158015610fa857600080fd5b505af1158015610fbc573d6000803e3d6000fd5b505050506040513d601f19601f82011682018060405250810190610fe0919061249e565b5050508080610fee90612442565b915050610e95565b50600360ca868154811061100c5761100c6123fe565b9060005260206000209060060201600401819055508360ca8681548110611035576110356123fe565b9060005260206000209060060201600301819055508160cc868154811061105e5761105e6123fe565b6000918252602090912001555b5050505050565b60cc818154811061108257600080fd5b600091825260209091200154905081565b33600081815260cd60205260409020600101546001600160a01b03161461110a5760405162461bcd60e51b815260206004820152602560248201527f4f6e6c7920526567697374657265642055736572732063616e20506172746963604482015264697061746560d81b606482015260840161067a565b33600090815260cd602052604090206004015460ff161561116d5760405162461bcd60e51b815260206004820181905260248201527f44697361626c65642055736572732063616e2774205061727469636970617465604482015260640161067a565b60ca54839081106111b25760405162461bcd60e51b815260206004820152600f60248201526e125b9d985b1a59081b585d18da1259608a1b604482015260640161067a565b60ca81815481106111c5576111c56123fe565b90600052602060002090600602016004015460021461121c5760405162461bcd60e51b81526020600482015260136024820152724d61746368206973206e6f742061637469766560681b604482015260640161067a565b600061122960648461247c565b9050600061123782856124c0565b60c95460405163a9059cbb60e01b8152306004820152602481018390529192506001600160a01b03169063a9059cbb90604401602060405180830381600087803b15801561128457600080fd5b505af1158015611298573d6000803e3d6000fd5b505050506040513d601f19601f820116820180604052508101906112bc919061249e565b5060c95460405163a9059cbb60e01b8152336004820152602481018490526001600160a01b039091169063a9059cbb90604401602060405180830381600087803b15801561130957600080fd5b505af115801561131d573d6000803e3d6000fd5b505050506040513d601f19601f82011682018060405250810190611341919061249e565b50600095865260ce6020908152604080882087895282528088208151606081018352338152808401988952918201938452805460018082018355918a5292909820905160039092020180546001600160a01b0319166001600160a01b039092169190911781559451958501959095555050915160029091015550565b606060ca805480602002602001604051908101604052809291908181526020016000905b8282101561155f57838290600052602060002090600602016040518060c00160405290816000820154815260200160018201805461141e9061232b565b80601f016020809104026020016040519081016040528092919081815260200182805461144a9061232b565b80156114975780601f1061146c57610100808354040283529160200191611497565b820191906000526020600020905b81548152906001019060200180831161147a57829003601f168201915b505050505081526020016002820180546114b09061232b565b80601f01602080910402602001604051908101604052809291908181526020018280546114dc9061232b565b80156115295780601f106114fe57610100808354040283529160200191611529565b820191906000526020600020905b81548152906001019060200180831161150c57829003601f168201915b505050505081526020016003820154815260200160048201548152602001600582015481525050815260200190600101906113e1565b50505050905090565b600082815260ce602090815260408083208484528252808320805482518185028101850190935280835260609492939192909184015b828210156115f3576000848152602090819020604080516060810182526003860290920180546001600160a01b031683526001808201548486015260029091015491830191909152908352909201910161159e565b50505050905092915050565b600054610100900460ff161580801561161f5750600054600160ff909116105b806116395750303b158015611639575060005460ff166001145b61169c5760405162461bcd60e51b815260206004820152602e60248201527f496e697469616c697a61626c653a20636f6e747261637420697320616c72656160448201526d191e481a5b9a5d1a585b1a5e995960921b606482015260840161067a565b6000805460ff1916600117905580156116bf576000805461ff0019166101001790555b60c980546001600160a01b0384166001600160a01b03199182161790915560cf8054909116331790556116f0611b66565b6116f8611b95565b8015610985576000805461ff0019169055604051600181527f7f26b83ff96e1f2b6a682f133852f6798a09c465da95921460cefb38474024989060200160405180910390a15050565b606060cc80548060200260200160405190810160405280929190818152602001828054801561178f57602002820191906000526020600020905b81548152602001906001019080831161177b575b5050505050905090565b6117a1611aba565b6001600160a01b0381166118065760405162461bcd60e51b815260206004820152602660248201527f4f776e61626c653a206e6577206f776e657220697320746865207a65726f206160448201526564647265737360d01b606482015260840161067a565b61071781611b14565b611817611aba565b6040805160c08101825260ca8054808352602080840188815294840187905260006060850181905260016080860181905260a086018890528301845592909252825160069091027f42d72674974f694b5f5159593243114d38a5c39c89d6b62fee061ff523240ee1810191825593518051939491936118bf937f42d72674974f694b5f5159593243114d38a5c39c89d6b62fee061ff523240ee2909301929190910190611e31565b50604082015180516118db916002840191602090910190611e31565b50606082015160038201556080820151600482015560a090910151600590910155505060cc805460018101825560009182527f47197230e1e4b29fc0bd84d7d78966c0925452aff72a2a121538b102457e9ebe015550565b610717611aba565b7f4910fdfa16fed3260ed0e7147f7cc6da11a60208b5b9406d12a635614ffd91435460ff16156119735761196e83611bbc565b505050565b826001600160a01b03166352d1902d6040518163ffffffff1660e01b815260040160206040518083038186803b1580156119ac57600080fd5b505afa9250505080156119dc575060408051601f3d908101601f191682019092526119d9918101906124d7565b60015b611a3f5760405162461bcd60e51b815260206004820152602e60248201527f45524331393637557067726164653a206e657720696d706c656d656e7461746960448201526d6f6e206973206e6f74205555505360901b606482015260840161067a565b60008051602061256b8339815191528114611aae5760405162461bcd60e51b815260206004820152602960248201527f45524331393637557067726164653a20756e737570706f727465642070726f786044820152681a58589b195555525160ba1b606482015260840161067a565b5061196e838383611c58565b6097546001600160a01b03163314610a835760405162461bcd60e51b815260206004820181905260248201527f4f776e61626c653a2063616c6c6572206973206e6f7420746865206f776e6572604482015260640161067a565b609780546001600160a01b038381166001600160a01b0319831681179093556040519116919082907f8be0079c531659141344cd1fd0a4f28419497f9722a3daafe3b4186f6b6457e090600090a35050565b600054610100900460ff16611b8d5760405162461bcd60e51b815260040161067a906124f0565b610a83611c83565b600054610100900460ff16610a835760405162461bcd60e51b815260040161067a906124f0565b6001600160a01b0381163b611c295760405162461bcd60e51b815260206004820152602d60248201527f455243313936373a206e657720696d706c656d656e746174696f6e206973206e60448201526c1bdd08184818dbdb9d1c9858dd609a1b606482015260840161067a565b60008051602061256b83398151915280546001600160a01b0319166001600160a01b0392909216919091179055565b611c6183611cb3565b600082511180611c6e5750805b1561196e57611c7d8383611cf3565b50505050565b600054610100900460ff16611caa5760405162461bcd60e51b815260040161067a906124f0565b610a8333611b14565b611cbc81611bbc565b6040516001600160a01b038216907fbc7cd75a20ee27fd9adebab32041f755214dbc6bffa90cc0225b39da2e5c2d3b90600090a250565b60606001600160a01b0383163b611d5b5760405162461bcd60e51b815260206004820152602660248201527f416464726573733a2064656c65676174652063616c6c20746f206e6f6e2d636f6044820152651b9d1c9858dd60d21b606482015260840161067a565b600080846001600160a01b031684604051611d76919061253b565b600060405180830381855af49150503d8060008114611db1576040519150601f19603f3d011682016040523d82523d6000602084013e611db6565b606091505b5091509150611dde828260405180606001604052806027815260200161258b60279139611de7565b95945050505050565b60608315611df6575081611e00565b611e008383611e07565b9392505050565b815115611e175781518083602001fd5b8060405162461bcd60e51b815260040161067a9190612557565b828054611e3d9061232b565b90600052602060002090601f016020900481019282611e5f5760008555611ea5565b82601f10611e7857805160ff1916838001178555611ea5565b82800160010185558215611ea5579182015b82811115611ea5578251825591602001919060010190611e8a565b50611eb1929150611eb5565b5090565b5b80821115611eb15760008155600101611eb6565b600080600060608486031215611edf57600080fd5b505081359360208301359350604090920135919050565b80356001600160a01b0381168114611f0d57600080fd5b919050565b600060208284031215611f2457600080fd5b611e0082611ef6565b60005b83811015611f48578181015183820152602001611f30565b83811115611c7d5750506000910152565b60008151808452611f71816020860160208601611f2d565b601f01601f19169290920160200192915050565b8581526001600160a01b038516602082015260a060408201819052600090611faf90830186611f59565b8281036060840152611fc18186611f59565b91505082151560808301529695505050505050565b600060208284031215611fe857600080fd5b5035919050565b86815260c06020820152600061200860c0830188611f59565b828103604084015261201a8188611f59565b60608401969096525050608081019290925260a0909101529392505050565b634e487b7160e01b600052604160045260246000fd5b600067ffffffffffffffff8084111561206a5761206a612039565b604051601f8501601f19908116603f0116810190828211818310171561209257612092612039565b816040528093508581528686860111156120ab57600080fd5b858560208301376000602087830101525050509392505050565b600080604083850312156120d857600080fd5b6120e183611ef6565b9150602083013567ffffffffffffffff8111156120fd57600080fd5b8301601f8101851361210e57600080fd5b61211d8582356020840161204f565b9150509250929050565b6000806040838503121561213a57600080fd5b50508035926020909101359150565b60006020808301818452808551808352604092508286019150828160051b87010184880160005b838110156121ea57603f19898403018552815160c08151855288820151818a87015261219e82870182611f59565b91505087820151858203898701526121b68282611f59565b606084810151908801526080808501519088015260a093840151939096019290925250509386019390860190600101612170565b509098975050505050505050565b602080825282518282018190526000919060409081850190868401855b8281101561224d57815180516001600160a01b0316855286810151878601528501518585015260609093019290850190600101612215565b5091979650505050505050565b6020808252825182820181905260009190848201906040850190845b8181101561229257835183529284019291840191600101612276565b50909695505050505050565b600082601f8301126122af57600080fd5b611e008383356020850161204f565b6000806000606084860312156122d357600080fd5b833567ffffffffffffffff808211156122eb57600080fd5b6122f78783880161229e565b9450602086013591508082111561230d57600080fd5b5061231a8682870161229e565b925050604084013590509250925092565b600181811c9082168061233f57607f821691505b6020821081141561236057634e487b7160e01b600052602260045260246000fd5b50919050565b6020808252602c908201527f46756e6374696f6e206d7573742062652063616c6c6564207468726f7567682060408201526b19195b1959d85d1958d85b1b60a21b606082015260800190565b6020808252602c908201527f46756e6374696f6e206d7573742062652063616c6c6564207468726f7567682060408201526b6163746976652070726f787960a01b606082015260800190565b634e487b7160e01b600052603260045260246000fd5b634e487b7160e01b600052601160045260246000fd5b6000821982111561243d5761243d612414565b500190565b600060001982141561245657612456612414565b5060010190565b600081600019048311821515161561247757612477612414565b500290565b60008261249957634e487b7160e01b600052601260045260246000fd5b500490565b6000602082840312156124b057600080fd5b81518015158114611e0057600080fd5b6000828210156124d2576124d2612414565b500390565b6000602082840312156124e957600080fd5b5051919050565b6020808252602b908201527f496e697469616c697a61626c653a20636f6e7472616374206973206e6f74206960408201526a6e697469616c697a696e6760a81b606082015260800190565b6000825161254d818460208701611f2d565b9190910192915050565b602081526000611e006020830184611f5956fe360894a13ba1a3210667c828492db98dca3e2076cc3735a920a3ca505d382bbc416464726573733a206c6f772d6c6576656c2064656c65676174652063616c6c206661696c6564a26469706673582212209637b41cd258d7e8e095df7b4ef41209637f720b5b4c0f973d8707e14c0f693f64736f6c63430008090033","opcodes":"PUSH1 0xA0 PUSH1 0x40 MSTORE ADDRESS PUSH1 0x80 MSTORE CALLVALUE DUP1 ISZERO PUSH2 0x14 JUMPI PUSH1 0x0 DUP1 REVERT JUMPDEST POP PUSH1 0x80 MLOAD PUSH2 0x25E7 PUSH2 0x4C PUSH1 0x0 CODECOPY PUSH1 0x0 DUP2 DUP2 PUSH2 0x63C ADD MSTORE DUP2 DUP2 PUSH2 0x685 ADD MSTORE DUP2 DUP2 PUSH2 0x8C3 ADD MSTORE DUP2 DUP2 PUSH2 0x903 ADD MSTORE PUSH2 0x996 ADD MSTORE PUSH2 0x25E7 PUSH1 0x0 RETURN INVALID PUSH1 0x80 PUSH1 0x40 MSTORE PUSH1 0x4 CALLDATASIZE LT PUSH2 0x140 JUMPI PUSH1 0x0 CALLDATALOAD PUSH1 0xE0 SHR DUP1 PUSH4 0x8009CAF4 GT PUSH2 0xB6 JUMPI DUP1 PUSH4 0xE1E60671 GT PUSH2 0x6F JUMPI DUP1 PUSH4 0xE1E60671 EQ PUSH2 0x3B1 JUMPI DUP1 PUSH4 0xECD0C0C3 EQ PUSH2 0x3E9 JUMPI DUP1 PUSH4 0xF14733D4 EQ PUSH2 0x409 JUMPI DUP1 PUSH4 0xF2FDE38B EQ PUSH2 0x42B JUMPI DUP1 PUSH4 0xF851A440 EQ PUSH2 0x44B JUMPI DUP1 PUSH4 0xFAD54F3A EQ PUSH2 0x46B JUMPI PUSH1 0x0 DUP1 REVERT JUMPDEST DUP1 PUSH4 0x8009CAF4 EQ PUSH2 0x2D0 JUMPI DUP1 PUSH4 0x899A27C8 EQ PUSH2 0x2F0 JUMPI DUP1 PUSH4 0x8DA5CB5B EQ PUSH2 0x310 JUMPI DUP1 PUSH4 0xC17C5A45 EQ PUSH2 0x342 JUMPI DUP1 PUSH4 0xC2E43E49 EQ PUSH2 0x364 JUMPI DUP1 PUSH4 0xC4D66DE8 EQ PUSH2 0x391 JUMPI PUSH1 0x0 DUP1 REVERT JUMPDEST DUP1 PUSH4 0x4768D4EF GT PUSH2 0x108 JUMPI DUP1 PUSH4 0x4768D4EF EQ PUSH2 0x221 JUMPI DUP1 PUSH4 0x4F1EF286 EQ PUSH2 0x253 JUMPI DUP1 PUSH4 0x52D1902D EQ PUSH2 0x266 JUMPI DUP1 PUSH4 0x6003EA74 EQ PUSH2 0x27B JUMPI DUP1 PUSH4 0x715018A6 EQ PUSH2 0x29B JUMPI DUP1 PUSH4 0x74AFC209 EQ PUSH2 0x2B0 JUMPI PUSH1 0x0 DUP1 REVERT JUMPDEST DUP1 PUSH4 0x80EB32C EQ PUSH2 0x145 JUMPI DUP1 PUSH4 0x1A4C6CE7 EQ PUSH2 0x18F JUMPI DUP1 PUSH4 0x1B4E7BD2 EQ PUSH2 0x1AE JUMPI DUP1 PUSH4 0x3659CFE6 EQ PUSH2 0x1DF JUMPI DUP1 PUSH4 0x365B98B2 EQ PUSH2 0x201 JUMPI JUMPDEST PUSH1 0x0 DUP1 REVERT JUMPDEST CALLVALUE DUP1 ISZERO PUSH2 0x151 JUMPI PUSH1 0x0 DUP1 REVERT JUMPDEST POP PUSH2 0x165 PUSH2 0x160 CALLDATASIZE PUSH1 0x4 PUSH2 0x1ECA JUMP JUMPDEST PUSH2 0x48B JUMP JUMPDEST PUSH1 0x40 DUP1 MLOAD PUSH1 0x1 PUSH1 0x1 PUSH1 0xA0 SHL SUB SWAP1 SWAP5 AND DUP5 MSTORE PUSH1 0x20 DUP5 ADD SWAP3 SWAP1 SWAP3 MSTORE SWAP1 DUP3 ADD MSTORE PUSH1 0x60 ADD JUMPDEST PUSH1 0x40 MLOAD DUP1 SWAP2 SUB SWAP1 RETURN JUMPDEST CALLVALUE DUP1 ISZERO PUSH2 0x19B JUMPI PUSH1 0x0 DUP1 REVERT JUMPDEST POP PUSH1 0xCA SLOAD JUMPDEST PUSH1 0x40 MLOAD SWAP1 DUP2 MSTORE PUSH1 0x20 ADD PUSH2 0x186 JUMP JUMPDEST CALLVALUE DUP1 ISZERO PUSH2 0x1BA JUMPI PUSH1 0x0 DUP1 REVERT JUMPDEST POP PUSH2 0x1CE PUSH2 0x1C9 CALLDATASIZE PUSH1 0x4 PUSH2 0x1F12 JUMP JUMPDEST PUSH2 0x4E5 JUMP JUMPDEST PUSH1 0x40 MLOAD PUSH2 0x186 SWAP6 SWAP5 SWAP4 SWAP3 SWAP2 SWAP1 PUSH2 0x1F85 JUMP JUMPDEST CALLVALUE DUP1 ISZERO PUSH2 0x1EB JUMPI PUSH1 0x0 DUP1 REVERT JUMPDEST POP PUSH2 0x1FF PUSH2 0x1FA CALLDATASIZE PUSH1 0x4 PUSH2 0x1F12 JUMP JUMPDEST PUSH2 0x631 JUMP JUMPDEST STOP JUMPDEST CALLVALUE DUP1 ISZERO PUSH2 0x20D JUMPI PUSH1 0x0 DUP1 REVERT JUMPDEST POP PUSH2 0x1CE PUSH2 0x21C CALLDATASIZE PUSH1 0x4 PUSH2 0x1FD6 JUMP JUMPDEST PUSH2 0x71A JUMP JUMPDEST CALLVALUE DUP1 ISZERO PUSH2 0x22D JUMPI PUSH1 0x0 DUP1 REVERT JUMPDEST POP PUSH2 0x241 PUSH2 0x23C CALLDATASIZE PUSH1 0x4 PUSH2 0x1FD6 JUMP JUMPDEST PUSH2 0x760 JUMP JUMPDEST PUSH1 0x40 MLOAD PUSH2 0x186 SWAP7 SWAP6 SWAP5 SWAP4 SWAP3 SWAP2 SWAP1 PUSH2 0x1FEF JUMP JUMPDEST PUSH2 0x1FF PUSH2 0x261 CALLDATASIZE PUSH1 0x4 PUSH2 0x20C5 JUMP JUMPDEST PUSH2 0x8B8 JUMP JUMPDEST CALLVALUE DUP1 ISZERO PUSH2 0x272 JUMPI PUSH1 0x0 DUP1 REVERT JUMPDEST POP PUSH2 0x1A0 PUSH2 0x989 JUMP JUMPDEST CALLVALUE DUP1 ISZERO PUSH2 0x287 JUMPI PUSH1 0x0 DUP1 REVERT JUMPDEST POP PUSH2 0x1FF PUSH2 0x296 CALLDATASIZE PUSH1 0x4 PUSH2 0x2127 JUMP JUMPDEST PUSH2 0xA3C JUMP JUMPDEST CALLVALUE DUP1 ISZERO PUSH2 0x2A7 JUMPI PUSH1 0x0 DUP1 REVERT JUMPDEST POP PUSH2 0x1FF PUSH2 0xA71 JUMP JUMPDEST CALLVALUE DUP1 ISZERO PUSH2 0x2BC JUMPI PUSH1 0x0 DUP1 REVERT JUMPDEST POP PUSH2 0x1FF PUSH2 0x2CB CALLDATASIZE PUSH1 0x4 PUSH2 0x2127 JUMP JUMPDEST PUSH2 0xA85 JUMP JUMPDEST CALLVALUE DUP1 ISZERO PUSH2 0x2DC JUMPI PUSH1 0x0 DUP1 REVERT JUMPDEST POP PUSH2 0x1A0 PUSH2 0x2EB CALLDATASIZE PUSH1 0x4 PUSH2 0x1FD6 JUMP JUMPDEST PUSH2 0x1072 JUMP JUMPDEST CALLVALUE DUP1 ISZERO PUSH2 0x2FC JUMPI PUSH1 0x0 DUP1 REVERT JUMPDEST POP PUSH2 0x1FF PUSH2 0x30B CALLDATASIZE PUSH1 0x4 PUSH2 0x1ECA JUMP JUMPDEST PUSH2 0x1093 JUMP JUMPDEST CALLVALUE DUP1 ISZERO PUSH2 0x31C JUMPI PUSH1 0x0 DUP1 REVERT JUMPDEST POP PUSH1 0x97 SLOAD PUSH1 0x1 PUSH1 0x1 PUSH1 0xA0 SHL SUB AND JUMPDEST PUSH1 0x40 MLOAD PUSH1 0x1 PUSH1 0x1 PUSH1 0xA0 SHL SUB SWAP1 SWAP2 AND DUP2 MSTORE PUSH1 0x20 ADD PUSH2 0x186 JUMP JUMPDEST CALLVALUE DUP1 ISZERO PUSH2 0x34E JUMPI PUSH1 0x0 DUP1 REVERT JUMPDEST POP PUSH2 0x357 PUSH2 0x13BD JUMP JUMPDEST PUSH1 0x40 MLOAD PUSH2 0x186 SWAP2 SWAP1 PUSH2 0x2149 JUMP JUMPDEST CALLVALUE DUP1 ISZERO PUSH2 0x370 JUMPI PUSH1 0x0 DUP1 REVERT JUMPDEST POP PUSH2 0x384 PUSH2 0x37F CALLDATASIZE PUSH1 0x4 PUSH2 0x2127 JUMP JUMPDEST PUSH2 0x1568 JUMP JUMPDEST PUSH1 0x40 MLOAD PUSH2 0x186 SWAP2 SWAP1 PUSH2 0x21F8 JUMP JUMPDEST CALLVALUE DUP1 ISZERO PUSH2 0x39D JUMPI PUSH1 0x0 DUP1 REVERT JUMPDEST POP PUSH2 0x1FF PUSH2 0x3AC CALLDATASIZE PUSH1 0x4 PUSH2 0x1F12 JUMP JUMPDEST PUSH2 0x15FF JUMP JUMPDEST CALLVALUE DUP1 ISZERO PUSH2 0x3BD JUMPI PUSH1 0x0 DUP1 REVERT JUMPDEST POP PUSH2 0x1A0 PUSH2 0x3CC CALLDATASIZE PUSH1 0x4 PUSH2 0x2127 JUMP JUMPDEST PUSH1 0x0 SWAP2 DUP3 MSTORE PUSH1 0xCE PUSH1 0x20 SWAP1 DUP2 MSTORE PUSH1 0x40 DUP1 DUP5 KECCAK256 SWAP3 DUP5 MSTORE SWAP2 SWAP1 MSTORE SWAP1 KECCAK256 SLOAD SWAP1 JUMP JUMPDEST CALLVALUE DUP1 ISZERO PUSH2 0x3F5 JUMPI PUSH1 0x0 DUP1 REVERT JUMPDEST POP PUSH1 0xC9 SLOAD PUSH2 0x32A SWAP1 PUSH1 0x1 PUSH1 0x1 PUSH1 0xA0 SHL SUB AND DUP2 JUMP JUMPDEST CALLVALUE DUP1 ISZERO PUSH2 0x415 JUMPI PUSH1 0x0 DUP1 REVERT JUMPDEST POP PUSH2 0x41E PUSH2 0x1741 JUMP JUMPDEST PUSH1 0x40 MLOAD PUSH2 0x186 SWAP2 SWAP1 PUSH2 0x225A JUMP JUMPDEST CALLVALUE DUP1 ISZERO PUSH2 0x437 JUMPI PUSH1 0x0 DUP1 REVERT JUMPDEST POP PUSH2 0x1FF PUSH2 0x446 CALLDATASIZE PUSH1 0x4 PUSH2 0x1F12 JUMP JUMPDEST PUSH2 0x1799 JUMP JUMPDEST CALLVALUE DUP1 ISZERO PUSH2 0x457 JUMPI PUSH1 0x0 DUP1 REVERT JUMPDEST POP PUSH1 0xCF SLOAD PUSH2 0x32A SWAP1 PUSH1 0x1 PUSH1 0x1 PUSH1 0xA0 SHL SUB AND DUP2 JUMP JUMPDEST CALLVALUE DUP1 ISZERO PUSH2 0x477 JUMPI PUSH1 0x0 DUP1 REVERT JUMPDEST POP PUSH2 0x1FF PUSH2 0x486 CALLDATASIZE PUSH1 0x4 PUSH2 0x22BE JUMP JUMPDEST PUSH2 0x180F JUMP JUMPDEST PUSH1 0xCE PUSH1 0x20 MSTORE DUP3 PUSH1 0x0 MSTORE PUSH1 0x40 PUSH1 0x0 KECCAK256 PUSH1 0x20 MSTORE DUP2 PUSH1 0x0 MSTORE PUSH1 0x40 PUSH1 0x0 KECCAK256 DUP2 DUP2 SLOAD DUP2 LT PUSH2 0x4B3 JUMPI PUSH1 0x0 DUP1 REVERT JUMPDEST PUSH1 0x0 SWAP2 DUP3 MSTORE PUSH1 0x20 SWAP1 SWAP2 KECCAK256 PUSH1 0x3 SWAP1 SWAP2 MUL ADD DUP1 SLOAD PUSH1 0x1 DUP3 ADD SLOAD PUSH1 0x2 SWAP1 SWAP3 ADD SLOAD PUSH1 0x1 PUSH1 0x1 PUSH1 0xA0 SHL SUB SWAP1 SWAP2 AND SWAP5 POP SWAP1 SWAP3 POP SWAP1 POP DUP4 JUMP JUMPDEST PUSH1 0xCD PUSH1 0x20 MSTORE PUSH1 0x0 SWAP1 DUP2 MSTORE PUSH1 0x40 SWAP1 KECCAK256 DUP1 SLOAD PUSH1 0x1 DUP3 ADD SLOAD PUSH1 0x2 DUP4 ADD DUP1 SLOAD SWAP3 SWAP4 PUSH1 0x1 PUSH1 0x1 PUSH1 0xA0 SHL SUB SWAP1 SWAP3 AND SWAP3 PUSH2 0x517 SWAP1 PUSH2 0x232B JUMP JUMPDEST DUP1 PUSH1 0x1F ADD PUSH1 0x20 DUP1 SWAP2 DIV MUL PUSH1 0x20 ADD PUSH1 0x40 MLOAD SWAP1 DUP2 ADD PUSH1 0x40 MSTORE DUP1 SWAP3 SWAP2 SWAP1 DUP2 DUP2 MSTORE PUSH1 0x20 ADD DUP3 DUP1 SLOAD PUSH2 0x543 SWAP1 PUSH2 0x232B JUMP JUMPDEST DUP1 ISZERO PUSH2 0x590 JUMPI DUP1 PUSH1 0x1F LT PUSH2 0x565 JUMPI PUSH2 0x100 DUP1 DUP4 SLOAD DIV MUL DUP4 MSTORE SWAP2 PUSH1 0x20 ADD SWAP2 PUSH2 0x590 JUMP JUMPDEST DUP3 ADD SWAP2 SWAP1 PUSH1 0x0 MSTORE PUSH1 0x20 PUSH1 0x0 KECCAK256 SWAP1 JUMPDEST DUP2 SLOAD DUP2 MSTORE SWAP1 PUSH1 0x1 ADD SWAP1 PUSH1 0x20 ADD DUP1 DUP4 GT PUSH2 0x573 JUMPI DUP3 SWAP1 SUB PUSH1 0x1F AND DUP3 ADD SWAP2 JUMPDEST POP POP POP POP POP SWAP1 DUP1 PUSH1 0x3 ADD DUP1 SLOAD PUSH2 0x5A5 SWAP1 PUSH2 0x232B JUMP JUMPDEST DUP1 PUSH1 0x1F ADD PUSH1 0x20 DUP1 SWAP2 DIV MUL PUSH1 0x20 ADD PUSH1 0x40 MLOAD SWAP1 DUP2 ADD PUSH1 0x40 MSTORE DUP1 SWAP3 SWAP2 SWAP1 DUP2 DUP2 MSTORE PUSH1 0x20 ADD DUP3 DUP1 SLOAD PUSH2 0x5D1 SWAP1 PUSH2 0x232B JUMP JUMPDEST DUP1 ISZERO PUSH2 0x61E JUMPI DUP1 PUSH1 0x1F LT PUSH2 0x5F3 JUMPI PUSH2 0x100 DUP1 DUP4 SLOAD DIV MUL DUP4 MSTORE SWAP2 PUSH1 0x20 ADD SWAP2 PUSH2 0x61E JUMP JUMPDEST DUP3 ADD SWAP2 SWAP1 PUSH1 0x0 MSTORE PUSH1 0x20 PUSH1 0x0 KECCAK256 SWAP1 JUMPDEST DUP2 SLOAD DUP2 MSTORE SWAP1 PUSH1 0x1 ADD SWAP1 PUSH1 0x20 ADD DUP1 DUP4 GT PUSH2 0x601 JUMPI DUP3 SWAP1 SUB PUSH1 0x1F AND DUP3 ADD SWAP2 JUMPDEST POP POP POP PUSH1 0x4 SWAP1 SWAP4 ADD SLOAD SWAP2 SWAP3 POP POP PUSH1 0xFF AND DUP6 JUMP JUMPDEST ADDRESS PUSH1 0x1 PUSH1 0x1 PUSH1 0xA0 SHL SUB PUSH32 0x0 AND EQ ISZERO PUSH2 0x683 JUMPI PUSH1 0x40 MLOAD PUSH3 0x461BCD PUSH1 0xE5 SHL DUP2 MSTORE PUSH1 0x4 ADD PUSH2 0x67A SWAP1 PUSH2 0x2366 JUMP JUMPDEST PUSH1 0x40 MLOAD DUP1 SWAP2 SUB SWAP1 REVERT JUMPDEST PUSH32 0x0 PUSH1 0x1 PUSH1 0x1 PUSH1 0xA0 SHL SUB AND PUSH2 0x6CC PUSH1 0x0 DUP1 MLOAD PUSH1 0x20 PUSH2 0x256B DUP4 CODECOPY DUP2 MLOAD SWAP2 MSTORE SLOAD PUSH1 0x1 PUSH1 0x1 PUSH1 0xA0 SHL SUB AND SWAP1 JUMP JUMPDEST PUSH1 0x1 PUSH1 0x1 PUSH1 0xA0 SHL SUB AND EQ PUSH2 0x6F2 JUMPI PUSH1 0x40 MLOAD PUSH3 0x461BCD PUSH1 0xE5 SHL DUP2 MSTORE PUSH1 0x4 ADD PUSH2 0x67A SWAP1 PUSH2 0x23B2 JUMP JUMPDEST PUSH2 0x6FB DUP2 PUSH2 0x1933 JUMP JUMPDEST PUSH1 0x40 DUP1 MLOAD PUSH1 0x0 DUP1 DUP3 MSTORE PUSH1 0x20 DUP3 ADD SWAP1 SWAP3 MSTORE PUSH2 0x717 SWAP2 DUP4 SWAP2 SWAP1 PUSH2 0x193B JUMP JUMPDEST POP JUMP JUMPDEST PUSH1 0xCB DUP2 DUP2 SLOAD DUP2 LT PUSH2 0x72A JUMPI PUSH1 0x0 DUP1 REVERT JUMPDEST PUSH1 0x0 SWAP2 DUP3 MSTORE PUSH1 0x20 SWAP1 SWAP2 KECCAK256 PUSH1 0x5 SWAP1 SWAP2 MUL ADD DUP1 SLOAD PUSH1 0x1 DUP3 ADD SLOAD PUSH1 0x2 DUP4 ADD DUP1 SLOAD SWAP3 SWAP5 POP PUSH1 0x1 PUSH1 0x1 PUSH1 0xA0 SHL SUB SWAP1 SWAP2 AND SWAP3 SWAP2 PUSH2 0x517 SWAP1 PUSH2 0x232B JUMP JUMPDEST PUSH1 0xCA DUP2 DUP2 SLOAD DUP2 LT PUSH2 0x770 JUMPI PUSH1 0x0 DUP1 REVERT JUMPDEST PUSH1 0x0 SWAP2 DUP3 MSTORE PUSH1 0x20 SWAP1 SWAP2 KECCAK256 PUSH1 0x6 SWAP1 SWAP2 MUL ADD DUP1 SLOAD PUSH1 0x1 DUP3 ADD DUP1 SLOAD SWAP2 SWAP4 POP SWAP1 PUSH2 0x795 SWAP1 PUSH2 0x232B JUMP JUMPDEST DUP1 PUSH1 0x1F ADD PUSH1 0x20 DUP1 SWAP2 DIV MUL PUSH1 0x20 ADD PUSH1 0x40 MLOAD SWAP1 DUP2 ADD PUSH1 0x40 MSTORE DUP1 SWAP3 SWAP2 SWAP1 DUP2 DUP2 MSTORE PUSH1 0x20 ADD DUP3 DUP1 SLOAD PUSH2 0x7C1 SWAP1 PUSH2 0x232B JUMP JUMPDEST DUP1 ISZERO PUSH2 0x80E JUMPI DUP1 PUSH1 0x1F LT PUSH2 0x7E3 JUMPI PUSH2 0x100 DUP1 DUP4 SLOAD DIV MUL DUP4 MSTORE SWAP2 PUSH1 0x20 ADD SWAP2 PUSH2 0x80E JUMP JUMPDEST DUP3 ADD SWAP2 SWAP1 PUSH1 0x0 MSTORE PUSH1 0x20 PUSH1 0x0 KECCAK256 SWAP1 JUMPDEST DUP2 SLOAD DUP2 MSTORE SWAP1 PUSH1 0x1 ADD SWAP1 PUSH1 0x20 ADD DUP1 DUP4 GT PUSH2 0x7F1 JUMPI DUP3 SWAP1 SUB PUSH1 0x1F AND DUP3 ADD SWAP2 JUMPDEST POP POP POP POP POP SWAP1 DUP1 PUSH1 0x2 ADD DUP1 SLOAD PUSH2 0x823 SWAP1 PUSH2 0x232B JUMP JUMPDEST DUP1 PUSH1 0x1F ADD PUSH1 0x20 DUP1 SWAP2 DIV MUL PUSH1 0x20 ADD PUSH1 0x40 MLOAD SWAP1 DUP2 ADD PUSH1 0x40 MSTORE DUP1 SWAP3 SWAP2 SWAP1 DUP2 DUP2 MSTORE PUSH1 0x20 ADD DUP3 DUP1 SLOAD PUSH2 0x84F SWAP1 PUSH2 0x232B JUMP JUMPDEST DUP1 ISZERO PUSH2 0x89C JUMPI DUP1 PUSH1 0x1F LT PUSH2 0x871 JUMPI PUSH2 0x100 DUP1 DUP4 SLOAD DIV MUL DUP4 MSTORE SWAP2 PUSH1 0x20 ADD SWAP2 PUSH2 0x89C JUMP JUMPDEST DUP3 ADD SWAP2 SWAP1 PUSH1 0x0 MSTORE PUSH1 0x20 PUSH1 0x0 KECCAK256 SWAP1 JUMPDEST DUP2 SLOAD DUP2 MSTORE SWAP1 PUSH1 0x1 ADD SWAP1 PUSH1 0x20 ADD DUP1 DUP4 GT PUSH2 0x87F JUMPI DUP3 SWAP1 SUB PUSH1 0x1F AND DUP3 ADD SWAP2 JUMPDEST POP POP POP POP POP SWAP1 DUP1 PUSH1 0x3 ADD SLOAD SWAP1 DUP1 PUSH1 0x4 ADD SLOAD SWAP1 DUP1 PUSH1 0x5 ADD SLOAD SWAP1 POP DUP7 JUMP JUMPDEST ADDRESS PUSH1 0x1 PUSH1 0x1 PUSH1 0xA0 SHL SUB PUSH32 0x0 AND EQ ISZERO PUSH2 0x901 JUMPI PUSH1 0x40 MLOAD PUSH3 0x461BCD PUSH1 0xE5 SHL DUP2 MSTORE PUSH1 0x4 ADD PUSH2 0x67A SWAP1 PUSH2 0x2366 JUMP JUMPDEST PUSH32 0x0 PUSH1 0x1 PUSH1 0x1 PUSH1 0xA0 SHL SUB AND PUSH2 0x94A PUSH1 0x0 DUP1 MLOAD PUSH1 0x20 PUSH2 0x256B DUP4 CODECOPY DUP2 MLOAD SWAP2 MSTORE SLOAD PUSH1 0x1 PUSH1 0x1 PUSH1 0xA0 SHL SUB AND SWAP1 JUMP JUMPDEST PUSH1 0x1 PUSH1 0x1 PUSH1 0xA0 SHL SUB AND EQ PUSH2 0x970 JUMPI PUSH1 0x40 MLOAD PUSH3 0x461BCD PUSH1 0xE5 SHL DUP2 MSTORE PUSH1 0x4 ADD PUSH2 0x67A SWAP1 PUSH2 0x23B2 JUMP JUMPDEST PUSH2 0x979 DUP3 PUSH2 0x1933 JUMP JUMPDEST PUSH2 0x985 DUP3 DUP3 PUSH1 0x1 PUSH2 0x193B JUMP JUMPDEST POP POP JUMP JUMPDEST PUSH1 0x0 ADDRESS PUSH1 0x1 PUSH1 0x1 PUSH1 0xA0 SHL SUB PUSH32 0x0 AND EQ PUSH2 0xA29 JUMPI PUSH1 0x40 MLOAD PUSH3 0x461BCD PUSH1 0xE5 SHL DUP2 MSTORE PUSH1 0x20 PUSH1 0x4 DUP3 ADD MSTORE PUSH1 0x38 PUSH1 0x24 DUP3 ADD MSTORE PUSH32 0x555550535570677261646561626C653A206D757374206E6F742062652063616C PUSH1 0x44 DUP3 ADD MSTORE PUSH32 0x6C6564207468726F7567682064656C656761746563616C6C0000000000000000 PUSH1 0x64 DUP3 ADD MSTORE PUSH1 0x84 ADD PUSH2 0x67A JUMP JUMPDEST POP PUSH1 0x0 DUP1 MLOAD PUSH1 0x20 PUSH2 0x256B DUP4 CODECOPY DUP2 MLOAD SWAP2 MSTORE SWAP1 JUMP JUMPDEST PUSH2 0xA44 PUSH2 0x1ABA JUMP JUMPDEST DUP1 PUSH1 0xCA DUP4 DUP2 SLOAD DUP2 LT PUSH2 0xA58 JUMPI PUSH2 0xA58 PUSH2 0x23FE JUMP JUMPDEST SWAP1 PUSH1 0x0 MSTORE PUSH1 0x20 PUSH1 0x0 KECCAK256 SWAP1 PUSH1 0x6 MUL ADD PUSH1 0x4 ADD DUP2 SWAP1 SSTORE POP POP POP JUMP JUMPDEST PUSH2 0xA79 PUSH2 0x1ABA JUMP JUMPDEST PUSH2 0xA83 PUSH1 0x0 PUSH2 0x1B14 JUMP JUMPDEST JUMP JUMPDEST PUSH2 0xA8D PUSH2 0x1ABA JUMP JUMPDEST PUSH1 0xCA SLOAD DUP3 SWAP1 DUP2 LT PUSH2 0xAD2 JUMPI PUSH1 0x40 MLOAD PUSH3 0x461BCD PUSH1 0xE5 SHL DUP2 MSTORE PUSH1 0x20 PUSH1 0x4 DUP3 ADD MSTORE PUSH1 0xF PUSH1 0x24 DUP3 ADD MSTORE PUSH15 0x125B9D985B1A59081B585D18DA1259 PUSH1 0x8A SHL PUSH1 0x44 DUP3 ADD MSTORE PUSH1 0x64 ADD PUSH2 0x67A JUMP JUMPDEST PUSH1 0xCA DUP2 DUP2 SLOAD DUP2 LT PUSH2 0xAE5 JUMPI PUSH2 0xAE5 PUSH2 0x23FE JUMP JUMPDEST SWAP1 PUSH1 0x0 MSTORE PUSH1 0x20 PUSH1 0x0 KECCAK256 SWAP1 PUSH1 0x6 MUL ADD PUSH1 0x4 ADD SLOAD PUSH1 0x2 EQ PUSH2 0xB3C JUMPI PUSH1 0x40 MLOAD PUSH3 0x461BCD PUSH1 0xE5 SHL DUP2 MSTORE PUSH1 0x20 PUSH1 0x4 DUP3 ADD MSTORE PUSH1 0x13 PUSH1 0x24 DUP3 ADD MSTORE PUSH19 0x4D61746368206973206E6F7420616374697665 PUSH1 0x68 SHL PUSH1 0x44 DUP3 ADD MSTORE PUSH1 0x64 ADD PUSH2 0x67A JUMP JUMPDEST DUP2 PUSH1 0x1 EQ DUP1 PUSH2 0xB4B JUMPI POP DUP2 PUSH1 0x2 EQ JUMPDEST DUP1 PUSH2 0xB56 JUMPI POP DUP2 PUSH1 0x3 EQ JUMPDEST PUSH2 0xB90 JUMPI PUSH1 0x40 MLOAD PUSH3 0x461BCD PUSH1 0xE5 SHL DUP2 MSTORE PUSH1 0x20 PUSH1 0x4 DUP3 ADD MSTORE PUSH1 0xB PUSH1 0x24 DUP3 ADD MSTORE PUSH11 0x15DC9BDB99C8125B9C1D5D PUSH1 0xAA SHL PUSH1 0x44 DUP3 ADD MSTORE PUSH1 0x64 ADD PUSH2 0x67A JUMP JUMPDEST PUSH2 0x3E8 PUSH1 0x0 PUSH1 0x1 JUMPDEST PUSH1 0x3 DUP2 LT ISZERO PUSH2 0xC34 JUMPI PUSH1 0x0 JUMPDEST PUSH1 0x0 DUP8 DUP2 MSTORE PUSH1 0xCE PUSH1 0x20 SWAP1 DUP2 MSTORE PUSH1 0x40 DUP1 DUP4 KECCAK256 DUP6 DUP5 MSTORE SWAP1 SWAP2 MSTORE SWAP1 KECCAK256 SLOAD DUP2 LT ISZERO PUSH2 0xC21 JUMPI PUSH1 0x0 DUP8 DUP2 MSTORE PUSH1 0xCE PUSH1 0x20 SWAP1 DUP2 MSTORE PUSH1 0x40 DUP1 DUP4 KECCAK256 DUP6 DUP5 MSTORE SWAP1 SWAP2 MSTORE SWAP1 KECCAK256 DUP1 SLOAD DUP3 SWAP1 DUP2 LT PUSH2 0xBF0 JUMPI PUSH2 0xBF0 PUSH2 0x23FE JUMP JUMPDEST SWAP1 PUSH1 0x0 MSTORE PUSH1 0x20 PUSH1 0x0 KECCAK256 SWAP1 PUSH1 0x3 MUL ADD PUSH1 0x2 ADD SLOAD DUP5 PUSH2 0xC0D SWAP2 SWAP1 PUSH2 0x242A JUMP JUMPDEST SWAP4 POP DUP1 PUSH2 0xC19 DUP2 PUSH2 0x2442 JUMP JUMPDEST SWAP2 POP POP PUSH2 0xBA4 JUMP JUMPDEST POP DUP1 PUSH2 0xC2C DUP2 PUSH2 0x2442 JUMP JUMPDEST SWAP2 POP POP PUSH2 0xB98 JUMP JUMPDEST POP DUP4 PUSH1 0x3 EQ ISZERO PUSH2 0xE11 JUMPI PUSH1 0x1 JUMPDEST PUSH1 0x3 DUP2 LT ISZERO PUSH2 0xDE1 JUMPI PUSH1 0x0 JUMPDEST PUSH1 0x0 DUP8 DUP2 MSTORE PUSH1 0xCE PUSH1 0x20 SWAP1 DUP2 MSTORE PUSH1 0x40 DUP1 DUP4 KECCAK256 DUP6 DUP5 MSTORE SWAP1 SWAP2 MSTORE SWAP1 KECCAK256 SLOAD DUP2 LT ISZERO PUSH2 0xDCE JUMPI PUSH1 0x0 DUP8 DUP2 MSTORE PUSH1 0xCE PUSH1 0x20 SWAP1 DUP2 MSTORE PUSH1 0x40 DUP1 DUP4 KECCAK256 DUP6 DUP5 MSTORE SWAP1 SWAP2 MSTORE DUP2 KECCAK256 DUP1 SLOAD PUSH1 0x63 SWAP2 SWAP1 DUP5 SWAP1 DUP2 LT PUSH2 0xC9D JUMPI PUSH2 0xC9D PUSH2 0x23FE JUMP JUMPDEST SWAP1 PUSH1 0x0 MSTORE PUSH1 0x20 PUSH1 0x0 KECCAK256 SWAP1 PUSH1 0x3 MUL ADD PUSH1 0x2 ADD SLOAD PUSH1 0x64 PUSH2 0xCBB SWAP2 SWAP1 PUSH2 0x245D JUMP JUMPDEST PUSH2 0xCC5 SWAP2 SWAP1 PUSH2 0x247C JUMP JUMPDEST PUSH1 0xC9 SLOAD PUSH1 0x0 DUP11 DUP2 MSTORE PUSH1 0xCE PUSH1 0x20 SWAP1 DUP2 MSTORE PUSH1 0x40 DUP1 DUP4 KECCAK256 DUP9 DUP5 MSTORE SWAP1 SWAP2 MSTORE SWAP1 KECCAK256 DUP1 SLOAD SWAP3 SWAP4 POP PUSH1 0x1 PUSH1 0x1 PUSH1 0xA0 SHL SUB SWAP1 SWAP2 AND SWAP2 PUSH4 0xA9059CBB SWAP2 SWAP1 DUP6 SWAP1 DUP2 LT PUSH2 0xD09 JUMPI PUSH2 0xD09 PUSH2 0x23FE JUMP JUMPDEST PUSH1 0x0 SWAP2 DUP3 MSTORE PUSH1 0x20 SWAP1 SWAP2 KECCAK256 PUSH1 0x3 SWAP1 SWAP2 MUL ADD SLOAD PUSH1 0x40 MLOAD PUSH1 0xE0 DUP4 SWAP1 SHL PUSH1 0x1 PUSH1 0x1 PUSH1 0xE0 SHL SUB NOT AND DUP2 MSTORE PUSH1 0x1 PUSH1 0x1 PUSH1 0xA0 SHL SUB SWAP1 SWAP2 AND PUSH1 0x4 DUP3 ADD MSTORE PUSH1 0x24 DUP2 ADD DUP5 SWAP1 MSTORE PUSH1 0x44 ADD PUSH1 0x20 PUSH1 0x40 MLOAD DUP1 DUP4 SUB DUP2 PUSH1 0x0 DUP8 DUP1 EXTCODESIZE ISZERO DUP1 ISZERO PUSH2 0xD62 JUMPI PUSH1 0x0 DUP1 REVERT JUMPDEST POP GAS CALL ISZERO DUP1 ISZERO PUSH2 0xD76 JUMPI RETURNDATASIZE PUSH1 0x0 DUP1 RETURNDATACOPY RETURNDATASIZE PUSH1 0x0 REVERT JUMPDEST POP POP POP POP PUSH1 0x40 MLOAD RETURNDATASIZE PUSH1 0x1F NOT PUSH1 0x1F DUP3 ADD AND DUP3 ADD DUP1 PUSH1 0x40 MSTORE POP DUP2 ADD SWAP1 PUSH2 0xD9A SWAP2 SWAP1 PUSH2 0x249E JUMP JUMPDEST POP DUP5 PUSH1 0xCC DUP10 DUP2 SLOAD DUP2 LT PUSH2 0xDAF JUMPI PUSH2 0xDAF PUSH2 0x23FE JUMP JUMPDEST PUSH1 0x0 SWAP2 DUP3 MSTORE PUSH1 0x20 SWAP1 SWAP2 KECCAK256 ADD SSTORE POP DUP1 PUSH2 0xDC6 DUP2 PUSH2 0x2442 JUMP JUMPDEST SWAP2 POP POP PUSH2 0xC4D JUMP JUMPDEST POP DUP1 PUSH2 0xDD9 DUP2 PUSH2 0x2442 JUMP JUMPDEST SWAP2 POP POP PUSH2 0xC41 JUMP JUMPDEST POP PUSH1 0x3 PUSH1 0xCA DUP7 DUP2 SLOAD DUP2 LT PUSH2 0xDF7 JUMPI PUSH2 0xDF7 PUSH2 0x23FE JUMP JUMPDEST SWAP1 PUSH1 0x0 MSTORE PUSH1 0x20 PUSH1 0x0 KECCAK256 SWAP1 PUSH1 0x6 MUL ADD PUSH1 0x4 ADD DUP2 SWAP1 SSTORE POP PUSH2 0x106B JUMP JUMPDEST PUSH1 0x0 JUMPDEST PUSH1 0x0 DUP7 DUP2 MSTORE PUSH1 0xCE PUSH1 0x20 SWAP1 DUP2 MSTORE PUSH1 0x40 DUP1 DUP4 KECCAK256 DUP9 DUP5 MSTORE SWAP1 SWAP2 MSTORE SWAP1 KECCAK256 SLOAD DUP2 LT ISZERO PUSH2 0xE91 JUMPI PUSH1 0x0 DUP7 DUP2 MSTORE PUSH1 0xCE PUSH1 0x20 SWAP1 DUP2 MSTORE PUSH1 0x40 DUP1 DUP4 KECCAK256 DUP9 DUP5 MSTORE SWAP1 SWAP2 MSTORE SWAP1 KECCAK256 DUP1 SLOAD DUP3 SWAP1 DUP2 LT PUSH2 0xE60 JUMPI PUSH2 0xE60 PUSH2 0x23FE JUMP JUMPDEST SWAP1 PUSH1 0x0 MSTORE PUSH1 0x20 PUSH1 0x0 KECCAK256 SWAP1 PUSH1 0x3 MUL ADD PUSH1 0x2 ADD SLOAD DUP3 PUSH2 0xE7D SWAP2 SWAP1 PUSH2 0x242A JUMP JUMPDEST SWAP2 POP DUP1 PUSH2 0xE89 DUP2 PUSH2 0x2442 JUMP JUMPDEST SWAP2 POP POP PUSH2 0xE14 JUMP JUMPDEST POP PUSH1 0x0 JUMPDEST PUSH1 0x0 DUP7 DUP2 MSTORE PUSH1 0xCE PUSH1 0x20 SWAP1 DUP2 MSTORE PUSH1 0x40 DUP1 DUP4 KECCAK256 DUP9 DUP5 MSTORE SWAP1 SWAP2 MSTORE SWAP1 KECCAK256 SLOAD DUP2 LT ISZERO PUSH2 0xFF6 JUMPI PUSH1 0x0 DUP7 DUP2 MSTORE PUSH1 0xCE PUSH1 0x20 SWAP1 DUP2 MSTORE PUSH1 0x40 DUP1 DUP4 KECCAK256 DUP9 DUP5 MSTORE SWAP1 SWAP2 MSTORE DUP2 KECCAK256 DUP1 SLOAD DUP4 SWAP1 DUP2 LT PUSH2 0xEE1 JUMPI PUSH2 0xEE1 PUSH2 0x23FE JUMP JUMPDEST PUSH1 0x0 SWAP2 DUP3 MSTORE PUSH1 0x20 DUP3 KECCAK256 PUSH1 0x2 PUSH1 0x3 SWAP1 SWAP3 MUL ADD ADD SLOAD SWAP2 POP DUP4 PUSH2 0xF01 DUP4 DUP8 PUSH2 0x245D JUMP JUMPDEST PUSH2 0xF0B SWAP2 SWAP1 PUSH2 0x247C JUMP JUMPDEST PUSH1 0xC9 SLOAD PUSH1 0x0 DUP11 DUP2 MSTORE PUSH1 0xCE PUSH1 0x20 SWAP1 DUP2 MSTORE PUSH1 0x40 DUP1 DUP4 KECCAK256 DUP13 DUP5 MSTORE SWAP1 SWAP2 MSTORE SWAP1 KECCAK256 DUP1 SLOAD SWAP3 SWAP4 POP PUSH1 0x1 PUSH1 0x1 PUSH1 0xA0 SHL SUB SWAP1 SWAP2 AND SWAP2 PUSH4 0xA9059CBB SWAP2 SWAP1 DUP7 SWAP1 DUP2 LT PUSH2 0xF4F JUMPI PUSH2 0xF4F PUSH2 0x23FE JUMP JUMPDEST PUSH1 0x0 SWAP2 DUP3 MSTORE PUSH1 0x20 SWAP1 SWAP2 KECCAK256 PUSH1 0x3 SWAP1 SWAP2 MUL ADD SLOAD PUSH1 0x40 MLOAD PUSH1 0xE0 DUP4 SWAP1 SHL PUSH1 0x1 PUSH1 0x1 PUSH1 0xE0 SHL SUB NOT AND DUP2 MSTORE PUSH1 0x1 PUSH1 0x1 PUSH1 0xA0 SHL SUB SWAP1 SWAP2 AND PUSH1 0x4 DUP3 ADD MSTORE PUSH1 0x24 DUP2 ADD DUP5 SWAP1 MSTORE PUSH1 0x44 ADD PUSH1 0x20 PUSH1 0x40 MLOAD DUP1 DUP4 SUB DUP2 PUSH1 0x0 DUP8 DUP1 EXTCODESIZE ISZERO DUP1 ISZERO PUSH2 0xFA8 JUMPI PUSH1 0x0 DUP1 REVERT JUMPDEST POP GAS CALL ISZERO DUP1 ISZERO PUSH2 0xFBC JUMPI RETURNDATASIZE PUSH1 0x0 DUP1 RETURNDATACOPY RETURNDATASIZE PUSH1 0x0 REVERT JUMPDEST POP POP POP POP PUSH1 0x40 MLOAD RETURNDATASIZE PUSH1 0x1F NOT PUSH1 0x1F DUP3 ADD AND DUP3 ADD DUP1 PUSH1 0x40 MSTORE POP DUP2 ADD SWAP1 PUSH2 0xFE0 SWAP2 SWAP1 PUSH2 0x249E JUMP JUMPDEST POP POP POP DUP1 DUP1 PUSH2 0xFEE SWAP1 PUSH2 0x2442 JUMP JUMPDEST SWAP2 POP POP PUSH2 0xE95 JUMP JUMPDEST POP PUSH1 0x3 PUSH1 0xCA DUP7 DUP2 SLOAD DUP2 LT PUSH2 0x100C JUMPI PUSH2 0x100C PUSH2 0x23FE JUMP JUMPDEST SWAP1 PUSH1 0x0 MSTORE PUSH1 0x20 PUSH1 0x0 KECCAK256 SWAP1 PUSH1 0x6 MUL ADD PUSH1 0x4 ADD DUP2 SWAP1 SSTORE POP DUP4 PUSH1 0xCA DUP7 DUP2 SLOAD DUP2 LT PUSH2 0x1035 JUMPI PUSH2 0x1035 PUSH2 0x23FE JUMP JUMPDEST SWAP1 PUSH1 0x0 MSTORE PUSH1 0x20 PUSH1 0x0 KECCAK256 SWAP1 PUSH1 0x6 MUL ADD PUSH1 0x3 ADD DUP2 SWAP1 SSTORE POP DUP2 PUSH1 0xCC DUP7 DUP2 SLOAD DUP2 LT PUSH2 0x105E JUMPI PUSH2 0x105E PUSH2 0x23FE JUMP JUMPDEST PUSH1 0x0 SWAP2 DUP3 MSTORE PUSH1 0x20 SWAP1 SWAP2 KECCAK256 ADD SSTORE JUMPDEST POP POP POP POP POP JUMP JUMPDEST PUSH1 0xCC DUP2 DUP2 SLOAD DUP2 LT PUSH2 0x1082 JUMPI PUSH1 0x0 DUP1 REVERT JUMPDEST PUSH1 0x0 SWAP2 DUP3 MSTORE PUSH1 0x20 SWAP1 SWAP2 KECCAK256 ADD SLOAD SWAP1 POP DUP2 JUMP JUMPDEST CALLER PUSH1 0x0 DUP2 DUP2 MSTORE PUSH1 0xCD PUSH1 0x20 MSTORE PUSH1 0x40 SWAP1 KECCAK256 PUSH1 0x1 ADD SLOAD PUSH1 0x1 PUSH1 0x1 PUSH1 0xA0 SHL SUB AND EQ PUSH2 0x110A JUMPI PUSH1 0x40 MLOAD PUSH3 0x461BCD PUSH1 0xE5 SHL DUP2 MSTORE PUSH1 0x20 PUSH1 0x4 DUP3 ADD MSTORE PUSH1 0x25 PUSH1 0x24 DUP3 ADD MSTORE PUSH32 0x4F6E6C7920526567697374657265642055736572732063616E20506172746963 PUSH1 0x44 DUP3 ADD MSTORE PUSH5 0x6970617465 PUSH1 0xD8 SHL PUSH1 0x64 DUP3 ADD MSTORE PUSH1 0x84 ADD PUSH2 0x67A JUMP JUMPDEST CALLER PUSH1 0x0 SWAP1 DUP2 MSTORE PUSH1 0xCD PUSH1 0x20 MSTORE PUSH1 0x40 SWAP1 KECCAK256 PUSH1 0x4 ADD SLOAD PUSH1 0xFF AND ISZERO PUSH2 0x116D JUMPI PUSH1 0x40 MLOAD PUSH3 0x461BCD PUSH1 0xE5 SHL DUP2 MSTORE PUSH1 0x20 PUSH1 0x4 DUP3 ADD DUP2 SWAP1 MSTORE PUSH1 0x24 DUP3 ADD MSTORE PUSH32 0x44697361626C65642055736572732063616E2774205061727469636970617465 PUSH1 0x44 DUP3 ADD MSTORE PUSH1 0x64 ADD PUSH2 0x67A JUMP JUMPDEST PUSH1 0xCA SLOAD DUP4 SWAP1 DUP2 LT PUSH2 0x11B2 JUMPI PUSH1 0x40 MLOAD PUSH3 0x461BCD PUSH1 0xE5 SHL DUP2 MSTORE PUSH1 0x20 PUSH1 0x4 DUP3 ADD MSTORE PUSH1 0xF PUSH1 0x24 DUP3 ADD MSTORE PUSH15 0x125B9D985B1A59081B585D18DA1259 PUSH1 0x8A SHL PUSH1 0x44 DUP3 ADD MSTORE PUSH1 0x64 ADD PUSH2 0x67A JUMP JUMPDEST PUSH1 0xCA DUP2 DUP2 SLOAD DUP2 LT PUSH2 0x11C5 JUMPI PUSH2 0x11C5 PUSH2 0x23FE JUMP JUMPDEST SWAP1 PUSH1 0x0 MSTORE PUSH1 0x20 PUSH1 0x0 KECCAK256 SWAP1 PUSH1 0x6 MUL ADD PUSH1 0x4 ADD SLOAD PUSH1 0x2 EQ PUSH2 0x121C JUMPI PUSH1 0x40 MLOAD PUSH3 0x461BCD PUSH1 0xE5 SHL DUP2 MSTORE PUSH1 0x20 PUSH1 0x4 DUP3 ADD MSTORE PUSH1 0x13 PUSH1 0x24 DUP3 ADD MSTORE PUSH19 0x4D61746368206973206E6F7420616374697665 PUSH1 0x68 SHL PUSH1 0x44 DUP3 ADD MSTORE PUSH1 0x64 ADD PUSH2 0x67A JUMP JUMPDEST PUSH1 0x0 PUSH2 0x1229 PUSH1 0x64 DUP5 PUSH2 0x247C JUMP JUMPDEST SWAP1 POP PUSH1 0x0 PUSH2 0x1237 DUP3 DUP6 PUSH2 0x24C0 JUMP JUMPDEST PUSH1 0xC9 SLOAD PUSH1 0x40 MLOAD PUSH4 0xA9059CBB PUSH1 0xE0 SHL DUP2 MSTORE ADDRESS PUSH1 0x4 DUP3 ADD MSTORE PUSH1 0x24 DUP2 ADD DUP4 SWAP1 MSTORE SWAP2 SWAP3 POP PUSH1 0x1 PUSH1 0x1 PUSH1 0xA0 SHL SUB AND SWAP1 PUSH4 0xA9059CBB SWAP1 PUSH1 0x44 ADD PUSH1 0x20 PUSH1 0x40 MLOAD DUP1 DUP4 SUB DUP2 PUSH1 0x0 DUP8 DUP1 EXTCODESIZE ISZERO DUP1 ISZERO PUSH2 0x1284 JUMPI PUSH1 0x0 DUP1 REVERT JUMPDEST POP GAS CALL ISZERO DUP1 ISZERO PUSH2 0x1298 JUMPI RETURNDATASIZE PUSH1 0x0 DUP1 RETURNDATACOPY RETURNDATASIZE PUSH1 0x0 REVERT JUMPDEST POP POP POP POP PUSH1 0x40 MLOAD RETURNDATASIZE PUSH1 0x1F NOT PUSH1 0x1F DUP3 ADD AND DUP3 ADD DUP1 PUSH1 0x40 MSTORE POP DUP2 ADD SWAP1 PUSH2 0x12BC SWAP2 SWAP1 PUSH2 0x249E JUMP JUMPDEST POP PUSH1 0xC9 SLOAD PUSH1 0x40 MLOAD PUSH4 0xA9059CBB PUSH1 0xE0 SHL DUP2 MSTORE CALLER PUSH1 0x4 DUP3 ADD MSTORE PUSH1 0x24 DUP2 ADD DUP5 SWAP1 MSTORE PUSH1 0x1 PUSH1 0x1 PUSH1 0xA0 SHL SUB SWAP1 SWAP2 AND SWAP1 PUSH4 0xA9059CBB SWAP1 PUSH1 0x44 ADD PUSH1 0x20 PUSH1 0x40 MLOAD DUP1 DUP4 SUB DUP2 PUSH1 0x0 DUP8 DUP1 EXTCODESIZE ISZERO DUP1 ISZERO PUSH2 0x1309 JUMPI PUSH1 0x0 DUP1 REVERT JUMPDEST POP GAS CALL ISZERO DUP1 ISZERO PUSH2 0x131D JUMPI RETURNDATASIZE PUSH1 0x0 DUP1 RETURNDATACOPY RETURNDATASIZE PUSH1 0x0 REVERT JUMPDEST POP POP POP POP PUSH1 0x40 MLOAD RETURNDATASIZE PUSH1 0x1F NOT PUSH1 0x1F DUP3 ADD AND DUP3 ADD DUP1 PUSH1 0x40 MSTORE POP DUP2 ADD SWAP1 PUSH2 0x1341 SWAP2 SWAP1 PUSH2 0x249E JUMP JUMPDEST POP PUSH1 0x0 SWAP6 DUP7 MSTORE PUSH1 0xCE PUSH1 0x20 SWAP1 DUP2 MSTORE PUSH1 0x40 DUP1 DUP9 KECCAK256 DUP8 DUP10 MSTORE DUP3 MSTORE DUP1 DUP9 KECCAK256 DUP2 MLOAD PUSH1 0x60 DUP2 ADD DUP4 MSTORE CALLER DUP2 MSTORE DUP1 DUP5 ADD SWAP9 DUP10 MSTORE SWAP2 DUP3 ADD SWAP4 DUP5 MSTORE DUP1 SLOAD PUSH1 0x1 DUP1 DUP3 ADD DUP4 SSTORE SWAP2 DUP11 MSTORE SWAP3 SWAP1 SWAP9 KECCAK256 SWAP1 MLOAD PUSH1 0x3 SWAP1 SWAP3 MUL ADD DUP1 SLOAD PUSH1 0x1 PUSH1 0x1 PUSH1 0xA0 SHL SUB NOT AND PUSH1 0x1 PUSH1 0x1 PUSH1 0xA0 SHL SUB SWAP1 SWAP3 AND SWAP2 SWAP1 SWAP2 OR DUP2 SSTORE SWAP5 MLOAD SWAP6 DUP6 ADD SWAP6 SWAP1 SWAP6 SSTORE POP POP SWAP2 MLOAD PUSH1 0x2 SWAP1 SWAP2 ADD SSTORE POP JUMP JUMPDEST PUSH1 0x60 PUSH1 0xCA DUP1 SLOAD DUP1 PUSH1 0x20 MUL PUSH1 0x20 ADD PUSH1 0x40 MLOAD SWAP1 DUP2 ADD PUSH1 0x40 MSTORE DUP1 SWAP3 SWAP2 SWAP1 DUP2 DUP2 MSTORE PUSH1 0x20 ADD PUSH1 0x0 SWAP1 JUMPDEST DUP3 DUP3 LT ISZERO PUSH2 0x155F JUMPI DUP4 DUP3 SWAP1 PUSH1 0x0 MSTORE PUSH1 0x20 PUSH1 0x0 KECCAK256 SWAP1 PUSH1 0x6 MUL ADD PUSH1 0x40 MLOAD DUP1 PUSH1 0xC0 ADD PUSH1 0x40 MSTORE SWAP1 DUP2 PUSH1 0x0 DUP3 ADD SLOAD DUP2 MSTORE PUSH1 0x20 ADD PUSH1 0x1 DUP3 ADD DUP1 SLOAD PUSH2 0x141E SWAP1 PUSH2 0x232B JUMP JUMPDEST DUP1 PUSH1 0x1F ADD PUSH1 0x20 DUP1 SWAP2 DIV MUL PUSH1 0x20 ADD PUSH1 0x40 MLOAD SWAP1 DUP2 ADD PUSH1 0x40 MSTORE DUP1 SWAP3 SWAP2 SWAP1 DUP2 DUP2 MSTORE PUSH1 0x20 ADD DUP3 DUP1 SLOAD PUSH2 0x144A SWAP1 PUSH2 0x232B JUMP JUMPDEST DUP1 ISZERO PUSH2 0x1497 JUMPI DUP1 PUSH1 0x1F LT PUSH2 0x146C JUMPI PUSH2 0x100 DUP1 DUP4 SLOAD DIV MUL DUP4 MSTORE SWAP2 PUSH1 0x20 ADD SWAP2 PUSH2 0x1497 JUMP JUMPDEST DUP3 ADD SWAP2 SWAP1 PUSH1 0x0 MSTORE PUSH1 0x20 PUSH1 0x0 KECCAK256 SWAP1 JUMPDEST DUP2 SLOAD DUP2 MSTORE SWAP1 PUSH1 0x1 ADD SWAP1 PUSH1 0x20 ADD DUP1 DUP4 GT PUSH2 0x147A JUMPI DUP3 SWAP1 SUB PUSH1 0x1F AND DUP3 ADD SWAP2 JUMPDEST POP POP POP POP POP DUP2 MSTORE PUSH1 0x20 ADD PUSH1 0x2 DUP3 ADD DUP1 SLOAD PUSH2 0x14B0 SWAP1 PUSH2 0x232B JUMP JUMPDEST DUP1 PUSH1 0x1F ADD PUSH1 0x20 DUP1 SWAP2 DIV MUL PUSH1 0x20 ADD PUSH1 0x40 MLOAD SWAP1 DUP2 ADD PUSH1 0x40 MSTORE DUP1 SWAP3 SWAP2 SWAP1 DUP2 DUP2 MSTORE PUSH1 0x20 ADD DUP3 DUP1 SLOAD PUSH2 0x14DC SWAP1 PUSH2 0x232B JUMP JUMPDEST DUP1 ISZERO PUSH2 0x1529 JUMPI DUP1 PUSH1 0x1F LT PUSH2 0x14FE JUMPI PUSH2 0x100 DUP1 DUP4 SLOAD DIV MUL DUP4 MSTORE SWAP2 PUSH1 0x20 ADD SWAP2 PUSH2 0x1529 JUMP JUMPDEST DUP3 ADD SWAP2 SWAP1 PUSH1 0x0 MSTORE PUSH1 0x20 PUSH1 0x0 KECCAK256 SWAP1 JUMPDEST DUP2 SLOAD DUP2 MSTORE SWAP1 PUSH1 0x1 ADD SWAP1 PUSH1 0x20 ADD DUP1 DUP4 GT PUSH2 0x150C JUMPI DUP3 SWAP1 SUB PUSH1 0x1F AND DUP3 ADD SWAP2 JUMPDEST POP POP POP POP POP DUP2 MSTORE PUSH1 0x20 ADD PUSH1 0x3 DUP3 ADD SLOAD DUP2 MSTORE PUSH1 0x20 ADD PUSH1 0x4 DUP3 ADD SLOAD DUP2 MSTORE PUSH1 0x20 ADD PUSH1 0x5 DUP3 ADD SLOAD DUP2 MSTORE POP POP DUP2 MSTORE PUSH1 0x20 ADD SWAP1 PUSH1 0x1 ADD SWAP1 PUSH2 0x13E1 JUMP JUMPDEST POP POP POP POP SWAP1 POP SWAP1 JUMP JUMPDEST PUSH1 0x0 DUP3 DUP2 MSTORE PUSH1 0xCE PUSH1 0x20 SWAP1 DUP2 MSTORE PUSH1 0x40 DUP1 DUP4 KECCAK256 DUP5 DUP5 MSTORE DUP3 MSTORE DUP1 DUP4 KECCAK256 DUP1 SLOAD DUP3 MLOAD DUP2 DUP6 MUL DUP2 ADD DUP6 ADD SWAP1 SWAP4 MSTORE DUP1 DUP4 MSTORE PUSH1 0x60 SWAP5 SWAP3 SWAP4 SWAP2 SWAP3 SWAP1 SWAP2 DUP5 ADD JUMPDEST DUP3 DUP3 LT ISZERO PUSH2 0x15F3 JUMPI PUSH1 0x0 DUP5 DUP2 MSTORE PUSH1 0x20 SWAP1 DUP2 SWAP1 KECCAK256 PUSH1 0x40 DUP1 MLOAD PUSH1 0x60 DUP2 ADD DUP3 MSTORE PUSH1 0x3 DUP7 MUL SWAP1 SWAP3 ADD DUP1 SLOAD PUSH1 0x1 PUSH1 0x1 PUSH1 0xA0 SHL SUB AND DUP4 MSTORE PUSH1 0x1 DUP1 DUP3 ADD SLOAD DUP5 DUP7 ADD MSTORE PUSH1 0x2 SWAP1 SWAP2 ADD SLOAD SWAP2 DUP4 ADD SWAP2 SWAP1 SWAP2 MSTORE SWAP1 DUP4 MSTORE SWAP1 SWAP3 ADD SWAP2 ADD PUSH2 0x159E JUMP JUMPDEST POP POP POP POP SWAP1 POP SWAP3 SWAP2 POP POP JUMP JUMPDEST PUSH1 0x0 SLOAD PUSH2 0x100 SWAP1 DIV PUSH1 0xFF AND ISZERO DUP1 DUP1 ISZERO PUSH2 0x161F JUMPI POP PUSH1 0x0 SLOAD PUSH1 0x1 PUSH1 0xFF SWAP1 SWAP2 AND LT JUMPDEST DUP1 PUSH2 0x1639 JUMPI POP ADDRESS EXTCODESIZE ISZERO DUP1 ISZERO PUSH2 0x1639 JUMPI POP PUSH1 0x0 SLOAD PUSH1 0xFF AND PUSH1 0x1 EQ JUMPDEST PUSH2 0x169C JUMPI PUSH1 0x40 MLOAD PUSH3 0x461BCD PUSH1 0xE5 SHL DUP2 MSTORE PUSH1 0x20 PUSH1 0x4 DUP3 ADD MSTORE PUSH1 0x2E PUSH1 0x24 DUP3 ADD MSTORE PUSH32 0x496E697469616C697A61626C653A20636F6E747261637420697320616C726561 PUSH1 0x44 DUP3 ADD MSTORE PUSH14 0x191E481A5B9A5D1A585B1A5E9959 PUSH1 0x92 SHL PUSH1 0x64 DUP3 ADD MSTORE PUSH1 0x84 ADD PUSH2 0x67A JUMP JUMPDEST PUSH1 0x0 DUP1 SLOAD PUSH1 0xFF NOT AND PUSH1 0x1 OR SWAP1 SSTORE DUP1 ISZERO PUSH2 0x16BF JUMPI PUSH1 0x0 DUP1 SLOAD PUSH2 0xFF00 NOT AND PUSH2 0x100 OR SWAP1 SSTORE JUMPDEST PUSH1 0xC9 DUP1 SLOAD PUSH1 0x1 PUSH1 0x1 PUSH1 0xA0 SHL SUB DUP5 AND PUSH1 0x1 PUSH1 0x1 PUSH1 0xA0 SHL SUB NOT SWAP2 DUP3 AND OR SWAP1 SWAP2 SSTORE PUSH1 0xCF DUP1 SLOAD SWAP1 SWAP2 AND CALLER OR SWAP1 SSTORE PUSH2 0x16F0 PUSH2 0x1B66 JUMP JUMPDEST PUSH2 0x16F8 PUSH2 0x1B95 JUMP JUMPDEST DUP1 ISZERO PUSH2 0x985 JUMPI PUSH1 0x0 DUP1 SLOAD PUSH2 0xFF00 NOT AND SWAP1 SSTORE PUSH1 0x40 MLOAD PUSH1 0x1 DUP2 MSTORE PUSH32 0x7F26B83FF96E1F2B6A682F133852F6798A09C465DA95921460CEFB3847402498 SWAP1 PUSH1 0x20 ADD PUSH1 0x40 MLOAD DUP1 SWAP2 SUB SWAP1 LOG1 POP POP JUMP JUMPDEST PUSH1 0x60 PUSH1 0xCC DUP1 SLOAD DUP1 PUSH1 0x20 MUL PUSH1 0x20 ADD PUSH1 0x40 MLOAD SWAP1 DUP2 ADD PUSH1 0x40 MSTORE DUP1 SWAP3 SWAP2 SWAP1 DUP2 DUP2 MSTORE PUSH1 0x20 ADD DUP3 DUP1 SLOAD DUP1 ISZERO PUSH2 0x178F JUMPI PUSH1 0x20 MUL DUP3 ADD SWAP2 SWAP1 PUSH1 0x0 MSTORE PUSH1 0x20 PUSH1 0x0 KECCAK256 SWAP1 JUMPDEST DUP2 SLOAD DUP2 MSTORE PUSH1 0x20 ADD SWAP1 PUSH1 0x1 ADD SWAP1 DUP1 DUP4 GT PUSH2 0x177B JUMPI JUMPDEST POP POP POP POP POP SWAP1 POP SWAP1 JUMP JUMPDEST PUSH2 0x17A1 PUSH2 0x1ABA JUMP JUMPDEST PUSH1 0x1 PUSH1 0x1 PUSH1 0xA0 SHL SUB DUP2 AND PUSH2 0x1806 JUMPI PUSH1 0x40 MLOAD PUSH3 0x461BCD PUSH1 0xE5 SHL DUP2 MSTORE PUSH1 0x20 PUSH1 0x4 DUP3 ADD MSTORE PUSH1 0x26 PUSH1 0x24 DUP3 ADD MSTORE PUSH32 0x4F776E61626C653A206E6577206F776E657220697320746865207A65726F2061 PUSH1 0x44 DUP3 ADD MSTORE PUSH6 0x646472657373 PUSH1 0xD0 SHL PUSH1 0x64 DUP3 ADD MSTORE PUSH1 0x84 ADD PUSH2 0x67A JUMP JUMPDEST PUSH2 0x717 DUP2 PUSH2 0x1B14 JUMP JUMPDEST PUSH2 0x1817 PUSH2 0x1ABA JUMP JUMPDEST PUSH1 0x40 DUP1 MLOAD PUSH1 0xC0 DUP2 ADD DUP3 MSTORE PUSH1 0xCA DUP1 SLOAD DUP1 DUP4 MSTORE PUSH1 0x20 DUP1 DUP5 ADD DUP9 DUP2 MSTORE SWAP5 DUP5 ADD DUP8 SWAP1 MSTORE PUSH1 0x0 PUSH1 0x60 DUP6 ADD DUP2 SWAP1 MSTORE PUSH1 0x1 PUSH1 0x80 DUP7 ADD DUP2 SWAP1 MSTORE PUSH1 0xA0 DUP7 ADD DUP9 SWAP1 MSTORE DUP4 ADD DUP5 SSTORE SWAP3 SWAP1 SWAP3 MSTORE DUP3 MLOAD PUSH1 0x6 SWAP1 SWAP2 MUL PUSH32 0x42D72674974F694B5F5159593243114D38A5C39C89D6B62FEE061FF523240EE1 DUP2 ADD SWAP2 DUP3 SSTORE SWAP4 MLOAD DUP1 MLOAD SWAP4 SWAP5 SWAP2 SWAP4 PUSH2 0x18BF SWAP4 PUSH32 0x42D72674974F694B5F5159593243114D38A5C39C89D6B62FEE061FF523240EE2 SWAP1 SWAP4 ADD SWAP3 SWAP2 SWAP1 SWAP2 ADD SWAP1 PUSH2 0x1E31 JUMP JUMPDEST POP PUSH1 0x40 DUP3 ADD MLOAD DUP1 MLOAD PUSH2 0x18DB SWAP2 PUSH1 0x2 DUP5 ADD SWAP2 PUSH1 0x20 SWAP1 SWAP2 ADD SWAP1 PUSH2 0x1E31 JUMP JUMPDEST POP PUSH1 0x60 DUP3 ADD MLOAD PUSH1 0x3 DUP3 ADD SSTORE PUSH1 0x80 DUP3 ADD MLOAD PUSH1 0x4 DUP3 ADD SSTORE PUSH1 0xA0 SWAP1 SWAP2 ADD MLOAD PUSH1 0x5 SWAP1 SWAP2 ADD SSTORE POP POP PUSH1 0xCC DUP1 SLOAD PUSH1 0x1 DUP2 ADD DUP3 SSTORE PUSH1 0x0 SWAP2 DUP3 MSTORE PUSH32 0x47197230E1E4B29FC0BD84D7D78966C0925452AFF72A2A121538B102457E9EBE ADD SSTORE POP JUMP JUMPDEST PUSH2 0x717 PUSH2 0x1ABA JUMP JUMPDEST PUSH32 0x4910FDFA16FED3260ED0E7147F7CC6DA11A60208B5B9406D12A635614FFD9143 SLOAD PUSH1 0xFF AND ISZERO PUSH2 0x1973 JUMPI PUSH2 0x196E DUP4 PUSH2 0x1BBC JUMP JUMPDEST POP POP POP JUMP JUMPDEST DUP3 PUSH1 0x1 PUSH1 0x1 PUSH1 0xA0 SHL SUB AND PUSH4 0x52D1902D PUSH1 0x40 MLOAD DUP2 PUSH4 0xFFFFFFFF AND PUSH1 0xE0 SHL DUP2 MSTORE PUSH1 0x4 ADD PUSH1 0x20 PUSH1 0x40 MLOAD DUP1 DUP4 SUB DUP2 DUP7 DUP1 EXTCODESIZE ISZERO DUP1 ISZERO PUSH2 0x19AC JUMPI PUSH1 0x0 DUP1 REVERT JUMPDEST POP GAS STATICCALL SWAP3 POP POP POP DUP1 ISZERO PUSH2 0x19DC JUMPI POP PUSH1 0x40 DUP1 MLOAD PUSH1 0x1F RETURNDATASIZE SWAP1 DUP2 ADD PUSH1 0x1F NOT AND DUP3 ADD SWAP1 SWAP3 MSTORE PUSH2 0x19D9 SWAP2 DUP2 ADD SWAP1 PUSH2 0x24D7 JUMP JUMPDEST PUSH1 0x1 JUMPDEST PUSH2 0x1A3F JUMPI PUSH1 0x40 MLOAD PUSH3 0x461BCD PUSH1 0xE5 SHL DUP2 MSTORE PUSH1 0x20 PUSH1 0x4 DUP3 ADD MSTORE PUSH1 0x2E PUSH1 0x24 DUP3 ADD MSTORE PUSH32 0x45524331393637557067726164653A206E657720696D706C656D656E74617469 PUSH1 0x44 DUP3 ADD MSTORE PUSH14 0x6F6E206973206E6F742055555053 PUSH1 0x90 SHL PUSH1 0x64 DUP3 ADD MSTORE PUSH1 0x84 ADD PUSH2 0x67A JUMP JUMPDEST PUSH1 0x0 DUP1 MLOAD PUSH1 0x20 PUSH2 0x256B DUP4 CODECOPY DUP2 MLOAD SWAP2 MSTORE DUP2 EQ PUSH2 0x1AAE JUMPI PUSH1 0x40 MLOAD PUSH3 0x461BCD PUSH1 0xE5 SHL DUP2 MSTORE PUSH1 0x20 PUSH1 0x4 DUP3 ADD MSTORE PUSH1 0x29 PUSH1 0x24 DUP3 ADD MSTORE PUSH32 0x45524331393637557067726164653A20756E737570706F727465642070726F78 PUSH1 0x44 DUP3 ADD MSTORE PUSH9 0x1A58589B1955555251 PUSH1 0xBA SHL PUSH1 0x64 DUP3 ADD MSTORE PUSH1 0x84 ADD PUSH2 0x67A JUMP JUMPDEST POP PUSH2 0x196E DUP4 DUP4 DUP4 PUSH2 0x1C58 JUMP JUMPDEST PUSH1 0x97 SLOAD PUSH1 0x1 PUSH1 0x1 PUSH1 0xA0 SHL SUB AND CALLER EQ PUSH2 0xA83 JUMPI PUSH1 0x40 MLOAD PUSH3 0x461BCD PUSH1 0xE5 SHL DUP2 MSTORE PUSH1 0x20 PUSH1 0x4 DUP3 ADD DUP2 SWAP1 MSTORE PUSH1 0x24 DUP3 ADD MSTORE PUSH32 0x4F776E61626C653A2063616C6C6572206973206E6F7420746865206F776E6572 PUSH1 0x44 DUP3 ADD MSTORE PUSH1 0x64 ADD PUSH2 0x67A JUMP JUMPDEST PUSH1 0x97 DUP1 SLOAD PUSH1 0x1 PUSH1 0x1 PUSH1 0xA0 SHL SUB DUP4 DUP2 AND PUSH1 0x1 PUSH1 0x1 PUSH1 0xA0 SHL SUB NOT DUP4 AND DUP2 OR SWAP1 SWAP4 SSTORE PUSH1 0x40 MLOAD SWAP2 AND SWAP2 SWAP1 DUP3 SWAP1 PUSH32 0x8BE0079C531659141344CD1FD0A4F28419497F9722A3DAAFE3B4186F6B6457E0 SWAP1 PUSH1 0x0 SWAP1 LOG3 POP POP JUMP JUMPDEST PUSH1 0x0 SLOAD PUSH2 0x100 SWAP1 DIV PUSH1 0xFF AND PUSH2 0x1B8D JUMPI PUSH1 0x40 MLOAD PUSH3 0x461BCD PUSH1 0xE5 SHL DUP2 MSTORE PUSH1 0x4 ADD PUSH2 0x67A SWAP1 PUSH2 0x24F0 JUMP JUMPDEST PUSH2 0xA83 PUSH2 0x1C83 JUMP JUMPDEST PUSH1 0x0 SLOAD PUSH2 0x100 SWAP1 DIV PUSH1 0xFF AND PUSH2 0xA83 JUMPI PUSH1 0x40 MLOAD PUSH3 0x461BCD PUSH1 0xE5 SHL DUP2 MSTORE PUSH1 0x4 ADD PUSH2 0x67A SWAP1 PUSH2 0x24F0 JUMP JUMPDEST PUSH1 0x1 PUSH1 0x1 PUSH1 0xA0 SHL SUB DUP2 AND EXTCODESIZE PUSH2 0x1C29 JUMPI PUSH1 0x40 MLOAD PUSH3 0x461BCD PUSH1 0xE5 SHL DUP2 MSTORE PUSH1 0x20 PUSH1 0x4 DUP3 ADD MSTORE PUSH1 0x2D PUSH1 0x24 DUP3 ADD MSTORE PUSH32 0x455243313936373A206E657720696D706C656D656E746174696F6E206973206E PUSH1 0x44 DUP3 ADD MSTORE PUSH13 0x1BDD08184818DBDB9D1C9858DD PUSH1 0x9A SHL PUSH1 0x64 DUP3 ADD MSTORE PUSH1 0x84 ADD PUSH2 0x67A JUMP JUMPDEST PUSH1 0x0 DUP1 MLOAD PUSH1 0x20 PUSH2 0x256B DUP4 CODECOPY DUP2 MLOAD SWAP2 MSTORE DUP1 SLOAD PUSH1 0x1 PUSH1 0x1 PUSH1 0xA0 SHL SUB NOT AND PUSH1 0x1 PUSH1 0x1 PUSH1 0xA0 SHL SUB SWAP3 SWAP1 SWAP3 AND SWAP2 SWAP1 SWAP2 OR SWAP1 SSTORE JUMP JUMPDEST PUSH2 0x1C61 DUP4 PUSH2 0x1CB3 JUMP JUMPDEST PUSH1 0x0 DUP3 MLOAD GT DUP1 PUSH2 0x1C6E JUMPI POP DUP1 JUMPDEST ISZERO PUSH2 0x196E JUMPI PUSH2 0x1C7D DUP4 DUP4 PUSH2 0x1CF3 JUMP JUMPDEST POP POP POP POP JUMP JUMPDEST PUSH1 0x0 SLOAD PUSH2 0x100 SWAP1 DIV PUSH1 0xFF AND PUSH2 0x1CAA JUMPI PUSH1 0x40 MLOAD PUSH3 0x461BCD PUSH1 0xE5 SHL DUP2 MSTORE PUSH1 0x4 ADD PUSH2 0x67A SWAP1 PUSH2 0x24F0 JUMP JUMPDEST PUSH2 0xA83 CALLER PUSH2 0x1B14 JUMP JUMPDEST PUSH2 0x1CBC DUP2 PUSH2 0x1BBC JUMP JUMPDEST PUSH1 0x40 MLOAD PUSH1 0x1 PUSH1 0x1 PUSH1 0xA0 SHL SUB DUP3 AND SWAP1 PUSH32 0xBC7CD75A20EE27FD9ADEBAB32041F755214DBC6BFFA90CC0225B39DA2E5C2D3B SWAP1 PUSH1 0x0 SWAP1 LOG2 POP JUMP JUMPDEST PUSH1 0x60 PUSH1 0x1 PUSH1 0x1 PUSH1 0xA0 SHL SUB DUP4 AND EXTCODESIZE PUSH2 0x1D5B JUMPI PUSH1 0x40 MLOAD PUSH3 0x461BCD PUSH1 0xE5 SHL DUP2 MSTORE PUSH1 0x20 PUSH1 0x4 DUP3 ADD MSTORE PUSH1 0x26 PUSH1 0x24 DUP3 ADD MSTORE PUSH32 0x416464726573733A2064656C65676174652063616C6C20746F206E6F6E2D636F PUSH1 0x44 DUP3 ADD MSTORE PUSH6 0x1B9D1C9858DD PUSH1 0xD2 SHL PUSH1 0x64 DUP3 ADD MSTORE PUSH1 0x84 ADD PUSH2 0x67A JUMP JUMPDEST PUSH1 0x0 DUP1 DUP5 PUSH1 0x1 PUSH1 0x1 PUSH1 0xA0 SHL SUB AND DUP5 PUSH1 0x40 MLOAD PUSH2 0x1D76 SWAP2 SWAP1 PUSH2 0x253B JUMP JUMPDEST PUSH1 0x0 PUSH1 0x40 MLOAD DUP1 DUP4 SUB DUP2 DUP6 GAS DELEGATECALL SWAP2 POP POP RETURNDATASIZE DUP1 PUSH1 0x0 DUP2 EQ PUSH2 0x1DB1 JUMPI PUSH1 0x40 MLOAD SWAP2 POP PUSH1 0x1F NOT PUSH1 0x3F RETURNDATASIZE ADD AND DUP3 ADD PUSH1 0x40 MSTORE RETURNDATASIZE DUP3 MSTORE RETURNDATASIZE PUSH1 0x0 PUSH1 0x20 DUP5 ADD RETURNDATACOPY PUSH2 0x1DB6 JUMP JUMPDEST PUSH1 0x60 SWAP2 POP JUMPDEST POP SWAP2 POP SWAP2 POP PUSH2 0x1DDE DUP3 DUP3 PUSH1 0x40 MLOAD DUP1 PUSH1 0x60 ADD PUSH1 0x40 MSTORE DUP1 PUSH1 0x27 DUP2 MSTORE PUSH1 0x20 ADD PUSH2 0x258B PUSH1 0x27 SWAP2 CODECOPY PUSH2 0x1DE7 JUMP JUMPDEST SWAP6 SWAP5 POP POP POP POP POP JUMP JUMPDEST PUSH1 0x60 DUP4 ISZERO PUSH2 0x1DF6 JUMPI POP DUP2 PUSH2 0x1E00 JUMP JUMPDEST PUSH2 0x1E00 DUP4 DUP4 PUSH2 0x1E07 JUMP JUMPDEST SWAP4 SWAP3 POP POP POP JUMP JUMPDEST DUP2 MLOAD ISZERO PUSH2 0x1E17 JUMPI DUP2 MLOAD DUP1 DUP4 PUSH1 0x20 ADD REVERT JUMPDEST DUP1 PUSH1 0x40 MLOAD PUSH3 0x461BCD PUSH1 0xE5 SHL DUP2 MSTORE PUSH1 0x4 ADD PUSH2 0x67A SWAP2 SWAP1 PUSH2 0x2557 JUMP JUMPDEST DUP3 DUP1 SLOAD PUSH2 0x1E3D SWAP1 PUSH2 0x232B JUMP JUMPDEST SWAP1 PUSH1 0x0 MSTORE PUSH1 0x20 PUSH1 0x0 KECCAK256 SWAP1 PUSH1 0x1F ADD PUSH1 0x20 SWAP1 DIV DUP2 ADD SWAP3 DUP3 PUSH2 0x1E5F JUMPI PUSH1 0x0 DUP6 SSTORE PUSH2 0x1EA5 JUMP JUMPDEST DUP3 PUSH1 0x1F LT PUSH2 0x1E78 JUMPI DUP1 MLOAD PUSH1 0xFF NOT AND DUP4 DUP1 ADD OR DUP6 SSTORE PUSH2 0x1EA5 JUMP JUMPDEST DUP3 DUP1 ADD PUSH1 0x1 ADD DUP6 SSTORE DUP3 ISZERO PUSH2 0x1EA5 JUMPI SWAP2 DUP3 ADD JUMPDEST DUP3 DUP2 GT ISZERO PUSH2 0x1EA5 JUMPI DUP3 MLOAD DUP3 SSTORE SWAP2 PUSH1 0x20 ADD SWAP2 SWAP1 PUSH1 0x1 ADD SWAP1 PUSH2 0x1E8A JUMP JUMPDEST POP PUSH2 0x1EB1 SWAP3 SWAP2 POP PUSH2 0x1EB5 JUMP JUMPDEST POP SWAP1 JUMP JUMPDEST JUMPDEST DUP1 DUP3 GT ISZERO PUSH2 0x1EB1 JUMPI PUSH1 0x0 DUP2 SSTORE PUSH1 0x1 ADD PUSH2 0x1EB6 JUMP JUMPDEST PUSH1 0x0 DUP1 PUSH1 0x0 PUSH1 0x60 DUP5 DUP7 SUB SLT ISZERO PUSH2 0x1EDF JUMPI PUSH1 0x0 DUP1 REVERT JUMPDEST POP POP DUP2 CALLDATALOAD SWAP4 PUSH1 0x20 DUP4 ADD CALLDATALOAD SWAP4 POP PUSH1 0x40 SWAP1 SWAP3 ADD CALLDATALOAD SWAP2 SWAP1 POP JUMP JUMPDEST DUP1 CALLDATALOAD PUSH1 0x1 PUSH1 0x1 PUSH1 0xA0 SHL SUB DUP2 AND DUP2 EQ PUSH2 0x1F0D JUMPI PUSH1 0x0 DUP1 REVERT JUMPDEST SWAP2 SWAP1 POP JUMP JUMPDEST PUSH1 0x0 PUSH1 0x20 DUP3 DUP5 SUB SLT ISZERO PUSH2 0x1F24 JUMPI PUSH1 0x0 DUP1 REVERT JUMPDEST PUSH2 0x1E00 DUP3 PUSH2 0x1EF6 JUMP JUMPDEST PUSH1 0x0 JUMPDEST DUP4 DUP2 LT ISZERO PUSH2 0x1F48 JUMPI DUP2 DUP2 ADD MLOAD DUP4 DUP3 ADD MSTORE PUSH1 0x20 ADD PUSH2 0x1F30 JUMP JUMPDEST DUP4 DUP2 GT ISZERO PUSH2 0x1C7D JUMPI POP POP PUSH1 0x0 SWAP2 ADD MSTORE JUMP JUMPDEST PUSH1 0x0 DUP2 MLOAD DUP1 DUP5 MSTORE PUSH2 0x1F71 DUP2 PUSH1 0x20 DUP7 ADD PUSH1 0x20 DUP7 ADD PUSH2 0x1F2D JUMP JUMPDEST PUSH1 0x1F ADD PUSH1 0x1F NOT AND SWAP3 SWAP1 SWAP3 ADD PUSH1 0x20 ADD SWAP3 SWAP2 POP POP JUMP JUMPDEST DUP6 DUP2 MSTORE PUSH1 0x1 PUSH1 0x1 PUSH1 0xA0 SHL SUB DUP6 AND PUSH1 0x20 DUP3 ADD MSTORE PUSH1 0xA0 PUSH1 0x40 DUP3 ADD DUP2 SWAP1 MSTORE PUSH1 0x0 SWAP1 PUSH2 0x1FAF SWAP1 DUP4 ADD DUP7 PUSH2 0x1F59 JUMP JUMPDEST DUP3 DUP2 SUB PUSH1 0x60 DUP5 ADD MSTORE PUSH2 0x1FC1 DUP2 DUP7 PUSH2 0x1F59 JUMP JUMPDEST SWAP2 POP POP DUP3 ISZERO ISZERO PUSH1 0x80 DUP4 ADD MSTORE SWAP7 SWAP6 POP POP POP POP POP POP JUMP JUMPDEST PUSH1 0x0 PUSH1 0x20 DUP3 DUP5 SUB SLT ISZERO PUSH2 0x1FE8 JUMPI PUSH1 0x0 DUP1 REVERT JUMPDEST POP CALLDATALOAD SWAP2 SWAP1 POP JUMP JUMPDEST DUP7 DUP2 MSTORE PUSH1 0xC0 PUSH1 0x20 DUP3 ADD MSTORE PUSH1 0x0 PUSH2 0x2008 PUSH1 0xC0 DUP4 ADD DUP9 PUSH2 0x1F59 JUMP JUMPDEST DUP3 DUP2 SUB PUSH1 0x40 DUP5 ADD MSTORE PUSH2 0x201A DUP2 DUP9 PUSH2 0x1F59 JUMP JUMPDEST PUSH1 0x60 DUP5 ADD SWAP7 SWAP1 SWAP7 MSTORE POP POP PUSH1 0x80 DUP2 ADD SWAP3 SWAP1 SWAP3 MSTORE PUSH1 0xA0 SWAP1 SWAP2 ADD MSTORE SWAP4 SWAP3 POP POP POP JUMP JUMPDEST PUSH4 0x4E487B71 PUSH1 0xE0 SHL PUSH1 0x0 MSTORE PUSH1 0x41 PUSH1 0x4 MSTORE PUSH1 0x24 PUSH1 0x0 REVERT JUMPDEST PUSH1 0x0 PUSH8 0xFFFFFFFFFFFFFFFF DUP1 DUP5 GT ISZERO PUSH2 0x206A JUMPI PUSH2 0x206A PUSH2 0x2039 JUMP JUMPDEST PUSH1 0x40 MLOAD PUSH1 0x1F DUP6 ADD PUSH1 0x1F NOT SWAP1 DUP2 AND PUSH1 0x3F ADD AND DUP2 ADD SWAP1 DUP3 DUP3 GT DUP2 DUP4 LT OR ISZERO PUSH2 0x2092 JUMPI PUSH2 0x2092 PUSH2 0x2039 JUMP JUMPDEST DUP2 PUSH1 0x40 MSTORE DUP1 SWAP4 POP DUP6 DUP2 MSTORE DUP7 DUP7 DUP7 ADD GT ISZERO PUSH2 0x20AB JUMPI PUSH1 0x0 DUP1 REVERT JUMPDEST DUP6 DUP6 PUSH1 0x20 DUP4 ADD CALLDATACOPY PUSH1 0x0 PUSH1 0x20 DUP8 DUP4 ADD ADD MSTORE POP POP POP SWAP4 SWAP3 POP POP POP JUMP JUMPDEST PUSH1 0x0 DUP1 PUSH1 0x40 DUP4 DUP6 SUB SLT ISZERO PUSH2 0x20D8 JUMPI PUSH1 0x0 DUP1 REVERT JUMPDEST PUSH2 0x20E1 DUP4 PUSH2 0x1EF6 JUMP JUMPDEST SWAP2 POP PUSH1 0x20 DUP4 ADD CALLDATALOAD PUSH8 0xFFFFFFFFFFFFFFFF DUP2 GT ISZERO PUSH2 0x20FD JUMPI PUSH1 0x0 DUP1 REVERT JUMPDEST DUP4 ADD PUSH1 0x1F DUP2 ADD DUP6 SGT PUSH2 0x210E JUMPI PUSH1 0x0 DUP1 REVERT JUMPDEST PUSH2 0x211D DUP6 DUP3 CALLDATALOAD PUSH1 0x20 DUP5 ADD PUSH2 0x204F JUMP JUMPDEST SWAP2 POP POP SWAP3 POP SWAP3 SWAP1 POP JUMP JUMPDEST PUSH1 0x0 DUP1 PUSH1 0x40 DUP4 DUP6 SUB SLT ISZERO PUSH2 0x213A JUMPI PUSH1 0x0 DUP1 REVERT JUMPDEST POP POP DUP1 CALLDATALOAD SWAP3 PUSH1 0x20 SWAP1 SWAP2 ADD CALLDATALOAD SWAP2 POP JUMP JUMPDEST PUSH1 0x0 PUSH1 0x20 DUP1 DUP4 ADD DUP2 DUP5 MSTORE DUP1 DUP6 MLOAD DUP1 DUP4 MSTORE PUSH1 0x40 SWAP3 POP DUP3 DUP7 ADD SWAP2 POP DUP3 DUP2 PUSH1 0x5 SHL DUP8 ADD ADD DUP5 DUP9 ADD PUSH1 0x0 JUMPDEST DUP4 DUP2 LT ISZERO PUSH2 0x21EA JUMPI PUSH1 0x3F NOT DUP10 DUP5 SUB ADD DUP6 MSTORE DUP2 MLOAD PUSH1 0xC0 DUP2 MLOAD DUP6 MSTORE DUP9 DUP3 ADD MLOAD DUP2 DUP11 DUP8 ADD MSTORE PUSH2 0x219E DUP3 DUP8 ADD DUP3 PUSH2 0x1F59 JUMP JUMPDEST SWAP2 POP POP DUP8 DUP3 ADD MLOAD DUP6 DUP3 SUB DUP10 DUP8 ADD MSTORE PUSH2 0x21B6 DUP3 DUP3 PUSH2 0x1F59 JUMP JUMPDEST PUSH1 0x60 DUP5 DUP2 ADD MLOAD SWAP1 DUP9 ADD MSTORE PUSH1 0x80 DUP1 DUP6 ADD MLOAD SWAP1 DUP9 ADD MSTORE PUSH1 0xA0 SWAP4 DUP5 ADD MLOAD SWAP4 SWAP1 SWAP7 ADD SWAP3 SWAP1 SWAP3 MSTORE POP POP SWAP4 DUP7 ADD SWAP4 SWAP1 DUP7 ADD SWAP1 PUSH1 0x1 ADD PUSH2 0x2170 JUMP JUMPDEST POP SWAP1 SWAP9 SWAP8 POP POP POP POP POP POP POP POP JUMP JUMPDEST PUSH1 0x20 DUP1 DUP3 MSTORE DUP3 MLOAD DUP3 DUP3 ADD DUP2 SWAP1 MSTORE PUSH1 0x0 SWAP2 SWAP1 PUSH1 0x40 SWAP1 DUP2 DUP6 ADD SWAP1 DUP7 DUP5 ADD DUP6 JUMPDEST DUP3 DUP2 LT ISZERO PUSH2 0x224D JUMPI DUP2 MLOAD DUP1 MLOAD PUSH1 0x1 PUSH1 0x1 PUSH1 0xA0 SHL SUB AND DUP6 MSTORE DUP7 DUP2 ADD MLOAD DUP8 DUP7 ADD MSTORE DUP6 ADD MLOAD DUP6 DUP6 ADD MSTORE PUSH1 0x60 SWAP1 SWAP4 ADD SWAP3 SWAP1 DUP6 ADD SWAP1 PUSH1 0x1 ADD PUSH2 0x2215 JUMP JUMPDEST POP SWAP2 SWAP8 SWAP7 POP POP POP POP POP POP POP JUMP JUMPDEST PUSH1 0x20 DUP1 DUP3 MSTORE DUP3 MLOAD DUP3 DUP3 ADD DUP2 SWAP1 MSTORE PUSH1 0x0 SWAP2 SWAP1 DUP5 DUP3 ADD SWAP1 PUSH1 0x40 DUP6 ADD SWAP1 DUP5 JUMPDEST DUP2 DUP2 LT ISZERO PUSH2 0x2292 JUMPI DUP4 MLOAD DUP4 MSTORE SWAP3 DUP5 ADD SWAP3 SWAP2 DUP5 ADD SWAP2 PUSH1 0x1 ADD PUSH2 0x2276 JUMP JUMPDEST POP SWAP1 SWAP7 SWAP6 POP POP POP POP POP POP JUMP JUMPDEST PUSH1 0x0 DUP3 PUSH1 0x1F DUP4 ADD SLT PUSH2 0x22AF JUMPI PUSH1 0x0 DUP1 REVERT JUMPDEST PUSH2 0x1E00 DUP4 DUP4 CALLDATALOAD PUSH1 0x20 DUP6 ADD PUSH2 0x204F JUMP JUMPDEST PUSH1 0x0 DUP1 PUSH1 0x0 PUSH1 0x60 DUP5 DUP7 SUB SLT ISZERO PUSH2 0x22D3 JUMPI PUSH1 0x0 DUP1 REVERT JUMPDEST DUP4 CALLDATALOAD PUSH8 0xFFFFFFFFFFFFFFFF DUP1 DUP3 GT ISZERO PUSH2 0x22EB JUMPI PUSH1 0x0 DUP1 REVERT JUMPDEST PUSH2 0x22F7 DUP8 DUP4 DUP9 ADD PUSH2 0x229E JUMP JUMPDEST SWAP5 POP PUSH1 0x20 DUP7 ADD CALLDATALOAD SWAP2 POP DUP1 DUP3 GT ISZERO PUSH2 0x230D JUMPI PUSH1 0x0 DUP1 REVERT JUMPDEST POP PUSH2 0x231A DUP7 DUP3 DUP8 ADD PUSH2 0x229E JUMP JUMPDEST SWAP3 POP POP PUSH1 0x40 DUP5 ADD CALLDATALOAD SWAP1 POP SWAP3 POP SWAP3 POP SWAP3 JUMP JUMPDEST PUSH1 0x1 DUP2 DUP2 SHR SWAP1 DUP3 AND DUP1 PUSH2 0x233F JUMPI PUSH1 0x7F DUP3 AND SWAP2 POP JUMPDEST PUSH1 0x20 DUP3 LT DUP2 EQ ISZERO PUSH2 0x2360 JUMPI PUSH4 0x4E487B71 PUSH1 0xE0 SHL PUSH1 0x0 MSTORE PUSH1 0x22 PUSH1 0x4 MSTORE PUSH1 0x24 PUSH1 0x0 REVERT JUMPDEST POP SWAP2 SWAP1 POP JUMP JUMPDEST PUSH1 0x20 DUP1 DUP3 MSTORE PUSH1 0x2C SWAP1 DUP3 ADD MSTORE PUSH32 0x46756E6374696F6E206D7573742062652063616C6C6564207468726F75676820 PUSH1 0x40 DUP3 ADD MSTORE PUSH12 0x19195B1959D85D1958D85B1B PUSH1 0xA2 SHL PUSH1 0x60 DUP3 ADD MSTORE PUSH1 0x80 ADD SWAP1 JUMP JUMPDEST PUSH1 0x20 DUP1 DUP3 MSTORE PUSH1 0x2C SWAP1 DUP3 ADD MSTORE PUSH32 0x46756E6374696F6E206D7573742062652063616C6C6564207468726F75676820 PUSH1 0x40 DUP3 ADD MSTORE PUSH12 0x6163746976652070726F7879 PUSH1 0xA0 SHL PUSH1 0x60 DUP3 ADD MSTORE PUSH1 0x80 ADD SWAP1 JUMP JUMPDEST PUSH4 0x4E487B71 PUSH1 0xE0 SHL PUSH1 0x0 MSTORE PUSH1 0x32 PUSH1 0x4 MSTORE PUSH1 0x24 PUSH1 0x0 REVERT JUMPDEST PUSH4 0x4E487B71 PUSH1 0xE0 SHL PUSH1 0x0 MSTORE PUSH1 0x11 PUSH1 0x4 MSTORE PUSH1 0x24 PUSH1 0x0 REVERT JUMPDEST PUSH1 0x0 DUP3 NOT DUP3 GT ISZERO PUSH2 0x243D JUMPI PUSH2 0x243D PUSH2 0x2414 JUMP JUMPDEST POP ADD SWAP1 JUMP JUMPDEST PUSH1 0x0 PUSH1 0x0 NOT DUP3 EQ ISZERO PUSH2 0x2456 JUMPI PUSH2 0x2456 PUSH2 0x2414 JUMP JUMPDEST POP PUSH1 0x1 ADD SWAP1 JUMP JUMPDEST PUSH1 0x0 DUP2 PUSH1 0x0 NOT DIV DUP4 GT DUP3 ISZERO ISZERO AND ISZERO PUSH2 0x2477 JUMPI PUSH2 0x2477 PUSH2 0x2414 JUMP JUMPDEST POP MUL SWAP1 JUMP JUMPDEST PUSH1 0x0 DUP3 PUSH2 0x2499 JUMPI PUSH4 0x4E487B71 PUSH1 0xE0 SHL PUSH1 0x0 MSTORE PUSH1 0x12 PUSH1 0x4 MSTORE PUSH1 0x24 PUSH1 0x0 REVERT JUMPDEST POP DIV SWAP1 JUMP JUMPDEST PUSH1 0x0 PUSH1 0x20 DUP3 DUP5 SUB SLT ISZERO PUSH2 0x24B0 JUMPI PUSH1 0x0 DUP1 REVERT JUMPDEST DUP2 MLOAD DUP1 ISZERO ISZERO DUP2 EQ PUSH2 0x1E00 JUMPI PUSH1 0x0 DUP1 REVERT JUMPDEST PUSH1 0x0 DUP3 DUP3 LT ISZERO PUSH2 0x24D2 JUMPI PUSH2 0x24D2 PUSH2 0x2414 JUMP JUMPDEST POP SUB SWAP1 JUMP JUMPDEST PUSH1 0x0 PUSH1 0x20 DUP3 DUP5 SUB SLT ISZERO PUSH2 0x24E9 JUMPI PUSH1 0x0 DUP1 REVERT JUMPDEST POP MLOAD SWAP2 SWAP1 POP JUMP JUMPDEST PUSH1 0x20 DUP1 DUP3 MSTORE PUSH1 0x2B SWAP1 DUP3 ADD MSTORE PUSH32 0x496E697469616C697A61626C653A20636F6E7472616374206973206E6F742069 PUSH1 0x40 DUP3 ADD MSTORE PUSH11 0x6E697469616C697A696E67 PUSH1 0xA8 SHL PUSH1 0x60 DUP3 ADD MSTORE PUSH1 0x80 ADD SWAP1 JUMP JUMPDEST PUSH1 0x0 DUP3 MLOAD PUSH2 0x254D DUP2 DUP5 PUSH1 0x20 DUP8 ADD PUSH2 0x1F2D JUMP JUMPDEST SWAP2 SWAP1 SWAP2 ADD SWAP3 SWAP2 POP POP JUMP JUMPDEST PUSH1 0x20 DUP2 MSTORE PUSH1 0x0 PUSH2 0x1E00 PUSH1 0x20 DUP4 ADD DUP5 PUSH2 0x1F59 JUMP INVALID CALLDATASIZE ADDMOD SWAP5 LOG1 EXTCODESIZE LOG1 LOG3 0x21 MOD PUSH8 0xC828492DB98DCA3E KECCAK256 PUSH23 0xCC3735A920A3CA505D382BBC416464726573733A206C6F PUSH24 0x2D6C6576656C2064656C65676174652063616C6C20666169 PUSH13 0x6564A264697066735822122096 CALLDATACOPY 0xB4 SHR 0xD2 PC 0xD7 0xE8 0xE0 SWAP6 0xDF PUSH28 0x4EF41209637F720B5B4C0F973D8707E14C0F693F64736F6C63430008 MULMOD STOP CALLER "},"methodIdentifiers":{"_token()":"ecd0c0c3","addMatch(string,string,uint256)":"fad54f3a","admin()":"f851a440","announceResult(uint256,uint256)":"74afc209","bettingAmountArray(uint256)":"8009caf4","getAllMatches()":"c17c5a45","getAllParticipants(uint256,uint256)":"c2e43e49","getBettingAmountArray()":"f14733d4","getMatchesLength()":"1a4c6ce7","getParticipantsLength(uint256,uint256)":"e1e60671","initialize(address)":"c4d66de8","matches(uint256)":"4768d4ef","owner()":"8da5cb5b","participants(uint256,uint256,uint256)":"080eb32c","participate(uint256,uint256,uint256)":"899a27c8","proxiableUUID()":"52d1902d","renounceOwnership()":"715018a6","transferOwnership(address)":"f2fde38b","updateMatchStatus(uint256,uint256)":"6003ea74","upgradeTo(address)":"3659cfe6","upgradeToAndCall(address,bytes)":"4f1ef286","userList(address)":"1b4e7bd2","users(uint256)":"365b98b2"}},"storageLayout":{"storage":[{"astId":527,"contract":"contracts/bettingContract.sol:BettingContract","label":"_initialized","offset":0,"slot":"0","type":"t_uint8"},{"astId":530,"contract":"contracts/bettingContract.sol:BettingContract","label":"_initializing","offset":1,"slot":"0","type":"t_bool"},{"astId":509,"contract":"contracts/bettingContract.sol:BettingContract","label":"__gap","offset":0,"slot":"1","type":"t_array(t_uint256)50_storage"},{"astId":824,"contract":"contracts/bettingContract.sol:BettingContract","label":"__gap","offset":0,"slot":"51","type":"t_array(t_uint256)50_storage"},{"astId":1865,"contract":"contracts/bettingContract.sol:BettingContract","label":"__gap","offset":0,"slot":"101","type":"t_array(t_uint256)50_storage"},{"astId":10,"contract":"contracts/bettingContract.sol:BettingContract","label":"_owner","offset":0,"slot":"151","type":"t_address"},{"astId":130,"contract":"contracts/bettingContract.sol:BettingContract","label":"__gap","offset":0,"slot":"152","type":"t_array(t_uint256)49_storage"},{"astId":2155,"contract":"contracts/bettingContract.sol:BettingContract","label":"_token","offset":0,"slot":"201","type":"t_contract(IERC20Upgradeable)1515"},{"astId":2159,"contract":"contracts/bettingContract.sol:BettingContract","label":"matches","offset":0,"slot":"202","type":"t_array(t_struct(Match)2134_storage)dyn_storage"},{"astId":2163,"contract":"contracts/bettingContract.sol:BettingContract","label":"users","offset":0,"slot":"203","type":"t_array(t_struct(User)2152_storage)dyn_storage"},{"astId":2166,"contract":"contracts/bettingContract.sol:BettingContract","label":"bettingAmountArray","offset":0,"slot":"204","type":"t_array(t_uint256)dyn_storage"},{"astId":2171,"contract":"contracts/bettingContract.sol:BettingContract","label":"userList","offset":0,"slot":"205","type":"t_mapping(t_address,t_struct(User)2152_storage)"},{"astId":2179,"contract":"contracts/bettingContract.sol:BettingContract","label":"participants","offset":0,"slot":"206","type":"t_mapping(t_uint256,t_mapping(t_uint256,t_array(t_struct(Participant)2141_storage)dyn_storage))"},{"astId":2181,"contract":"contracts/bettingContract.sol:BettingContract","label":"admin","offset":0,"slot":"207","type":"t_address"}],"types":{"t_address":{"encoding":"inplace","label":"address","numberOfBytes":"20"},"t_array(t_struct(Match)2134_storage)dyn_storage":{"base":"t_struct(Match)2134_storage","encoding":"dynamic_array","label":"struct BettingContract.Match[]","numberOfBytes":"32"},"t_array(t_struct(Participant)2141_storage)dyn_storage":{"base":"t_struct(Participant)2141_storage","encoding":"dynamic_array","label":"struct BettingContract.Participant[]","numberOfBytes":"32"},"t_array(t_struct(User)2152_storage)dyn_storage":{"base":"t_struct(User)2152_storage","encoding":"dynamic_array","label":"struct BettingContract.User[]","numberOfBytes":"32"},"t_array(t_uint256)49_storage":{"base":"t_uint256","encoding":"inplace","label":"uint256[49]","numberOfBytes":"1568"},"t_array(t_uint256)50_storage":{"base":"t_uint256","encoding":"inplace","label":"uint256[50]","numberOfBytes":"1600"},"t_array(t_uint256)dyn_storage":{"base":"t_uint256","encoding":"dynamic_array","label":"uint256[]","numberOfBytes":"32"},"t_bool":{"encoding":"inplace","label":"bool","numberOfBytes":"1"},"t_contract(IERC20Upgradeable)1515":{"encoding":"inplace","label":"contract IERC20Upgradeable","numberOfBytes":"20"},"t_mapping(t_address,t_struct(User)2152_storage)":{"encoding":"mapping","key":"t_address","label":"mapping(address => struct BettingContract.User)","numberOfBytes":"32","value":"t_struct(User)2152_storage"},"t_mapping(t_uint256,t_array(t_struct(Participant)2141_storage)dyn_storage)":{"encoding":"mapping","key":"t_uint256","label":"mapping(uint256 => struct BettingContract.Participant[])","numberOfBytes":"32","value":"t_array(t_struct(Participant)2141_storage)dyn_storage"},"t_mapping(t_uint256,t_mapping(t_uint256,t_array(t_struct(Participant)2141_storage)dyn_storage))":{"encoding":"mapping","key":"t_uint256","label":"mapping(uint256 => mapping(uint256 => struct BettingContract.Participant[]))","numberOfBytes":"32","value":"t_mapping(t_uint256,t_array(t_struct(Participant)2141_storage)dyn_storage)"},"t_string_storage":{"encoding":"bytes","label":"string","numberOfBytes":"32"},"t_struct(Match)2134_storage":{"encoding":"inplace","label":"struct BettingContract.Match","members":[{"astId":2123,"contract":"contracts/bettingContract.sol:BettingContract","label":"matchId","offset":0,"slot":"0","type":"t_uint256"},{"astId":2125,"contract":"contracts/bettingContract.sol:BettingContract","label":"team1","offset":0,"slot":"1","type":"t_string_storage"},{"astId":2127,"contract":"contracts/bettingContract.sol:BettingContract","label":"team2","offset":0,"slot":"2","type":"t_string_storage"},{"astId":2129,"contract":"contracts/bettingContract.sol:BettingContract","label":"won","offset":0,"slot":"3","type":"t_uint256"},{"astId":2131,"contract":"contracts/bettingContract.sol:BettingContract","label":"statusCode","offset":0,"slot":"4","type":"t_uint256"},{"astId":2133,"contract":"contracts/bettingContract.sol:BettingContract","label":"date","offset":0,"slot":"5","type":"t_uint256"}],"numberOfBytes":"192"},"t_struct(Participant)2141_storage":{"encoding":"inplace","label":"struct BettingContract.Participant","members":[{"astId":2136,"contract":"contracts/bettingContract.sol:BettingContract","label":"participantAddress","offset":0,"slot":"0","type":"t_address"},{"astId":2138,"contract":"contracts/bettingContract.sol:BettingContract","label":"selectedTeam","offset":0,"slot":"1","type":"t_uint256"},{"astId":2140,"contract":"contracts/bettingContract.sol:BettingContract","label":"amount","offset":0,"slot":"2","type":"t_uint256"}],"numberOfBytes":"96"},"t_struct(User)2152_storage":{"encoding":"inplace","label":"struct BettingContract.User","members":[{"astId":2143,"contract":"contracts/bettingContract.sol:BettingContract","label":"id","offset":0,"slot":"0","type":"t_uint256"},{"astId":2145,"contract":"contracts/bettingContract.sol:BettingContract","label":"walletAddress","offset":0,"slot":"1","type":"t_address"},{"astId":2147,"contract":"contracts/bettingContract.sol:BettingContract","label":"name","offset":0,"slot":"2","type":"t_string_storage"},{"astId":2149,"contract":"contracts/bettingContract.sol:BettingContract","label":"email","offset":0,"slot":"3","type":"t_string_storage"},{"astId":2151,"contract":"contracts/bettingContract.sol:BettingContract","label":"disabled","offset":0,"slot":"4","type":"t_bool"}],"numberOfBytes":"160"},"t_uint256":{"encoding":"inplace","label":"uint256","numberOfBytes":"32"},"t_uint8":{"encoding":"inplace","label":"uint8","numberOfBytes":"1"}}}}}}