{"contracts/lotteryContract.sol":{"LotteryContract":{"abi":[{"anonymous":false,"inputs":[{"indexed":false,"internalType":"address","name":"previousAdmin","type":"address"},{"indexed":false,"internalType":"address","name":"newAdmin","type":"address"}],"name":"AdminChanged","type":"event"},{"anonymous":false,"inputs":[{"indexed":true,"internalType":"address","name":"beacon","type":"address"}],"name":"BeaconUpgraded","type":"event"},{"anonymous":false,"inputs":[{"indexed":false,"internalType":"uint8","name":"version","type":"uint8"}],"name":"Initialized","type":"event"},{"anonymous":false,"inputs":[{"indexed":true,"internalType":"address","name":"previousOwner","type":"address"},{"indexed":true,"internalType":"address","name":"newOwner","type":"address"}],"name":"OwnershipTransferred","type":"event"},{"anonymous":false,"inputs":[{"indexed":true,"internalType":"address","name":"implementation","type":"address"}],"name":"Upgraded","type":"event"},{"inputs":[],"name":"admin","outputs":[{"internalType":"address","name":"","type":"address"}],"stateMutability":"view","type":"function"},{"inputs":[{"internalType":"uint256","name":"lotteryId","type":"uint256"}],"name":"announceLotteryResult","outputs":[],"stateMutability":"nonpayable","type":"function"},{"inputs":[{"internalType":"uint256","name":"lotteryId","type":"uint256"}],"name":"getLotteryParticipants","outputs":[{"internalType":"address[]","name":"","type":"address[]"}],"stateMutability":"view","type":"function"},{"inputs":[{"internalType":"uint256","name":"lotteryId","type":"uint256"}],"name":"getLotteryParticipantsLength","outputs":[{"internalType":"uint256","name":"","type":"uint256"}],"stateMutability":"view","type":"function"},{"inputs":[{"internalType":"address","name":"token","type":"address"}],"name":"initialize","outputs":[],"stateMutability":"nonpayable","type":"function"},{"inputs":[{"internalType":"uint256","name":"","type":"uint256"}],"name":"lotteries","outputs":[{"internalType":"uint256","name":"lotteryId","type":"uint256"},{"internalType":"string","name":"lotteryName","type":"string"},{"internalType":"uint256","name":"amount","type":"uint256"},{"internalType":"uint256","name":"statusCode","type":"uint256"},{"internalType":"uint256","name":"date","type":"uint256"}],"stateMutability":"view","type":"function"},{"inputs":[{"internalType":"uint256","name":"","type":"uint256"}],"name":"lotteryAmountArray","outputs":[{"internalType":"uint256","name":"","type":"uint256"}],"stateMutability":"view","type":"function"},{"inputs":[{"internalType":"uint256","name":"","type":"uint256"},{"internalType":"uint256","name":"","type":"uint256"}],"name":"lotteryParticipants","outputs":[{"internalType":"address","name":"","type":"address"}],"stateMutability":"view","type":"function"},{"inputs":[{"internalType":"uint256","name":"","type":"uint256"}],"name":"lotteryWinners","outputs":[{"internalType":"address","name":"first","type":"address"},{"internalType":"address","name":"second","type":"address"},{"internalType":"address","name":"third","type":"address"}],"stateMutability":"view","type":"function"},{"inputs":[],"name":"owner","outputs":[{"internalType":"address","name":"","type":"address"}],"stateMutability":"view","type":"function"},{"inputs":[{"internalType":"uint256","name":"lotteryId","type":"uint256"}],"name":"participateLottery","outputs":[{"internalType":"bool","name":"success","type":"bool"}],"stateMutability":"nonpayable","type":"function"},{"inputs":[],"name":"proxiableUUID","outputs":[{"internalType":"bytes32","name":"","type":"bytes32"}],"stateMutability":"view","type":"function"},{"inputs":[],"name":"renounceOwnership","outputs":[],"stateMutability":"nonpayable","type":"function"},{"inputs":[{"internalType":"address","name":"newOwner","type":"address"}],"name":"transferOwnership","outputs":[],"stateMutability":"nonpayable","type":"function"},{"inputs":[{"internalType":"address","name":"newImplementation","type":"address"}],"name":"upgradeTo","outputs":[],"stateMutability":"nonpayable","type":"function"},{"inputs":[{"internalType":"address","name":"newImplementation","type":"address"},{"internalType":"bytes","name":"data","type":"bytes"}],"name":"upgradeToAndCall","outputs":[],"stateMutability":"payable","type":"function"},{"inputs":[{"internalType":"address","name":"","type":"address"}],"name":"userList","outputs":[{"internalType":"uint256","name":"id","type":"uint256"},{"internalType":"address","name":"walletAddress","type":"address"},{"internalType":"string","name":"name","type":"string"},{"internalType":"string","name":"email","type":"string"},{"internalType":"bool","name":"disabled","type":"bool"}],"stateMutability":"view","type":"function"},{"inputs":[{"internalType":"uint256","name":"","type":"uint256"}],"name":"users","outputs":[{"internalType":"uint256","name":"id","type":"uint256"},{"internalType":"address","name":"walletAddress","type":"address"},{"internalType":"string","name":"name","type":"string"},{"internalType":"string","name":"email","type":"string"},{"internalType":"bool","name":"disabled","type":"bool"}],"stateMutability":"view","type":"function"}],"evm":{"bytecode":{"linkReferences":{},"object":"60a06040523060805234801561001457600080fd5b50608051611f5a61004c600039600081816106160152818161065f015281816107450152818161078501526108180152611f5a6000f3fe6080604052600436106101095760003560e01c80638da5cb5b11610095578063f00c265611610064578063f00c265614610355578063f2fde38b14610375578063f851a44014610395578063f981ac3b146103b5578063ff72413f146103d557600080fd5b80638da5cb5b14610263578063c4d66de814610295578063d7a1a5b9146102b5578063d959b7061461032857600080fd5b80634f1ef286116100dc5780634f1ef286146101bb57806352d1902d146101ce57806368fb2eba146101f1578063715018a61461021e57806385fd39ae1461023357600080fd5b80631398e0761461010e5780631b4e7bd2146101485780633659cfe614610179578063365b98b21461019b575b600080fd5b34801561011a57600080fd5b5061012e610129366004611a12565b6103f5565b60405161013f959493929190611a83565b60405180910390f35b34801561015457600080fd5b50610168610163366004611ad5565b6104bf565b60405161013f959493929190611af0565b34801561018557600080fd5b50610199610194366004611ad5565b61060b565b005b3480156101a757600080fd5b506101686101b6366004611a12565b6106f4565b6101996101c9366004611b57565b61073a565b3480156101da57600080fd5b506101e361080b565b60405190815260200161013f565b3480156101fd57600080fd5b5061021161020c366004611a12565b6108be565b60405161013f9190611c19565b34801561022a57600080fd5b5061019961092a565b34801561023f57600080fd5b5061025361024e366004611a12565b61093e565b604051901515815260200161013f565b34801561026f57600080fd5b506097546001600160a01b03165b6040516001600160a01b03909116815260200161013f565b3480156102a157600080fd5b506101996102b0366004611ad5565b610cc5565b3480156102c157600080fd5b506102fe6102d0366004611a12565b60d0602052600090815260409020805460018201546002909201546001600160a01b03918216928216911683565b604080516001600160a01b039485168152928416602084015292169181019190915260600161013f565b34801561033457600080fd5b506101e3610343366004611a12565b600090815260cf602052604090205490565b34801561036157600080fd5b5061027d610370366004611c66565b610e07565b34801561038157600080fd5b50610199610390366004611ad5565b610e3f565b3480156103a157600080fd5b5060cd5461027d906001600160a01b031681565b3480156103c157600080fd5b506101996103d0366004611a12565b610eb5565b3480156103e157600080fd5b506101e36103f0366004611a12565b6114bd565b60cb818154811061040557600080fd5b6000918252602090912060059091020180546001820180549193509061042a90611c88565b80601f016020809104026020016040519081016040528092919081815260200182805461045690611c88565b80156104a35780601f10610478576101008083540402835291602001916104a3565b820191906000526020600020905b81548152906001019060200180831161048657829003601f168201915b5050505050908060020154908060030154908060040154905085565b60ce6020526000908152604090208054600182015460028301805492936001600160a01b03909216926104f190611c88565b80601f016020809104026020016040519081016040528092919081815260200182805461051d90611c88565b801561056a5780601f1061053f5761010080835404028352916020019161056a565b820191906000526020600020905b81548152906001019060200180831161054d57829003601f168201915b50505050509080600301805461057f90611c88565b80601f01602080910402602001604051908101604052809291908181526020018280546105ab90611c88565b80156105f85780601f106105cd576101008083540402835291602001916105f8565b820191906000526020600020905b8154815290600101906020018083116105db57829003601f168201915b5050506004909301549192505060ff1685565b306001600160a01b037f000000000000000000000000000000000000000000000000000000000000000016141561065d5760405162461bcd60e51b815260040161065490611cbd565b60405180910390fd5b7f00000000000000000000000000000000000000000000000000000000000000006001600160a01b03166106a6600080516020611ede833981519152546001600160a01b031690565b6001600160a01b0316146106cc5760405162461bcd60e51b815260040161065490611d09565b6106d5816114de565b604080516000808252602082019092526106f1918391906114e6565b50565b60ca818154811061070457600080fd5b60009182526020909120600590910201805460018201546002830180549294506001600160a01b0390911692916104f190611c88565b306001600160a01b037f00000000000000000000000000000000000000000000000000000000000000001614156107835760405162461bcd60e51b815260040161065490611cbd565b7f00000000000000000000000000000000000000000000000000000000000000006001600160a01b03166107cc600080516020611ede833981519152546001600160a01b031690565b6001600160a01b0316146107f25760405162461bcd60e51b815260040161065490611d09565b6107fb826114de565b610807828260016114e6565b5050565b6000306001600160a01b037f000000000000000000000000000000000000000000000000000000000000000016146108ab5760405162461bcd60e51b815260206004820152603860248201527f555550535570677261646561626c653a206d757374206e6f742062652063616c60448201527f6c6564207468726f7567682064656c656761746563616c6c00000000000000006064820152608401610654565b50600080516020611ede83398151915290565b600081815260cf602090815260409182902080548351818402810184019094528084526060939283018282801561091e57602002820191906000526020600020905b81546001600160a01b03168152600190910190602001808311610900575b50505050509050919050565b610932611665565b61093c60006116bf565b565b33600081815260ce602052604081206001015490916001600160a01b03909116146109b95760405162461bcd60e51b815260206004820152602560248201527f4f6e6c7920526567697374657265642055736572732063616e20506172746963604482015264697061746560d81b6064820152608401610654565b33600090815260ce602052604090206004015460ff1615610a1c5760405162461bcd60e51b815260206004820181905260248201527f44697361626c65642055736572732063616e27742050617274696369706174656044820152606401610654565b60cb5482908110610a635760405162461bcd60e51b8152602060048201526011602482015270125b9d985b1a59081b1bdd1d195c9e5259607a1b6044820152606401610654565b60cb8181548110610a7657610a76611d55565b906000526020600020906005020160030154600214610acf5760405162461bcd60e51b81526020600482015260156024820152744c6f7474657279206973206e6f742061637469766560581b6044820152606401610654565b60005b60ca54811015610cb957336001600160a01b031660ca8281548110610af957610af9611d55565b60009182526020909120600160059092020101546001600160a01b03161415610ca757600060cb8581548110610b3157610b31611d55565b600091825260208220600260059092020101549150610b51606483611d97565b90506000610b5f8284611dab565b60c95460405163a9059cbb60e01b8152306004820152602481018390529192506001600160a01b03169063a9059cbb90604401602060405180830381600087803b158015610bac57600080fd5b505af1158015610bc0573d6000803e3d6000fd5b505050506040513d601f19601f82011682018060405250810190610be49190611dc2565b5060c95460405163a9059cbb60e01b8152336004820152602481018490526001600160a01b039091169063a9059cbb90604401602060405180830381600087803b158015610c3157600080fd5b505af1158015610c45573d6000803e3d6000fd5b505050506040513d601f19601f82011682018060405250810190610c699190611dc2565b505050600085815260cf602090815260408220805460018181018355918452919092200180546001600160a01b031916331790559350610cbf915050565b80610cb181611de4565b915050610ad2565b50600091505b50919050565b600054610100900460ff1615808015610ce55750600054600160ff909116105b80610cff5750303b158015610cff575060005460ff166001145b610d625760405162461bcd60e51b815260206004820152602e60248201527f496e697469616c697a61626c653a20636f6e747261637420697320616c72656160448201526d191e481a5b9a5d1a585b1a5e995960921b6064820152608401610654565b6000805460ff191660011790558015610d85576000805461ff0019166101001790555b60c980546001600160a01b0384166001600160a01b03199182161790915560cd805490911633179055610db6611711565b610dbe611740565b8015610807576000805461ff0019169055604051600181527f7f26b83ff96e1f2b6a682f133852f6798a09c465da95921460cefb38474024989060200160405180910390a15050565b60cf6020528160005260406000208181548110610e2357600080fd5b6000918252602090912001546001600160a01b03169150829050565b610e47611665565b6001600160a01b038116610eac5760405162461bcd60e51b815260206004820152602660248201527f4f776e61626c653a206e6577206f776e657220697320746865207a65726f206160448201526564647265737360d01b6064820152608401610654565b6106f1816116bf565b610ebd611665565b60cb5481908110610f045760405162461bcd60e51b8152602060048201526011602482015270125b9d985b1a59081b1bdd1d195c9e5259607a1b6044820152606401610654565b60cb8181548110610f1757610f17611d55565b906000526020600020906005020160030154600214610f705760405162461bcd60e51b81526020600482015260156024820152744c6f7474657279206973206e6f742061637469766560581b6044820152606401610654565b600082815260cf602052604090205460051115610fcf5760405162461bcd60e51b815260206004820152601f60248201527f4d696e696d756d2035207061727469636970616e7473207265717569726564006044820152606401610654565b600082815260cf602052604081205460cb805491929185908110610ff557610ff5611d55565b600091825260208220600260059092020101549150611015606483611d97565b611020906063611dff565b61102a9084611dff565b611036906103e8611e1e565b90506000611044600c611767565b90506000611052607b611767565b905060006110616104d2611767565b9050600061106f8785611e36565b90506000805b8461107f81611de4565b955061108d90508986611e36565b9150818314611075575b836110a181611de4565b94506110af90508985611e36565b9050808314806110be57508082145b61109757604051806060016040528060cf60008e815260200190815260200160002085815481106110f1576110f1611d55565b60009182526020808320909101546001600160a01b031683528e825260cf81526040909120805492909101918590811061112d5761112d611d55565b60009182526020808320909101546001600160a01b031683528e825260cf81526040909120805492909101918490811061116957611169611d55565b60009182526020808320909101546001600160a01b039081169093528e825260d081526040808320855181549086166001600160a01b0319918216178255868401516001830180549188169183169190911790559582015160029091018054918616919096161790945560c95460cf9091529290208054929091169163a9059cbb9190869081106111fc576111fc611d55565b6000918252602090912001546001600160a01b031661121c60648b611d97565b611227906032611dff565b6040516001600160e01b031960e085901b1681526001600160a01b0390921660048301526024820152604401602060405180830381600087803b15801561126d57600080fd5b505af1158015611281573d6000803e3d6000fd5b505050506040513d601f19601f820116820180604052508101906112a59190611dc2565b5060c95460008c815260cf6020526040902080546001600160a01b039092169163a9059cbb9190859081106112dc576112dc611d55565b6000918252602090912001546001600160a01b03166112fc60648b611d97565b61130790601e611dff565b6040516001600160e01b031960e085901b1681526001600160a01b0390921660048301526024820152604401602060405180830381600087803b15801561134d57600080fd5b505af1158015611361573d6000803e3d6000fd5b505050506040513d601f19601f820116820180604052508101906113859190611dc2565b5060c95460008c815260cf6020526040902080546001600160a01b039092169163a9059cbb9190849081106113bc576113bc611d55565b6000918252602090912001546001600160a01b03166113dc60648b611d97565b6113e7906014611dff565b6040516001600160e01b031960e085901b1681526001600160a01b0390921660048301526024820152604401602060405180830381600087803b15801561142d57600080fd5b505af1158015611441573d6000803e3d6000fd5b505050506040513d601f19601f820116820180604052508101906114659190611dc2565b50600360cb8c8154811061147b5761147b611d55565b9060005260206000209060050201600301819055508660cc8c815481106114a4576114a4611d55565b6000918252602090912001555050505050505050505050565b60cc81815481106114cd57600080fd5b600091825260209091200154905081565b6106f1611665565b7f4910fdfa16fed3260ed0e7147f7cc6da11a60208b5b9406d12a635614ffd91435460ff161561151e576115198361179d565b505050565b826001600160a01b03166352d1902d6040518163ffffffff1660e01b815260040160206040518083038186803b15801561155757600080fd5b505afa925050508015611587575060408051601f3d908101601f1916820190925261158491810190611e4a565b60015b6115ea5760405162461bcd60e51b815260206004820152602e60248201527f45524331393637557067726164653a206e657720696d706c656d656e7461746960448201526d6f6e206973206e6f74205555505360901b6064820152608401610654565b600080516020611ede83398151915281146116595760405162461bcd60e51b815260206004820152602960248201527f45524331393637557067726164653a20756e737570706f727465642070726f786044820152681a58589b195555525160ba1b6064820152608401610654565b50611519838383611839565b6097546001600160a01b0316331461093c5760405162461bcd60e51b815260206004820181905260248201527f4f776e61626c653a2063616c6c6572206973206e6f7420746865206f776e65726044820152606401610654565b609780546001600160a01b038381166001600160a01b0319831681179093556040519116919082907f8be0079c531659141344cd1fd0a4f28419497f9722a3daafe3b4186f6b6457e090600090a35050565b600054610100900460ff166117385760405162461bcd60e51b815260040161065490611e63565b61093c611864565b600054610100900460ff1661093c5760405162461bcd60e51b815260040161065490611e63565b60408051446020808301919091524282840152606080830194909452825180830390940184526080909101909152815191012090565b6001600160a01b0381163b61180a5760405162461bcd60e51b815260206004820152602d60248201527f455243313936373a206e657720696d706c656d656e746174696f6e206973206e60448201526c1bdd08184818dbdb9d1c9858dd609a1b6064820152608401610654565b600080516020611ede83398151915280546001600160a01b0319166001600160a01b0392909216919091179055565b61184283611894565b60008251118061184f5750805b156115195761185e83836118d4565b50505050565b600054610100900460ff1661188b5760405162461bcd60e51b815260040161065490611e63565b61093c336116bf565b61189d8161179d565b6040516001600160a01b038216907fbc7cd75a20ee27fd9adebab32041f755214dbc6bffa90cc0225b39da2e5c2d3b90600090a250565b60606001600160a01b0383163b61193c5760405162461bcd60e51b815260206004820152602660248201527f416464726573733a2064656c65676174652063616c6c20746f206e6f6e2d636f6044820152651b9d1c9858dd60d21b6064820152608401610654565b600080846001600160a01b0316846040516119579190611eae565b600060405180830381855af49150503d8060008114611992576040519150601f19603f3d011682016040523d82523d6000602084013e611997565b606091505b50915091506119bf8282604051806060016040528060278152602001611efe602791396119c8565b95945050505050565b606083156119d75750816119e1565b6119e183836119e8565b9392505050565b8151156119f85781518083602001fd5b8060405162461bcd60e51b81526004016106549190611eca565b600060208284031215611a2457600080fd5b5035919050565b60005b83811015611a46578181015183820152602001611a2e565b8381111561185e5750506000910152565b60008151808452611a6f816020860160208601611a2b565b601f01601f19169290920160200192915050565b85815260a060208201526000611a9c60a0830187611a57565b604083019590955250606081019290925260809091015292915050565b80356001600160a01b0381168114611ad057600080fd5b919050565b600060208284031215611ae757600080fd5b6119e182611ab9565b8581526001600160a01b038516602082015260a060408201819052600090611b1a90830186611a57565b8281036060840152611b2c8186611a57565b91505082151560808301529695505050505050565b634e487b7160e01b600052604160045260246000fd5b60008060408385031215611b6a57600080fd5b611b7383611ab9565b9150602083013567ffffffffffffffff80821115611b9057600080fd5b818501915085601f830112611ba457600080fd5b813581811115611bb657611bb6611b41565b604051601f8201601f19908116603f01168101908382118183101715611bde57611bde611b41565b81604052828152886020848701011115611bf757600080fd5b8260208601602083013760006020848301015280955050505050509250929050565b6020808252825182820181905260009190848201906040850190845b81811015611c5a5783516001600160a01b031683529284019291840191600101611c35565b50909695505050505050565b60008060408385031215611c7957600080fd5b50508035926020909101359150565b600181811c90821680611c9c57607f821691505b60208210811415610cbf57634e487b7160e01b600052602260045260246000fd5b6020808252602c908201527f46756e6374696f6e206d7573742062652063616c6c6564207468726f7567682060408201526b19195b1959d85d1958d85b1b60a21b606082015260800190565b6020808252602c908201527f46756e6374696f6e206d7573742062652063616c6c6564207468726f7567682060408201526b6163746976652070726f787960a01b606082015260800190565b634e487b7160e01b600052603260045260246000fd5b634e487b7160e01b600052601260045260246000fd5b634e487b7160e01b600052601160045260246000fd5b600082611da657611da6611d6b565b500490565b600082821015611dbd57611dbd611d81565b500390565b600060208284031215611dd457600080fd5b815180151581146119e157600080fd5b6000600019821415611df857611df8611d81565b5060010190565b6000816000190483118215151615611e1957611e19611d81565b500290565b60008219821115611e3157611e31611d81565b500190565b600082611e4557611e45611d6b565b500690565b600060208284031215611e5c57600080fd5b5051919050565b6020808252602b908201527f496e697469616c697a61626c653a20636f6e7472616374206973206e6f74206960408201526a6e697469616c697a696e6760a81b606082015260800190565b60008251611ec0818460208701611a2b565b9190910192915050565b6020815260006119e16020830184611a5756fe360894a13ba1a3210667c828492db98dca3e2076cc3735a920a3ca505d382bbc416464726573733a206c6f772d6c6576656c2064656c65676174652063616c6c206661696c6564a2646970667358221220095ae69dac96ccc65065dad81d7c9c96edff66267f77e4f12aa8a83d790bebf864736f6c63430008090033","opcodes":"PUSH1 0xA0 PUSH1 0x40 MSTORE ADDRESS PUSH1 0x80 MSTORE CALLVALUE DUP1 ISZERO PUSH2 0x14 JUMPI PUSH1 0x0 DUP1 REVERT JUMPDEST POP PUSH1 0x80 MLOAD PUSH2 0x1F5A PUSH2 0x4C PUSH1 0x0 CODECOPY PUSH1 0x0 DUP2 DUP2 PUSH2 0x616 ADD MSTORE DUP2 DUP2 PUSH2 0x65F ADD MSTORE DUP2 DUP2 PUSH2 0x745 ADD MSTORE DUP2 DUP2 PUSH2 0x785 ADD MSTORE PUSH2 0x818 ADD MSTORE PUSH2 0x1F5A PUSH1 0x0 RETURN INVALID PUSH1 0x80 PUSH1 0x40 MSTORE PUSH1 0x4 CALLDATASIZE LT PUSH2 0x109 JUMPI PUSH1 0x0 CALLDATALOAD PUSH1 0xE0 SHR DUP1 PUSH4 0x8DA5CB5B GT PUSH2 0x95 JUMPI DUP1 PUSH4 0xF00C2656 GT PUSH2 0x64 JUMPI DUP1 PUSH4 0xF00C2656 EQ PUSH2 0x355 JUMPI DUP1 PUSH4 0xF2FDE38B EQ PUSH2 0x375 JUMPI DUP1 PUSH4 0xF851A440 EQ PUSH2 0x395 JUMPI DUP1 PUSH4 0xF981AC3B EQ PUSH2 0x3B5 JUMPI DUP1 PUSH4 0xFF72413F EQ PUSH2 0x3D5 JUMPI PUSH1 0x0 DUP1 REVERT JUMPDEST DUP1 PUSH4 0x8DA5CB5B EQ PUSH2 0x263 JUMPI DUP1 PUSH4 0xC4D66DE8 EQ PUSH2 0x295 JUMPI DUP1 PUSH4 0xD7A1A5B9 EQ PUSH2 0x2B5 JUMPI DUP1 PUSH4 0xD959B706 EQ PUSH2 0x328 JUMPI PUSH1 0x0 DUP1 REVERT JUMPDEST DUP1 PUSH4 0x4F1EF286 GT PUSH2 0xDC JUMPI DUP1 PUSH4 0x4F1EF286 EQ PUSH2 0x1BB JUMPI DUP1 PUSH4 0x52D1902D EQ PUSH2 0x1CE JUMPI DUP1 PUSH4 0x68FB2EBA EQ PUSH2 0x1F1 JUMPI DUP1 PUSH4 0x715018A6 EQ PUSH2 0x21E JUMPI DUP1 PUSH4 0x85FD39AE EQ PUSH2 0x233 JUMPI PUSH1 0x0 DUP1 REVERT JUMPDEST DUP1 PUSH4 0x1398E076 EQ PUSH2 0x10E JUMPI DUP1 PUSH4 0x1B4E7BD2 EQ PUSH2 0x148 JUMPI DUP1 PUSH4 0x3659CFE6 EQ PUSH2 0x179 JUMPI DUP1 PUSH4 0x365B98B2 EQ PUSH2 0x19B JUMPI JUMPDEST PUSH1 0x0 DUP1 REVERT JUMPDEST CALLVALUE DUP1 ISZERO PUSH2 0x11A JUMPI PUSH1 0x0 DUP1 REVERT JUMPDEST POP PUSH2 0x12E PUSH2 0x129 CALLDATASIZE PUSH1 0x4 PUSH2 0x1A12 JUMP JUMPDEST PUSH2 0x3F5 JUMP JUMPDEST PUSH1 0x40 MLOAD PUSH2 0x13F SWAP6 SWAP5 SWAP4 SWAP3 SWAP2 SWAP1 PUSH2 0x1A83 JUMP JUMPDEST PUSH1 0x40 MLOAD DUP1 SWAP2 SUB SWAP1 RETURN JUMPDEST CALLVALUE DUP1 ISZERO PUSH2 0x154 JUMPI PUSH1 0x0 DUP1 REVERT JUMPDEST POP PUSH2 0x168 PUSH2 0x163 CALLDATASIZE PUSH1 0x4 PUSH2 0x1AD5 JUMP JUMPDEST PUSH2 0x4BF JUMP JUMPDEST PUSH1 0x40 MLOAD PUSH2 0x13F SWAP6 SWAP5 SWAP4 SWAP3 SWAP2 SWAP1 PUSH2 0x1AF0 JUMP JUMPDEST CALLVALUE DUP1 ISZERO PUSH2 0x185 JUMPI PUSH1 0x0 DUP1 REVERT JUMPDEST POP PUSH2 0x199 PUSH2 0x194 CALLDATASIZE PUSH1 0x4 PUSH2 0x1AD5 JUMP JUMPDEST PUSH2 0x60B JUMP JUMPDEST STOP JUMPDEST CALLVALUE DUP1 ISZERO PUSH2 0x1A7 JUMPI PUSH1 0x0 DUP1 REVERT JUMPDEST POP PUSH2 0x168 PUSH2 0x1B6 CALLDATASIZE PUSH1 0x4 PUSH2 0x1A12 JUMP JUMPDEST PUSH2 0x6F4 JUMP JUMPDEST PUSH2 0x199 PUSH2 0x1C9 CALLDATASIZE PUSH1 0x4 PUSH2 0x1B57 JUMP JUMPDEST PUSH2 0x73A JUMP JUMPDEST CALLVALUE DUP1 ISZERO PUSH2 0x1DA JUMPI PUSH1 0x0 DUP1 REVERT JUMPDEST POP PUSH2 0x1E3 PUSH2 0x80B JUMP JUMPDEST PUSH1 0x40 MLOAD SWAP1 DUP2 MSTORE PUSH1 0x20 ADD PUSH2 0x13F JUMP JUMPDEST CALLVALUE DUP1 ISZERO PUSH2 0x1FD JUMPI PUSH1 0x0 DUP1 REVERT JUMPDEST POP PUSH2 0x211 PUSH2 0x20C CALLDATASIZE PUSH1 0x4 PUSH2 0x1A12 JUMP JUMPDEST PUSH2 0x8BE JUMP JUMPDEST PUSH1 0x40 MLOAD PUSH2 0x13F SWAP2 SWAP1 PUSH2 0x1C19 JUMP JUMPDEST CALLVALUE DUP1 ISZERO PUSH2 0x22A JUMPI PUSH1 0x0 DUP1 REVERT JUMPDEST POP PUSH2 0x199 PUSH2 0x92A JUMP JUMPDEST CALLVALUE DUP1 ISZERO PUSH2 0x23F JUMPI PUSH1 0x0 DUP1 REVERT JUMPDEST POP PUSH2 0x253 PUSH2 0x24E CALLDATASIZE PUSH1 0x4 PUSH2 0x1A12 JUMP JUMPDEST PUSH2 0x93E JUMP JUMPDEST PUSH1 0x40 MLOAD SWAP1 ISZERO ISZERO DUP2 MSTORE PUSH1 0x20 ADD PUSH2 0x13F JUMP JUMPDEST CALLVALUE DUP1 ISZERO PUSH2 0x26F JUMPI PUSH1 0x0 DUP1 REVERT JUMPDEST POP PUSH1 0x97 SLOAD PUSH1 0x1 PUSH1 0x1 PUSH1 0xA0 SHL SUB AND JUMPDEST PUSH1 0x40 MLOAD PUSH1 0x1 PUSH1 0x1 PUSH1 0xA0 SHL SUB SWAP1 SWAP2 AND DUP2 MSTORE PUSH1 0x20 ADD PUSH2 0x13F JUMP JUMPDEST CALLVALUE DUP1 ISZERO PUSH2 0x2A1 JUMPI PUSH1 0x0 DUP1 REVERT JUMPDEST POP PUSH2 0x199 PUSH2 0x2B0 CALLDATASIZE PUSH1 0x4 PUSH2 0x1AD5 JUMP JUMPDEST PUSH2 0xCC5 JUMP JUMPDEST CALLVALUE DUP1 ISZERO PUSH2 0x2C1 JUMPI PUSH1 0x0 DUP1 REVERT JUMPDEST POP PUSH2 0x2FE PUSH2 0x2D0 CALLDATASIZE PUSH1 0x4 PUSH2 0x1A12 JUMP JUMPDEST PUSH1 0xD0 PUSH1 0x20 MSTORE PUSH1 0x0 SWAP1 DUP2 MSTORE PUSH1 0x40 SWAP1 KECCAK256 DUP1 SLOAD PUSH1 0x1 DUP3 ADD SLOAD PUSH1 0x2 SWAP1 SWAP3 ADD SLOAD PUSH1 0x1 PUSH1 0x1 PUSH1 0xA0 SHL SUB SWAP2 DUP3 AND SWAP3 DUP3 AND SWAP2 AND DUP4 JUMP JUMPDEST PUSH1 0x40 DUP1 MLOAD PUSH1 0x1 PUSH1 0x1 PUSH1 0xA0 SHL SUB SWAP5 DUP6 AND DUP2 MSTORE SWAP3 DUP5 AND PUSH1 0x20 DUP5 ADD MSTORE SWAP3 AND SWAP2 DUP2 ADD SWAP2 SWAP1 SWAP2 MSTORE PUSH1 0x60 ADD PUSH2 0x13F JUMP JUMPDEST CALLVALUE DUP1 ISZERO PUSH2 0x334 JUMPI PUSH1 0x0 DUP1 REVERT JUMPDEST POP PUSH2 0x1E3 PUSH2 0x343 CALLDATASIZE PUSH1 0x4 PUSH2 0x1A12 JUMP JUMPDEST PUSH1 0x0 SWAP1 DUP2 MSTORE PUSH1 0xCF PUSH1 0x20 MSTORE PUSH1 0x40 SWAP1 KECCAK256 SLOAD SWAP1 JUMP JUMPDEST CALLVALUE DUP1 ISZERO PUSH2 0x361 JUMPI PUSH1 0x0 DUP1 REVERT JUMPDEST POP PUSH2 0x27D PUSH2 0x370 CALLDATASIZE PUSH1 0x4 PUSH2 0x1C66 JUMP JUMPDEST PUSH2 0xE07 JUMP JUMPDEST CALLVALUE DUP1 ISZERO PUSH2 0x381 JUMPI PUSH1 0x0 DUP1 REVERT JUMPDEST POP PUSH2 0x199 PUSH2 0x390 CALLDATASIZE PUSH1 0x4 PUSH2 0x1AD5 JUMP JUMPDEST PUSH2 0xE3F JUMP JUMPDEST CALLVALUE DUP1 ISZERO PUSH2 0x3A1 JUMPI PUSH1 0x0 DUP1 REVERT JUMPDEST POP PUSH1 0xCD SLOAD PUSH2 0x27D SWAP1 PUSH1 0x1 PUSH1 0x1 PUSH1 0xA0 SHL SUB AND DUP2 JUMP JUMPDEST CALLVALUE DUP1 ISZERO PUSH2 0x3C1 JUMPI PUSH1 0x0 DUP1 REVERT JUMPDEST POP PUSH2 0x199 PUSH2 0x3D0 CALLDATASIZE PUSH1 0x4 PUSH2 0x1A12 JUMP JUMPDEST PUSH2 0xEB5 JUMP JUMPDEST CALLVALUE DUP1 ISZERO PUSH2 0x3E1 JUMPI PUSH1 0x0 DUP1 REVERT JUMPDEST POP PUSH2 0x1E3 PUSH2 0x3F0 CALLDATASIZE PUSH1 0x4 PUSH2 0x1A12 JUMP JUMPDEST PUSH2 0x14BD JUMP JUMPDEST PUSH1 0xCB DUP2 DUP2 SLOAD DUP2 LT PUSH2 0x405 JUMPI PUSH1 0x0 DUP1 REVERT JUMPDEST PUSH1 0x0 SWAP2 DUP3 MSTORE PUSH1 0x20 SWAP1 SWAP2 KECCAK256 PUSH1 0x5 SWAP1 SWAP2 MUL ADD DUP1 SLOAD PUSH1 0x1 DUP3 ADD DUP1 SLOAD SWAP2 SWAP4 POP SWAP1 PUSH2 0x42A SWAP1 PUSH2 0x1C88 JUMP JUMPDEST DUP1 PUSH1 0x1F ADD PUSH1 0x20 DUP1 SWAP2 DIV MUL PUSH1 0x20 ADD PUSH1 0x40 MLOAD SWAP1 DUP2 ADD PUSH1 0x40 MSTORE DUP1 SWAP3 SWAP2 SWAP1 DUP2 DUP2 MSTORE PUSH1 0x20 ADD DUP3 DUP1 SLOAD PUSH2 0x456 SWAP1 PUSH2 0x1C88 JUMP JUMPDEST DUP1 ISZERO PUSH2 0x4A3 JUMPI DUP1 PUSH1 0x1F LT PUSH2 0x478 JUMPI PUSH2 0x100 DUP1 DUP4 SLOAD DIV MUL DUP4 MSTORE SWAP2 PUSH1 0x20 ADD SWAP2 PUSH2 0x4A3 JUMP JUMPDEST DUP3 ADD SWAP2 SWAP1 PUSH1 0x0 MSTORE PUSH1 0x20 PUSH1 0x0 KECCAK256 SWAP1 JUMPDEST DUP2 SLOAD DUP2 MSTORE SWAP1 PUSH1 0x1 ADD SWAP1 PUSH1 0x20 ADD DUP1 DUP4 GT PUSH2 0x486 JUMPI DUP3 SWAP1 SUB PUSH1 0x1F AND DUP3 ADD SWAP2 JUMPDEST POP POP POP POP POP SWAP1 DUP1 PUSH1 0x2 ADD SLOAD SWAP1 DUP1 PUSH1 0x3 ADD SLOAD SWAP1 DUP1 PUSH1 0x4 ADD SLOAD SWAP1 POP DUP6 JUMP JUMPDEST PUSH1 0xCE PUSH1 0x20 MSTORE PUSH1 0x0 SWAP1 DUP2 MSTORE PUSH1 0x40 SWAP1 KECCAK256 DUP1 SLOAD PUSH1 0x1 DUP3 ADD SLOAD PUSH1 0x2 DUP4 ADD DUP1 SLOAD SWAP3 SWAP4 PUSH1 0x1 PUSH1 0x1 PUSH1 0xA0 SHL SUB SWAP1 SWAP3 AND SWAP3 PUSH2 0x4F1 SWAP1 PUSH2 0x1C88 JUMP JUMPDEST DUP1 PUSH1 0x1F ADD PUSH1 0x20 DUP1 SWAP2 DIV MUL PUSH1 0x20 ADD PUSH1 0x40 MLOAD SWAP1 DUP2 ADD PUSH1 0x40 MSTORE DUP1 SWAP3 SWAP2 SWAP1 DUP2 DUP2 MSTORE PUSH1 0x20 ADD DUP3 DUP1 SLOAD PUSH2 0x51D SWAP1 PUSH2 0x1C88 JUMP JUMPDEST DUP1 ISZERO PUSH2 0x56A JUMPI DUP1 PUSH1 0x1F LT PUSH2 0x53F JUMPI PUSH2 0x100 DUP1 DUP4 SLOAD DIV MUL DUP4 MSTORE SWAP2 PUSH1 0x20 ADD SWAP2 PUSH2 0x56A JUMP JUMPDEST DUP3 ADD SWAP2 SWAP1 PUSH1 0x0 MSTORE PUSH1 0x20 PUSH1 0x0 KECCAK256 SWAP1 JUMPDEST DUP2 SLOAD DUP2 MSTORE SWAP1 PUSH1 0x1 ADD SWAP1 PUSH1 0x20 ADD DUP1 DUP4 GT PUSH2 0x54D JUMPI DUP3 SWAP1 SUB PUSH1 0x1F AND DUP3 ADD SWAP2 JUMPDEST POP POP POP POP POP SWAP1 DUP1 PUSH1 0x3 ADD DUP1 SLOAD PUSH2 0x57F SWAP1 PUSH2 0x1C88 JUMP JUMPDEST DUP1 PUSH1 0x1F ADD PUSH1 0x20 DUP1 SWAP2 DIV MUL PUSH1 0x20 ADD PUSH1 0x40 MLOAD SWAP1 DUP2 ADD PUSH1 0x40 MSTORE DUP1 SWAP3 SWAP2 SWAP1 DUP2 DUP2 MSTORE PUSH1 0x20 ADD DUP3 DUP1 SLOAD PUSH2 0x5AB SWAP1 PUSH2 0x1C88 JUMP JUMPDEST DUP1 ISZERO PUSH2 0x5F8 JUMPI DUP1 PUSH1 0x1F LT PUSH2 0x5CD JUMPI PUSH2 0x100 DUP1 DUP4 SLOAD DIV MUL DUP4 MSTORE SWAP2 PUSH1 0x20 ADD SWAP2 PUSH2 0x5F8 JUMP JUMPDEST DUP3 ADD SWAP2 SWAP1 PUSH1 0x0 MSTORE PUSH1 0x20 PUSH1 0x0 KECCAK256 SWAP1 JUMPDEST DUP2 SLOAD DUP2 MSTORE SWAP1 PUSH1 0x1 ADD SWAP1 PUSH1 0x20 ADD DUP1 DUP4 GT PUSH2 0x5DB JUMPI DUP3 SWAP1 SUB PUSH1 0x1F AND DUP3 ADD SWAP2 JUMPDEST POP POP POP PUSH1 0x4 SWAP1 SWAP4 ADD SLOAD SWAP2 SWAP3 POP POP PUSH1 0xFF AND DUP6 JUMP JUMPDEST ADDRESS PUSH1 0x1 PUSH1 0x1 PUSH1 0xA0 SHL SUB PUSH32 0x0 AND EQ ISZERO PUSH2 0x65D JUMPI PUSH1 0x40 MLOAD PUSH3 0x461BCD PUSH1 0xE5 SHL DUP2 MSTORE PUSH1 0x4 ADD PUSH2 0x654 SWAP1 PUSH2 0x1CBD JUMP JUMPDEST PUSH1 0x40 MLOAD DUP1 SWAP2 SUB SWAP1 REVERT JUMPDEST PUSH32 0x0 PUSH1 0x1 PUSH1 0x1 PUSH1 0xA0 SHL SUB AND PUSH2 0x6A6 PUSH1 0x0 DUP1 MLOAD PUSH1 0x20 PUSH2 0x1EDE DUP4 CODECOPY DUP2 MLOAD SWAP2 MSTORE SLOAD PUSH1 0x1 PUSH1 0x1 PUSH1 0xA0 SHL SUB AND SWAP1 JUMP JUMPDEST PUSH1 0x1 PUSH1 0x1 PUSH1 0xA0 SHL SUB AND EQ PUSH2 0x6CC JUMPI PUSH1 0x40 MLOAD PUSH3 0x461BCD PUSH1 0xE5 SHL DUP2 MSTORE PUSH1 0x4 ADD PUSH2 0x654 SWAP1 PUSH2 0x1D09 JUMP JUMPDEST PUSH2 0x6D5 DUP2 PUSH2 0x14DE JUMP JUMPDEST PUSH1 0x40 DUP1 MLOAD PUSH1 0x0 DUP1 DUP3 MSTORE PUSH1 0x20 DUP3 ADD SWAP1 SWAP3 MSTORE PUSH2 0x6F1 SWAP2 DUP4 SWAP2 SWAP1 PUSH2 0x14E6 JUMP JUMPDEST POP JUMP JUMPDEST PUSH1 0xCA DUP2 DUP2 SLOAD DUP2 LT PUSH2 0x704 JUMPI PUSH1 0x0 DUP1 REVERT JUMPDEST PUSH1 0x0 SWAP2 DUP3 MSTORE PUSH1 0x20 SWAP1 SWAP2 KECCAK256 PUSH1 0x5 SWAP1 SWAP2 MUL ADD DUP1 SLOAD PUSH1 0x1 DUP3 ADD SLOAD PUSH1 0x2 DUP4 ADD DUP1 SLOAD SWAP3 SWAP5 POP PUSH1 0x1 PUSH1 0x1 PUSH1 0xA0 SHL SUB SWAP1 SWAP2 AND SWAP3 SWAP2 PUSH2 0x4F1 SWAP1 PUSH2 0x1C88 JUMP JUMPDEST ADDRESS PUSH1 0x1 PUSH1 0x1 PUSH1 0xA0 SHL SUB PUSH32 0x0 AND EQ ISZERO PUSH2 0x783 JUMPI PUSH1 0x40 MLOAD PUSH3 0x461BCD PUSH1 0xE5 SHL DUP2 MSTORE PUSH1 0x4 ADD PUSH2 0x654 SWAP1 PUSH2 0x1CBD JUMP JUMPDEST PUSH32 0x0 PUSH1 0x1 PUSH1 0x1 PUSH1 0xA0 SHL SUB AND PUSH2 0x7CC PUSH1 0x0 DUP1 MLOAD PUSH1 0x20 PUSH2 0x1EDE DUP4 CODECOPY DUP2 MLOAD SWAP2 MSTORE SLOAD PUSH1 0x1 PUSH1 0x1 PUSH1 0xA0 SHL SUB AND SWAP1 JUMP JUMPDEST PUSH1 0x1 PUSH1 0x1 PUSH1 0xA0 SHL SUB AND EQ PUSH2 0x7F2 JUMPI PUSH1 0x40 MLOAD PUSH3 0x461BCD PUSH1 0xE5 SHL DUP2 MSTORE PUSH1 0x4 ADD PUSH2 0x654 SWAP1 PUSH2 0x1D09 JUMP JUMPDEST PUSH2 0x7FB DUP3 PUSH2 0x14DE JUMP JUMPDEST PUSH2 0x807 DUP3 DUP3 PUSH1 0x1 PUSH2 0x14E6 JUMP JUMPDEST POP POP JUMP JUMPDEST PUSH1 0x0 ADDRESS PUSH1 0x1 PUSH1 0x1 PUSH1 0xA0 SHL SUB PUSH32 0x0 AND EQ PUSH2 0x8AB JUMPI PUSH1 0x40 MLOAD PUSH3 0x461BCD PUSH1 0xE5 SHL DUP2 MSTORE PUSH1 0x20 PUSH1 0x4 DUP3 ADD MSTORE PUSH1 0x38 PUSH1 0x24 DUP3 ADD MSTORE PUSH32 0x555550535570677261646561626C653A206D757374206E6F742062652063616C PUSH1 0x44 DUP3 ADD MSTORE PUSH32 0x6C6564207468726F7567682064656C656761746563616C6C0000000000000000 PUSH1 0x64 DUP3 ADD MSTORE PUSH1 0x84 ADD PUSH2 0x654 JUMP JUMPDEST POP PUSH1 0x0 DUP1 MLOAD PUSH1 0x20 PUSH2 0x1EDE DUP4 CODECOPY DUP2 MLOAD SWAP2 MSTORE SWAP1 JUMP JUMPDEST PUSH1 0x0 DUP2 DUP2 MSTORE PUSH1 0xCF PUSH1 0x20 SWAP1 DUP2 MSTORE PUSH1 0x40 SWAP2 DUP3 SWAP1 KECCAK256 DUP1 SLOAD DUP4 MLOAD DUP2 DUP5 MUL DUP2 ADD DUP5 ADD SWAP1 SWAP5 MSTORE DUP1 DUP5 MSTORE PUSH1 0x60 SWAP4 SWAP3 DUP4 ADD DUP3 DUP3 DUP1 ISZERO PUSH2 0x91E JUMPI PUSH1 0x20 MUL DUP3 ADD SWAP2 SWAP1 PUSH1 0x0 MSTORE PUSH1 0x20 PUSH1 0x0 KECCAK256 SWAP1 JUMPDEST DUP2 SLOAD PUSH1 0x1 PUSH1 0x1 PUSH1 0xA0 SHL SUB AND DUP2 MSTORE PUSH1 0x1 SWAP1 SWAP2 ADD SWAP1 PUSH1 0x20 ADD DUP1 DUP4 GT PUSH2 0x900 JUMPI JUMPDEST POP POP POP POP POP SWAP1 POP SWAP2 SWAP1 POP JUMP JUMPDEST PUSH2 0x932 PUSH2 0x1665 JUMP JUMPDEST PUSH2 0x93C PUSH1 0x0 PUSH2 0x16BF JUMP JUMPDEST JUMP JUMPDEST CALLER PUSH1 0x0 DUP2 DUP2 MSTORE PUSH1 0xCE PUSH1 0x20 MSTORE PUSH1 0x40 DUP2 KECCAK256 PUSH1 0x1 ADD SLOAD SWAP1 SWAP2 PUSH1 0x1 PUSH1 0x1 PUSH1 0xA0 SHL SUB SWAP1 SWAP2 AND EQ PUSH2 0x9B9 JUMPI PUSH1 0x40 MLOAD PUSH3 0x461BCD PUSH1 0xE5 SHL DUP2 MSTORE PUSH1 0x20 PUSH1 0x4 DUP3 ADD MSTORE PUSH1 0x25 PUSH1 0x24 DUP3 ADD MSTORE PUSH32 0x4F6E6C7920526567697374657265642055736572732063616E20506172746963 PUSH1 0x44 DUP3 ADD MSTORE PUSH5 0x6970617465 PUSH1 0xD8 SHL PUSH1 0x64 DUP3 ADD MSTORE PUSH1 0x84 ADD PUSH2 0x654 JUMP JUMPDEST CALLER PUSH1 0x0 SWAP1 DUP2 MSTORE PUSH1 0xCE PUSH1 0x20 MSTORE PUSH1 0x40 SWAP1 KECCAK256 PUSH1 0x4 ADD SLOAD PUSH1 0xFF AND ISZERO PUSH2 0xA1C JUMPI PUSH1 0x40 MLOAD PUSH3 0x461BCD PUSH1 0xE5 SHL DUP2 MSTORE PUSH1 0x20 PUSH1 0x4 DUP3 ADD DUP2 SWAP1 MSTORE PUSH1 0x24 DUP3 ADD MSTORE PUSH32 0x44697361626C65642055736572732063616E2774205061727469636970617465 PUSH1 0x44 DUP3 ADD MSTORE PUSH1 0x64 ADD PUSH2 0x654 JUMP JUMPDEST PUSH1 0xCB SLOAD DUP3 SWAP1 DUP2 LT PUSH2 0xA63 JUMPI PUSH1 0x40 MLOAD PUSH3 0x461BCD PUSH1 0xE5 SHL DUP2 MSTORE PUSH1 0x20 PUSH1 0x4 DUP3 ADD MSTORE PUSH1 0x11 PUSH1 0x24 DUP3 ADD MSTORE PUSH17 0x125B9D985B1A59081B1BDD1D195C9E5259 PUSH1 0x7A SHL PUSH1 0x44 DUP3 ADD MSTORE PUSH1 0x64 ADD PUSH2 0x654 JUMP JUMPDEST PUSH1 0xCB DUP2 DUP2 SLOAD DUP2 LT PUSH2 0xA76 JUMPI PUSH2 0xA76 PUSH2 0x1D55 JUMP JUMPDEST SWAP1 PUSH1 0x0 MSTORE PUSH1 0x20 PUSH1 0x0 KECCAK256 SWAP1 PUSH1 0x5 MUL ADD PUSH1 0x3 ADD SLOAD PUSH1 0x2 EQ PUSH2 0xACF JUMPI PUSH1 0x40 MLOAD PUSH3 0x461BCD PUSH1 0xE5 SHL DUP2 MSTORE PUSH1 0x20 PUSH1 0x4 DUP3 ADD MSTORE PUSH1 0x15 PUSH1 0x24 DUP3 ADD MSTORE PUSH21 0x4C6F7474657279206973206E6F7420616374697665 PUSH1 0x58 SHL PUSH1 0x44 DUP3 ADD MSTORE PUSH1 0x64 ADD PUSH2 0x654 JUMP JUMPDEST PUSH1 0x0 JUMPDEST PUSH1 0xCA SLOAD DUP2 LT ISZERO PUSH2 0xCB9 JUMPI CALLER PUSH1 0x1 PUSH1 0x1 PUSH1 0xA0 SHL SUB AND PUSH1 0xCA DUP3 DUP2 SLOAD DUP2 LT PUSH2 0xAF9 JUMPI PUSH2 0xAF9 PUSH2 0x1D55 JUMP JUMPDEST PUSH1 0x0 SWAP2 DUP3 MSTORE PUSH1 0x20 SWAP1 SWAP2 KECCAK256 PUSH1 0x1 PUSH1 0x5 SWAP1 SWAP3 MUL ADD ADD SLOAD PUSH1 0x1 PUSH1 0x1 PUSH1 0xA0 SHL SUB AND EQ ISZERO PUSH2 0xCA7 JUMPI PUSH1 0x0 PUSH1 0xCB DUP6 DUP2 SLOAD DUP2 LT PUSH2 0xB31 JUMPI PUSH2 0xB31 PUSH2 0x1D55 JUMP JUMPDEST PUSH1 0x0 SWAP2 DUP3 MSTORE PUSH1 0x20 DUP3 KECCAK256 PUSH1 0x2 PUSH1 0x5 SWAP1 SWAP3 MUL ADD ADD SLOAD SWAP2 POP PUSH2 0xB51 PUSH1 0x64 DUP4 PUSH2 0x1D97 JUMP JUMPDEST SWAP1 POP PUSH1 0x0 PUSH2 0xB5F DUP3 DUP5 PUSH2 0x1DAB JUMP JUMPDEST PUSH1 0xC9 SLOAD PUSH1 0x40 MLOAD PUSH4 0xA9059CBB PUSH1 0xE0 SHL DUP2 MSTORE ADDRESS PUSH1 0x4 DUP3 ADD MSTORE PUSH1 0x24 DUP2 ADD DUP4 SWAP1 MSTORE SWAP2 SWAP3 POP PUSH1 0x1 PUSH1 0x1 PUSH1 0xA0 SHL SUB AND SWAP1 PUSH4 0xA9059CBB SWAP1 PUSH1 0x44 ADD PUSH1 0x20 PUSH1 0x40 MLOAD DUP1 DUP4 SUB DUP2 PUSH1 0x0 DUP8 DUP1 EXTCODESIZE ISZERO DUP1 ISZERO PUSH2 0xBAC JUMPI PUSH1 0x0 DUP1 REVERT JUMPDEST POP GAS CALL ISZERO DUP1 ISZERO PUSH2 0xBC0 JUMPI RETURNDATASIZE PUSH1 0x0 DUP1 RETURNDATACOPY RETURNDATASIZE PUSH1 0x0 REVERT JUMPDEST POP POP POP POP PUSH1 0x40 MLOAD RETURNDATASIZE PUSH1 0x1F NOT PUSH1 0x1F DUP3 ADD AND DUP3 ADD DUP1 PUSH1 0x40 MSTORE POP DUP2 ADD SWAP1 PUSH2 0xBE4 SWAP2 SWAP1 PUSH2 0x1DC2 JUMP JUMPDEST POP PUSH1 0xC9 SLOAD PUSH1 0x40 MLOAD PUSH4 0xA9059CBB PUSH1 0xE0 SHL DUP2 MSTORE CALLER PUSH1 0x4 DUP3 ADD MSTORE PUSH1 0x24 DUP2 ADD DUP5 SWAP1 MSTORE PUSH1 0x1 PUSH1 0x1 PUSH1 0xA0 SHL SUB SWAP1 SWAP2 AND SWAP1 PUSH4 0xA9059CBB SWAP1 PUSH1 0x44 ADD PUSH1 0x20 PUSH1 0x40 MLOAD DUP1 DUP4 SUB DUP2 PUSH1 0x0 DUP8 DUP1 EXTCODESIZE ISZERO DUP1 ISZERO PUSH2 0xC31 JUMPI PUSH1 0x0 DUP1 REVERT JUMPDEST POP GAS CALL ISZERO DUP1 ISZERO PUSH2 0xC45 JUMPI RETURNDATASIZE PUSH1 0x0 DUP1 RETURNDATACOPY RETURNDATASIZE PUSH1 0x0 REVERT JUMPDEST POP POP POP POP PUSH1 0x40 MLOAD RETURNDATASIZE PUSH1 0x1F NOT PUSH1 0x1F DUP3 ADD AND DUP3 ADD DUP1 PUSH1 0x40 MSTORE POP DUP2 ADD SWAP1 PUSH2 0xC69 SWAP2 SWAP1 PUSH2 0x1DC2 JUMP JUMPDEST POP POP POP PUSH1 0x0 DUP6 DUP2 MSTORE PUSH1 0xCF PUSH1 0x20 SWAP1 DUP2 MSTORE PUSH1 0x40 DUP3 KECCAK256 DUP1 SLOAD PUSH1 0x1 DUP2 DUP2 ADD DUP4 SSTORE SWAP2 DUP5 MSTORE SWAP2 SWAP1 SWAP3 KECCAK256 ADD DUP1 SLOAD PUSH1 0x1 PUSH1 0x1 PUSH1 0xA0 SHL SUB NOT AND CALLER OR SWAP1 SSTORE SWAP4 POP PUSH2 0xCBF SWAP2 POP POP JUMP JUMPDEST DUP1 PUSH2 0xCB1 DUP2 PUSH2 0x1DE4 JUMP JUMPDEST SWAP2 POP POP PUSH2 0xAD2 JUMP JUMPDEST POP PUSH1 0x0 SWAP2 POP JUMPDEST POP SWAP2 SWAP1 POP JUMP JUMPDEST PUSH1 0x0 SLOAD PUSH2 0x100 SWAP1 DIV PUSH1 0xFF AND ISZERO DUP1 DUP1 ISZERO PUSH2 0xCE5 JUMPI POP PUSH1 0x0 SLOAD PUSH1 0x1 PUSH1 0xFF SWAP1 SWAP2 AND LT JUMPDEST DUP1 PUSH2 0xCFF JUMPI POP ADDRESS EXTCODESIZE ISZERO DUP1 ISZERO PUSH2 0xCFF JUMPI POP PUSH1 0x0 SLOAD PUSH1 0xFF AND PUSH1 0x1 EQ JUMPDEST PUSH2 0xD62 JUMPI PUSH1 0x40 MLOAD PUSH3 0x461BCD PUSH1 0xE5 SHL DUP2 MSTORE PUSH1 0x20 PUSH1 0x4 DUP3 ADD MSTORE PUSH1 0x2E PUSH1 0x24 DUP3 ADD MSTORE PUSH32 0x496E697469616C697A61626C653A20636F6E747261637420697320616C726561 PUSH1 0x44 DUP3 ADD MSTORE PUSH14 0x191E481A5B9A5D1A585B1A5E9959 PUSH1 0x92 SHL PUSH1 0x64 DUP3 ADD MSTORE PUSH1 0x84 ADD PUSH2 0x654 JUMP JUMPDEST PUSH1 0x0 DUP1 SLOAD PUSH1 0xFF NOT AND PUSH1 0x1 OR SWAP1 SSTORE DUP1 ISZERO PUSH2 0xD85 JUMPI PUSH1 0x0 DUP1 SLOAD PUSH2 0xFF00 NOT AND PUSH2 0x100 OR SWAP1 SSTORE JUMPDEST PUSH1 0xC9 DUP1 SLOAD PUSH1 0x1 PUSH1 0x1 PUSH1 0xA0 SHL SUB DUP5 AND PUSH1 0x1 PUSH1 0x1 PUSH1 0xA0 SHL SUB NOT SWAP2 DUP3 AND OR SWAP1 SWAP2 SSTORE PUSH1 0xCD DUP1 SLOAD SWAP1 SWAP2 AND CALLER OR SWAP1 SSTORE PUSH2 0xDB6 PUSH2 0x1711 JUMP JUMPDEST PUSH2 0xDBE PUSH2 0x1740 JUMP JUMPDEST DUP1 ISZERO PUSH2 0x807 JUMPI PUSH1 0x0 DUP1 SLOAD PUSH2 0xFF00 NOT AND SWAP1 SSTORE PUSH1 0x40 MLOAD PUSH1 0x1 DUP2 MSTORE PUSH32 0x7F26B83FF96E1F2B6A682F133852F6798A09C465DA95921460CEFB3847402498 SWAP1 PUSH1 0x20 ADD PUSH1 0x40 MLOAD DUP1 SWAP2 SUB SWAP1 LOG1 POP POP JUMP JUMPDEST PUSH1 0xCF PUSH1 0x20 MSTORE DUP2 PUSH1 0x0 MSTORE PUSH1 0x40 PUSH1 0x0 KECCAK256 DUP2 DUP2 SLOAD DUP2 LT PUSH2 0xE23 JUMPI PUSH1 0x0 DUP1 REVERT JUMPDEST PUSH1 0x0 SWAP2 DUP3 MSTORE PUSH1 0x20 SWAP1 SWAP2 KECCAK256 ADD SLOAD PUSH1 0x1 PUSH1 0x1 PUSH1 0xA0 SHL SUB AND SWAP2 POP DUP3 SWAP1 POP JUMP JUMPDEST PUSH2 0xE47 PUSH2 0x1665 JUMP JUMPDEST PUSH1 0x1 PUSH1 0x1 PUSH1 0xA0 SHL SUB DUP2 AND PUSH2 0xEAC JUMPI PUSH1 0x40 MLOAD PUSH3 0x461BCD PUSH1 0xE5 SHL DUP2 MSTORE PUSH1 0x20 PUSH1 0x4 DUP3 ADD MSTORE PUSH1 0x26 PUSH1 0x24 DUP3 ADD MSTORE PUSH32 0x4F776E61626C653A206E6577206F776E657220697320746865207A65726F2061 PUSH1 0x44 DUP3 ADD MSTORE PUSH6 0x646472657373 PUSH1 0xD0 SHL PUSH1 0x64 DUP3 ADD MSTORE PUSH1 0x84 ADD PUSH2 0x654 JUMP JUMPDEST PUSH2 0x6F1 DUP2 PUSH2 0x16BF JUMP JUMPDEST PUSH2 0xEBD PUSH2 0x1665 JUMP JUMPDEST PUSH1 0xCB SLOAD DUP2 SWAP1 DUP2 LT PUSH2 0xF04 JUMPI PUSH1 0x40 MLOAD PUSH3 0x461BCD PUSH1 0xE5 SHL DUP2 MSTORE PUSH1 0x20 PUSH1 0x4 DUP3 ADD MSTORE PUSH1 0x11 PUSH1 0x24 DUP3 ADD MSTORE PUSH17 0x125B9D985B1A59081B1BDD1D195C9E5259 PUSH1 0x7A SHL PUSH1 0x44 DUP3 ADD MSTORE PUSH1 0x64 ADD PUSH2 0x654 JUMP JUMPDEST PUSH1 0xCB DUP2 DUP2 SLOAD DUP2 LT PUSH2 0xF17 JUMPI PUSH2 0xF17 PUSH2 0x1D55 JUMP JUMPDEST SWAP1 PUSH1 0x0 MSTORE PUSH1 0x20 PUSH1 0x0 KECCAK256 SWAP1 PUSH1 0x5 MUL ADD PUSH1 0x3 ADD SLOAD PUSH1 0x2 EQ PUSH2 0xF70 JUMPI PUSH1 0x40 MLOAD PUSH3 0x461BCD PUSH1 0xE5 SHL DUP2 MSTORE PUSH1 0x20 PUSH1 0x4 DUP3 ADD MSTORE PUSH1 0x15 PUSH1 0x24 DUP3 ADD MSTORE PUSH21 0x4C6F7474657279206973206E6F7420616374697665 PUSH1 0x58 SHL PUSH1 0x44 DUP3 ADD MSTORE PUSH1 0x64 ADD PUSH2 0x654 JUMP JUMPDEST PUSH1 0x0 DUP3 DUP2 MSTORE PUSH1 0xCF PUSH1 0x20 MSTORE PUSH1 0x40 SWAP1 KECCAK256 SLOAD PUSH1 0x5 GT ISZERO PUSH2 0xFCF JUMPI PUSH1 0x40 MLOAD PUSH3 0x461BCD PUSH1 0xE5 SHL DUP2 MSTORE PUSH1 0x20 PUSH1 0x4 DUP3 ADD MSTORE PUSH1 0x1F PUSH1 0x24 DUP3 ADD MSTORE PUSH32 0x4D696E696D756D2035207061727469636970616E747320726571756972656400 PUSH1 0x44 DUP3 ADD MSTORE PUSH1 0x64 ADD PUSH2 0x654 JUMP JUMPDEST PUSH1 0x0 DUP3 DUP2 MSTORE PUSH1 0xCF PUSH1 0x20 MSTORE PUSH1 0x40 DUP2 KECCAK256 SLOAD PUSH1 0xCB DUP1 SLOAD SWAP2 SWAP3 SWAP2 DUP6 SWAP1 DUP2 LT PUSH2 0xFF5 JUMPI PUSH2 0xFF5 PUSH2 0x1D55 JUMP JUMPDEST PUSH1 0x0 SWAP2 DUP3 MSTORE PUSH1 0x20 DUP3 KECCAK256 PUSH1 0x2 PUSH1 0x5 SWAP1 SWAP3 MUL ADD ADD SLOAD SWAP2 POP PUSH2 0x1015 PUSH1 0x64 DUP4 PUSH2 0x1D97 JUMP JUMPDEST PUSH2 0x1020 SWAP1 PUSH1 0x63 PUSH2 0x1DFF JUMP JUMPDEST PUSH2 0x102A SWAP1 DUP5 PUSH2 0x1DFF JUMP JUMPDEST PUSH2 0x1036 SWAP1 PUSH2 0x3E8 PUSH2 0x1E1E JUMP JUMPDEST SWAP1 POP PUSH1 0x0 PUSH2 0x1044 PUSH1 0xC PUSH2 0x1767 JUMP JUMPDEST SWAP1 POP PUSH1 0x0 PUSH2 0x1052 PUSH1 0x7B PUSH2 0x1767 JUMP JUMPDEST SWAP1 POP PUSH1 0x0 PUSH2 0x1061 PUSH2 0x4D2 PUSH2 0x1767 JUMP JUMPDEST SWAP1 POP PUSH1 0x0 PUSH2 0x106F DUP8 DUP6 PUSH2 0x1E36 JUMP JUMPDEST SWAP1 POP PUSH1 0x0 DUP1 JUMPDEST DUP5 PUSH2 0x107F DUP2 PUSH2 0x1DE4 JUMP JUMPDEST SWAP6 POP PUSH2 0x108D SWAP1 POP DUP10 DUP7 PUSH2 0x1E36 JUMP JUMPDEST SWAP2 POP DUP2 DUP4 EQ PUSH2 0x1075 JUMPI JUMPDEST DUP4 PUSH2 0x10A1 DUP2 PUSH2 0x1DE4 JUMP JUMPDEST SWAP5 POP PUSH2 0x10AF SWAP1 POP DUP10 DUP6 PUSH2 0x1E36 JUMP JUMPDEST SWAP1 POP DUP1 DUP4 EQ DUP1 PUSH2 0x10BE JUMPI POP DUP1 DUP3 EQ JUMPDEST PUSH2 0x1097 JUMPI PUSH1 0x40 MLOAD DUP1 PUSH1 0x60 ADD PUSH1 0x40 MSTORE DUP1 PUSH1 0xCF PUSH1 0x0 DUP15 DUP2 MSTORE PUSH1 0x20 ADD SWAP1 DUP2 MSTORE PUSH1 0x20 ADD PUSH1 0x0 KECCAK256 DUP6 DUP2 SLOAD DUP2 LT PUSH2 0x10F1 JUMPI PUSH2 0x10F1 PUSH2 0x1D55 JUMP JUMPDEST PUSH1 0x0 SWAP2 DUP3 MSTORE PUSH1 0x20 DUP1 DUP4 KECCAK256 SWAP1 SWAP2 ADD SLOAD PUSH1 0x1 PUSH1 0x1 PUSH1 0xA0 SHL SUB AND DUP4 MSTORE DUP15 DUP3 MSTORE PUSH1 0xCF DUP2 MSTORE PUSH1 0x40 SWAP1 SWAP2 KECCAK256 DUP1 SLOAD SWAP3 SWAP1 SWAP2 ADD SWAP2 DUP6 SWAP1 DUP2 LT PUSH2 0x112D JUMPI PUSH2 0x112D PUSH2 0x1D55 JUMP JUMPDEST PUSH1 0x0 SWAP2 DUP3 MSTORE PUSH1 0x20 DUP1 DUP4 KECCAK256 SWAP1 SWAP2 ADD SLOAD PUSH1 0x1 PUSH1 0x1 PUSH1 0xA0 SHL SUB AND DUP4 MSTORE DUP15 DUP3 MSTORE PUSH1 0xCF DUP2 MSTORE PUSH1 0x40 SWAP1 SWAP2 KECCAK256 DUP1 SLOAD SWAP3 SWAP1 SWAP2 ADD SWAP2 DUP5 SWAP1 DUP2 LT PUSH2 0x1169 JUMPI PUSH2 0x1169 PUSH2 0x1D55 JUMP JUMPDEST PUSH1 0x0 SWAP2 DUP3 MSTORE PUSH1 0x20 DUP1 DUP4 KECCAK256 SWAP1 SWAP2 ADD SLOAD PUSH1 0x1 PUSH1 0x1 PUSH1 0xA0 SHL SUB SWAP1 DUP2 AND SWAP1 SWAP4 MSTORE DUP15 DUP3 MSTORE PUSH1 0xD0 DUP2 MSTORE PUSH1 0x40 DUP1 DUP4 KECCAK256 DUP6 MLOAD DUP2 SLOAD SWAP1 DUP7 AND PUSH1 0x1 PUSH1 0x1 PUSH1 0xA0 SHL SUB NOT SWAP2 DUP3 AND OR DUP3 SSTORE DUP7 DUP5 ADD MLOAD PUSH1 0x1 DUP4 ADD DUP1 SLOAD SWAP2 DUP9 AND SWAP2 DUP4 AND SWAP2 SWAP1 SWAP2 OR SWAP1 SSTORE SWAP6 DUP3 ADD MLOAD PUSH1 0x2 SWAP1 SWAP2 ADD DUP1 SLOAD SWAP2 DUP7 AND SWAP2 SWAP1 SWAP7 AND OR SWAP1 SWAP5 SSTORE PUSH1 0xC9 SLOAD PUSH1 0xCF SWAP1 SWAP2 MSTORE SWAP3 SWAP1 KECCAK256 DUP1 SLOAD SWAP3 SWAP1 SWAP2 AND SWAP2 PUSH4 0xA9059CBB SWAP2 SWAP1 DUP7 SWAP1 DUP2 LT PUSH2 0x11FC JUMPI PUSH2 0x11FC PUSH2 0x1D55 JUMP JUMPDEST PUSH1 0x0 SWAP2 DUP3 MSTORE PUSH1 0x20 SWAP1 SWAP2 KECCAK256 ADD SLOAD PUSH1 0x1 PUSH1 0x1 PUSH1 0xA0 SHL SUB AND PUSH2 0x121C PUSH1 0x64 DUP12 PUSH2 0x1D97 JUMP JUMPDEST PUSH2 0x1227 SWAP1 PUSH1 0x32 PUSH2 0x1DFF JUMP JUMPDEST PUSH1 0x40 MLOAD PUSH1 0x1 PUSH1 0x1 PUSH1 0xE0 SHL SUB NOT PUSH1 0xE0 DUP6 SWAP1 SHL AND DUP2 MSTORE PUSH1 0x1 PUSH1 0x1 PUSH1 0xA0 SHL SUB SWAP1 SWAP3 AND PUSH1 0x4 DUP4 ADD MSTORE PUSH1 0x24 DUP3 ADD MSTORE PUSH1 0x44 ADD PUSH1 0x20 PUSH1 0x40 MLOAD DUP1 DUP4 SUB DUP2 PUSH1 0x0 DUP8 DUP1 EXTCODESIZE ISZERO DUP1 ISZERO PUSH2 0x126D JUMPI PUSH1 0x0 DUP1 REVERT JUMPDEST POP GAS CALL ISZERO DUP1 ISZERO PUSH2 0x1281 JUMPI RETURNDATASIZE PUSH1 0x0 DUP1 RETURNDATACOPY RETURNDATASIZE PUSH1 0x0 REVERT JUMPDEST POP POP POP POP PUSH1 0x40 MLOAD RETURNDATASIZE PUSH1 0x1F NOT PUSH1 0x1F DUP3 ADD AND DUP3 ADD DUP1 PUSH1 0x40 MSTORE POP DUP2 ADD SWAP1 PUSH2 0x12A5 SWAP2 SWAP1 PUSH2 0x1DC2 JUMP JUMPDEST POP PUSH1 0xC9 SLOAD PUSH1 0x0 DUP13 DUP2 MSTORE PUSH1 0xCF PUSH1 0x20 MSTORE PUSH1 0x40 SWAP1 KECCAK256 DUP1 SLOAD PUSH1 0x1 PUSH1 0x1 PUSH1 0xA0 SHL SUB SWAP1 SWAP3 AND SWAP2 PUSH4 0xA9059CBB SWAP2 SWAP1 DUP6 SWAP1 DUP2 LT PUSH2 0x12DC JUMPI PUSH2 0x12DC PUSH2 0x1D55 JUMP JUMPDEST PUSH1 0x0 SWAP2 DUP3 MSTORE PUSH1 0x20 SWAP1 SWAP2 KECCAK256 ADD SLOAD PUSH1 0x1 PUSH1 0x1 PUSH1 0xA0 SHL SUB AND PUSH2 0x12FC PUSH1 0x64 DUP12 PUSH2 0x1D97 JUMP JUMPDEST PUSH2 0x1307 SWAP1 PUSH1 0x1E PUSH2 0x1DFF JUMP JUMPDEST PUSH1 0x40 MLOAD PUSH1 0x1 PUSH1 0x1 PUSH1 0xE0 SHL SUB NOT PUSH1 0xE0 DUP6 SWAP1 SHL AND DUP2 MSTORE PUSH1 0x1 PUSH1 0x1 PUSH1 0xA0 SHL SUB SWAP1 SWAP3 AND PUSH1 0x4 DUP4 ADD MSTORE PUSH1 0x24 DUP3 ADD MSTORE PUSH1 0x44 ADD PUSH1 0x20 PUSH1 0x40 MLOAD DUP1 DUP4 SUB DUP2 PUSH1 0x0 DUP8 DUP1 EXTCODESIZE ISZERO DUP1 ISZERO PUSH2 0x134D JUMPI PUSH1 0x0 DUP1 REVERT JUMPDEST POP GAS CALL ISZERO DUP1 ISZERO PUSH2 0x1361 JUMPI RETURNDATASIZE PUSH1 0x0 DUP1 RETURNDATACOPY RETURNDATASIZE PUSH1 0x0 REVERT JUMPDEST POP POP POP POP PUSH1 0x40 MLOAD RETURNDATASIZE PUSH1 0x1F NOT PUSH1 0x1F DUP3 ADD AND DUP3 ADD DUP1 PUSH1 0x40 MSTORE POP DUP2 ADD SWAP1 PUSH2 0x1385 SWAP2 SWAP1 PUSH2 0x1DC2 JUMP JUMPDEST POP PUSH1 0xC9 SLOAD PUSH1 0x0 DUP13 DUP2 MSTORE PUSH1 0xCF PUSH1 0x20 MSTORE PUSH1 0x40 SWAP1 KECCAK256 DUP1 SLOAD PUSH1 0x1 PUSH1 0x1 PUSH1 0xA0 SHL SUB SWAP1 SWAP3 AND SWAP2 PUSH4 0xA9059CBB SWAP2 SWAP1 DUP5 SWAP1 DUP2 LT PUSH2 0x13BC JUMPI PUSH2 0x13BC PUSH2 0x1D55 JUMP JUMPDEST PUSH1 0x0 SWAP2 DUP3 MSTORE PUSH1 0x20 SWAP1 SWAP2 KECCAK256 ADD SLOAD PUSH1 0x1 PUSH1 0x1 PUSH1 0xA0 SHL SUB AND PUSH2 0x13DC PUSH1 0x64 DUP12 PUSH2 0x1D97 JUMP JUMPDEST PUSH2 0x13E7 SWAP1 PUSH1 0x14 PUSH2 0x1DFF JUMP JUMPDEST PUSH1 0x40 MLOAD PUSH1 0x1 PUSH1 0x1 PUSH1 0xE0 SHL SUB NOT PUSH1 0xE0 DUP6 SWAP1 SHL AND DUP2 MSTORE PUSH1 0x1 PUSH1 0x1 PUSH1 0xA0 SHL SUB SWAP1 SWAP3 AND PUSH1 0x4 DUP4 ADD MSTORE PUSH1 0x24 DUP3 ADD MSTORE PUSH1 0x44 ADD PUSH1 0x20 PUSH1 0x40 MLOAD DUP1 DUP4 SUB DUP2 PUSH1 0x0 DUP8 DUP1 EXTCODESIZE ISZERO DUP1 ISZERO PUSH2 0x142D JUMPI PUSH1 0x0 DUP1 REVERT JUMPDEST POP GAS CALL ISZERO DUP1 ISZERO PUSH2 0x1441 JUMPI RETURNDATASIZE PUSH1 0x0 DUP1 RETURNDATACOPY RETURNDATASIZE PUSH1 0x0 REVERT JUMPDEST POP POP POP POP PUSH1 0x40 MLOAD RETURNDATASIZE PUSH1 0x1F NOT PUSH1 0x1F DUP3 ADD AND DUP3 ADD DUP1 PUSH1 0x40 MSTORE POP DUP2 ADD SWAP1 PUSH2 0x1465 SWAP2 SWAP1 PUSH2 0x1DC2 JUMP JUMPDEST POP PUSH1 0x3 PUSH1 0xCB DUP13 DUP2 SLOAD DUP2 LT PUSH2 0x147B JUMPI PUSH2 0x147B PUSH2 0x1D55 JUMP JUMPDEST SWAP1 PUSH1 0x0 MSTORE PUSH1 0x20 PUSH1 0x0 KECCAK256 SWAP1 PUSH1 0x5 MUL ADD PUSH1 0x3 ADD DUP2 SWAP1 SSTORE POP DUP7 PUSH1 0xCC DUP13 DUP2 SLOAD DUP2 LT PUSH2 0x14A4 JUMPI PUSH2 0x14A4 PUSH2 0x1D55 JUMP JUMPDEST PUSH1 0x0 SWAP2 DUP3 MSTORE PUSH1 0x20 SWAP1 SWAP2 KECCAK256 ADD SSTORE POP POP POP POP POP POP POP POP POP POP POP JUMP JUMPDEST PUSH1 0xCC DUP2 DUP2 SLOAD DUP2 LT PUSH2 0x14CD JUMPI PUSH1 0x0 DUP1 REVERT JUMPDEST PUSH1 0x0 SWAP2 DUP3 MSTORE PUSH1 0x20 SWAP1 SWAP2 KECCAK256 ADD SLOAD SWAP1 POP DUP2 JUMP JUMPDEST PUSH2 0x6F1 PUSH2 0x1665 JUMP JUMPDEST PUSH32 0x4910FDFA16FED3260ED0E7147F7CC6DA11A60208B5B9406D12A635614FFD9143 SLOAD PUSH1 0xFF AND ISZERO PUSH2 0x151E JUMPI PUSH2 0x1519 DUP4 PUSH2 0x179D JUMP JUMPDEST POP POP POP JUMP JUMPDEST DUP3 PUSH1 0x1 PUSH1 0x1 PUSH1 0xA0 SHL SUB AND PUSH4 0x52D1902D PUSH1 0x40 MLOAD DUP2 PUSH4 0xFFFFFFFF AND PUSH1 0xE0 SHL DUP2 MSTORE PUSH1 0x4 ADD PUSH1 0x20 PUSH1 0x40 MLOAD DUP1 DUP4 SUB DUP2 DUP7 DUP1 EXTCODESIZE ISZERO DUP1 ISZERO PUSH2 0x1557 JUMPI PUSH1 0x0 DUP1 REVERT JUMPDEST POP GAS STATICCALL SWAP3 POP POP POP DUP1 ISZERO PUSH2 0x1587 JUMPI POP PUSH1 0x40 DUP1 MLOAD PUSH1 0x1F RETURNDATASIZE SWAP1 DUP2 ADD PUSH1 0x1F NOT AND DUP3 ADD SWAP1 SWAP3 MSTORE PUSH2 0x1584 SWAP2 DUP2 ADD SWAP1 PUSH2 0x1E4A JUMP JUMPDEST PUSH1 0x1 JUMPDEST PUSH2 0x15EA JUMPI PUSH1 0x40 MLOAD PUSH3 0x461BCD PUSH1 0xE5 SHL DUP2 MSTORE PUSH1 0x20 PUSH1 0x4 DUP3 ADD MSTORE PUSH1 0x2E PUSH1 0x24 DUP3 ADD MSTORE PUSH32 0x45524331393637557067726164653A206E657720696D706C656D656E74617469 PUSH1 0x44 DUP3 ADD MSTORE PUSH14 0x6F6E206973206E6F742055555053 PUSH1 0x90 SHL PUSH1 0x64 DUP3 ADD MSTORE PUSH1 0x84 ADD PUSH2 0x654 JUMP JUMPDEST PUSH1 0x0 DUP1 MLOAD PUSH1 0x20 PUSH2 0x1EDE DUP4 CODECOPY DUP2 MLOAD SWAP2 MSTORE DUP2 EQ PUSH2 0x1659 JUMPI PUSH1 0x40 MLOAD PUSH3 0x461BCD PUSH1 0xE5 SHL DUP2 MSTORE PUSH1 0x20 PUSH1 0x4 DUP3 ADD MSTORE PUSH1 0x29 PUSH1 0x24 DUP3 ADD MSTORE PUSH32 0x45524331393637557067726164653A20756E737570706F727465642070726F78 PUSH1 0x44 DUP3 ADD MSTORE PUSH9 0x1A58589B1955555251 PUSH1 0xBA SHL PUSH1 0x64 DUP3 ADD MSTORE PUSH1 0x84 ADD PUSH2 0x654 JUMP JUMPDEST POP PUSH2 0x1519 DUP4 DUP4 DUP4 PUSH2 0x1839 JUMP JUMPDEST PUSH1 0x97 SLOAD PUSH1 0x1 PUSH1 0x1 PUSH1 0xA0 SHL SUB AND CALLER EQ PUSH2 0x93C JUMPI PUSH1 0x40 MLOAD PUSH3 0x461BCD PUSH1 0xE5 SHL DUP2 MSTORE PUSH1 0x20 PUSH1 0x4 DUP3 ADD DUP2 SWAP1 MSTORE PUSH1 0x24 DUP3 ADD MSTORE PUSH32 0x4F776E61626C653A2063616C6C6572206973206E6F7420746865206F776E6572 PUSH1 0x44 DUP3 ADD MSTORE PUSH1 0x64 ADD PUSH2 0x654 JUMP JUMPDEST PUSH1 0x97 DUP1 SLOAD PUSH1 0x1 PUSH1 0x1 PUSH1 0xA0 SHL SUB DUP4 DUP2 AND PUSH1 0x1 PUSH1 0x1 PUSH1 0xA0 SHL SUB NOT DUP4 AND DUP2 OR SWAP1 SWAP4 SSTORE PUSH1 0x40 MLOAD SWAP2 AND SWAP2 SWAP1 DUP3 SWAP1 PUSH32 0x8BE0079C531659141344CD1FD0A4F28419497F9722A3DAAFE3B4186F6B6457E0 SWAP1 PUSH1 0x0 SWAP1 LOG3 POP POP JUMP JUMPDEST PUSH1 0x0 SLOAD PUSH2 0x100 SWAP1 DIV PUSH1 0xFF AND PUSH2 0x1738 JUMPI PUSH1 0x40 MLOAD PUSH3 0x461BCD PUSH1 0xE5 SHL DUP2 MSTORE PUSH1 0x4 ADD PUSH2 0x654 SWAP1 PUSH2 0x1E63 JUMP JUMPDEST PUSH2 0x93C PUSH2 0x1864 JUMP JUMPDEST PUSH1 0x0 SLOAD PUSH2 0x100 SWAP1 DIV PUSH1 0xFF AND PUSH2 0x93C JUMPI PUSH1 0x40 MLOAD PUSH3 0x461BCD PUSH1 0xE5 SHL DUP2 MSTORE PUSH1 0x4 ADD PUSH2 0x654 SWAP1 PUSH2 0x1E63 JUMP JUMPDEST PUSH1 0x40 DUP1 MLOAD DIFFICULTY PUSH1 0x20 DUP1 DUP4 ADD SWAP2 SWAP1 SWAP2 MSTORE TIMESTAMP DUP3 DUP5 ADD MSTORE PUSH1 0x60 DUP1 DUP4 ADD SWAP5 SWAP1 SWAP5 MSTORE DUP3 MLOAD DUP1 DUP4 SUB SWAP1 SWAP5 ADD DUP5 MSTORE PUSH1 0x80 SWAP1 SWAP2 ADD SWAP1 SWAP2 MSTORE DUP2 MLOAD SWAP2 ADD KECCAK256 SWAP1 JUMP JUMPDEST PUSH1 0x1 PUSH1 0x1 PUSH1 0xA0 SHL SUB DUP2 AND EXTCODESIZE PUSH2 0x180A JUMPI PUSH1 0x40 MLOAD PUSH3 0x461BCD PUSH1 0xE5 SHL DUP2 MSTORE PUSH1 0x20 PUSH1 0x4 DUP3 ADD MSTORE PUSH1 0x2D PUSH1 0x24 DUP3 ADD MSTORE PUSH32 0x455243313936373A206E657720696D706C656D656E746174696F6E206973206E PUSH1 0x44 DUP3 ADD MSTORE PUSH13 0x1BDD08184818DBDB9D1C9858DD PUSH1 0x9A SHL PUSH1 0x64 DUP3 ADD MSTORE PUSH1 0x84 ADD PUSH2 0x654 JUMP JUMPDEST PUSH1 0x0 DUP1 MLOAD PUSH1 0x20 PUSH2 0x1EDE DUP4 CODECOPY DUP2 MLOAD SWAP2 MSTORE DUP1 SLOAD PUSH1 0x1 PUSH1 0x1 PUSH1 0xA0 SHL SUB NOT AND PUSH1 0x1 PUSH1 0x1 PUSH1 0xA0 SHL SUB SWAP3 SWAP1 SWAP3 AND SWAP2 SWAP1 SWAP2 OR SWAP1 SSTORE JUMP JUMPDEST PUSH2 0x1842 DUP4 PUSH2 0x1894 JUMP JUMPDEST PUSH1 0x0 DUP3 MLOAD GT DUP1 PUSH2 0x184F JUMPI POP DUP1 JUMPDEST ISZERO PUSH2 0x1519 JUMPI PUSH2 0x185E DUP4 DUP4 PUSH2 0x18D4 JUMP JUMPDEST POP POP POP POP JUMP JUMPDEST PUSH1 0x0 SLOAD PUSH2 0x100 SWAP1 DIV PUSH1 0xFF AND PUSH2 0x188B JUMPI PUSH1 0x40 MLOAD PUSH3 0x461BCD PUSH1 0xE5 SHL DUP2 MSTORE PUSH1 0x4 ADD PUSH2 0x654 SWAP1 PUSH2 0x1E63 JUMP JUMPDEST PUSH2 0x93C CALLER PUSH2 0x16BF JUMP JUMPDEST PUSH2 0x189D DUP2 PUSH2 0x179D JUMP JUMPDEST PUSH1 0x40 MLOAD PUSH1 0x1 PUSH1 0x1 PUSH1 0xA0 SHL SUB DUP3 AND SWAP1 PUSH32 0xBC7CD75A20EE27FD9ADEBAB32041F755214DBC6BFFA90CC0225B39DA2E5C2D3B SWAP1 PUSH1 0x0 SWAP1 LOG2 POP JUMP JUMPDEST PUSH1 0x60 PUSH1 0x1 PUSH1 0x1 PUSH1 0xA0 SHL SUB DUP4 AND EXTCODESIZE PUSH2 0x193C JUMPI PUSH1 0x40 MLOAD PUSH3 0x461BCD PUSH1 0xE5 SHL DUP2 MSTORE PUSH1 0x20 PUSH1 0x4 DUP3 ADD MSTORE PUSH1 0x26 PUSH1 0x24 DUP3 ADD MSTORE PUSH32 0x416464726573733A2064656C65676174652063616C6C20746F206E6F6E2D636F PUSH1 0x44 DUP3 ADD MSTORE PUSH6 0x1B9D1C9858DD PUSH1 0xD2 SHL PUSH1 0x64 DUP3 ADD MSTORE PUSH1 0x84 ADD PUSH2 0x654 JUMP JUMPDEST PUSH1 0x0 DUP1 DUP5 PUSH1 0x1 PUSH1 0x1 PUSH1 0xA0 SHL SUB AND DUP5 PUSH1 0x40 MLOAD PUSH2 0x1957 SWAP2 SWAP1 PUSH2 0x1EAE JUMP JUMPDEST PUSH1 0x0 PUSH1 0x40 MLOAD DUP1 DUP4 SUB DUP2 DUP6 GAS DELEGATECALL SWAP2 POP POP RETURNDATASIZE DUP1 PUSH1 0x0 DUP2 EQ PUSH2 0x1992 JUMPI PUSH1 0x40 MLOAD SWAP2 POP PUSH1 0x1F NOT PUSH1 0x3F RETURNDATASIZE ADD AND DUP3 ADD PUSH1 0x40 MSTORE RETURNDATASIZE DUP3 MSTORE RETURNDATASIZE PUSH1 0x0 PUSH1 0x20 DUP5 ADD RETURNDATACOPY PUSH2 0x1997 JUMP JUMPDEST PUSH1 0x60 SWAP2 POP JUMPDEST POP SWAP2 POP SWAP2 POP PUSH2 0x19BF DUP3 DUP3 PUSH1 0x40 MLOAD DUP1 PUSH1 0x60 ADD PUSH1 0x40 MSTORE DUP1 PUSH1 0x27 DUP2 MSTORE PUSH1 0x20 ADD PUSH2 0x1EFE PUSH1 0x27 SWAP2 CODECOPY PUSH2 0x19C8 JUMP JUMPDEST SWAP6 SWAP5 POP POP POP POP POP JUMP JUMPDEST PUSH1 0x60 DUP4 ISZERO PUSH2 0x19D7 JUMPI POP DUP2 PUSH2 0x19E1 JUMP JUMPDEST PUSH2 0x19E1 DUP4 DUP4 PUSH2 0x19E8 JUMP JUMPDEST SWAP4 SWAP3 POP POP POP JUMP JUMPDEST DUP2 MLOAD ISZERO PUSH2 0x19F8 JUMPI DUP2 MLOAD DUP1 DUP4 PUSH1 0x20 ADD REVERT JUMPDEST DUP1 PUSH1 0x40 MLOAD PUSH3 0x461BCD PUSH1 0xE5 SHL DUP2 MSTORE PUSH1 0x4 ADD PUSH2 0x654 SWAP2 SWAP1 PUSH2 0x1ECA JUMP JUMPDEST PUSH1 0x0 PUSH1 0x20 DUP3 DUP5 SUB SLT ISZERO PUSH2 0x1A24 JUMPI PUSH1 0x0 DUP1 REVERT JUMPDEST POP CALLDATALOAD SWAP2 SWAP1 POP JUMP JUMPDEST PUSH1 0x0 JUMPDEST DUP4 DUP2 LT ISZERO PUSH2 0x1A46 JUMPI DUP2 DUP2 ADD MLOAD DUP4 DUP3 ADD MSTORE PUSH1 0x20 ADD PUSH2 0x1A2E JUMP JUMPDEST DUP4 DUP2 GT ISZERO PUSH2 0x185E JUMPI POP POP PUSH1 0x0 SWAP2 ADD MSTORE JUMP JUMPDEST PUSH1 0x0 DUP2 MLOAD DUP1 DUP5 MSTORE PUSH2 0x1A6F DUP2 PUSH1 0x20 DUP7 ADD PUSH1 0x20 DUP7 ADD PUSH2 0x1A2B JUMP JUMPDEST PUSH1 0x1F ADD PUSH1 0x1F NOT AND SWAP3 SWAP1 SWAP3 ADD PUSH1 0x20 ADD SWAP3 SWAP2 POP POP JUMP JUMPDEST DUP6 DUP2 MSTORE PUSH1 0xA0 PUSH1 0x20 DUP3 ADD MSTORE PUSH1 0x0 PUSH2 0x1A9C PUSH1 0xA0 DUP4 ADD DUP8 PUSH2 0x1A57 JUMP JUMPDEST PUSH1 0x40 DUP4 ADD SWAP6 SWAP1 SWAP6 MSTORE POP PUSH1 0x60 DUP2 ADD SWAP3 SWAP1 SWAP3 MSTORE PUSH1 0x80 SWAP1 SWAP2 ADD MSTORE SWAP3 SWAP2 POP POP JUMP JUMPDEST DUP1 CALLDATALOAD PUSH1 0x1 PUSH1 0x1 PUSH1 0xA0 SHL SUB DUP2 AND DUP2 EQ PUSH2 0x1AD0 JUMPI PUSH1 0x0 DUP1 REVERT JUMPDEST SWAP2 SWAP1 POP JUMP JUMPDEST PUSH1 0x0 PUSH1 0x20 DUP3 DUP5 SUB SLT ISZERO PUSH2 0x1AE7 JUMPI PUSH1 0x0 DUP1 REVERT JUMPDEST PUSH2 0x19E1 DUP3 PUSH2 0x1AB9 JUMP JUMPDEST DUP6 DUP2 MSTORE PUSH1 0x1 PUSH1 0x1 PUSH1 0xA0 SHL SUB DUP6 AND PUSH1 0x20 DUP3 ADD MSTORE PUSH1 0xA0 PUSH1 0x40 DUP3 ADD DUP2 SWAP1 MSTORE PUSH1 0x0 SWAP1 PUSH2 0x1B1A SWAP1 DUP4 ADD DUP7 PUSH2 0x1A57 JUMP JUMPDEST DUP3 DUP2 SUB PUSH1 0x60 DUP5 ADD MSTORE PUSH2 0x1B2C DUP2 DUP7 PUSH2 0x1A57 JUMP JUMPDEST SWAP2 POP POP DUP3 ISZERO ISZERO PUSH1 0x80 DUP4 ADD MSTORE SWAP7 SWAP6 POP POP POP POP POP POP JUMP JUMPDEST PUSH4 0x4E487B71 PUSH1 0xE0 SHL PUSH1 0x0 MSTORE PUSH1 0x41 PUSH1 0x4 MSTORE PUSH1 0x24 PUSH1 0x0 REVERT JUMPDEST PUSH1 0x0 DUP1 PUSH1 0x40 DUP4 DUP6 SUB SLT ISZERO PUSH2 0x1B6A JUMPI PUSH1 0x0 DUP1 REVERT JUMPDEST PUSH2 0x1B73 DUP4 PUSH2 0x1AB9 JUMP JUMPDEST SWAP2 POP PUSH1 0x20 DUP4 ADD CALLDATALOAD PUSH8 0xFFFFFFFFFFFFFFFF DUP1 DUP3 GT ISZERO PUSH2 0x1B90 JUMPI PUSH1 0x0 DUP1 REVERT JUMPDEST DUP2 DUP6 ADD SWAP2 POP DUP6 PUSH1 0x1F DUP4 ADD SLT PUSH2 0x1BA4 JUMPI PUSH1 0x0 DUP1 REVERT JUMPDEST DUP2 CALLDATALOAD DUP2 DUP2 GT ISZERO PUSH2 0x1BB6 JUMPI PUSH2 0x1BB6 PUSH2 0x1B41 JUMP JUMPDEST PUSH1 0x40 MLOAD PUSH1 0x1F DUP3 ADD PUSH1 0x1F NOT SWAP1 DUP2 AND PUSH1 0x3F ADD AND DUP2 ADD SWAP1 DUP4 DUP3 GT DUP2 DUP4 LT OR ISZERO PUSH2 0x1BDE JUMPI PUSH2 0x1BDE PUSH2 0x1B41 JUMP JUMPDEST DUP2 PUSH1 0x40 MSTORE DUP3 DUP2 MSTORE DUP9 PUSH1 0x20 DUP5 DUP8 ADD ADD GT ISZERO PUSH2 0x1BF7 JUMPI PUSH1 0x0 DUP1 REVERT JUMPDEST DUP3 PUSH1 0x20 DUP7 ADD PUSH1 0x20 DUP4 ADD CALLDATACOPY PUSH1 0x0 PUSH1 0x20 DUP5 DUP4 ADD ADD MSTORE DUP1 SWAP6 POP POP POP POP POP POP SWAP3 POP SWAP3 SWAP1 POP JUMP JUMPDEST PUSH1 0x20 DUP1 DUP3 MSTORE DUP3 MLOAD DUP3 DUP3 ADD DUP2 SWAP1 MSTORE PUSH1 0x0 SWAP2 SWAP1 DUP5 DUP3 ADD SWAP1 PUSH1 0x40 DUP6 ADD SWAP1 DUP5 JUMPDEST DUP2 DUP2 LT ISZERO PUSH2 0x1C5A JUMPI DUP4 MLOAD PUSH1 0x1 PUSH1 0x1 PUSH1 0xA0 SHL SUB AND DUP4 MSTORE SWAP3 DUP5 ADD SWAP3 SWAP2 DUP5 ADD SWAP2 PUSH1 0x1 ADD PUSH2 0x1C35 JUMP JUMPDEST POP SWAP1 SWAP7 SWAP6 POP POP POP POP POP POP JUMP JUMPDEST PUSH1 0x0 DUP1 PUSH1 0x40 DUP4 DUP6 SUB SLT ISZERO PUSH2 0x1C79 JUMPI PUSH1 0x0 DUP1 REVERT JUMPDEST POP POP DUP1 CALLDATALOAD SWAP3 PUSH1 0x20 SWAP1 SWAP2 ADD CALLDATALOAD SWAP2 POP JUMP JUMPDEST PUSH1 0x1 DUP2 DUP2 SHR SWAP1 DUP3 AND DUP1 PUSH2 0x1C9C JUMPI PUSH1 0x7F DUP3 AND SWAP2 POP JUMPDEST PUSH1 0x20 DUP3 LT DUP2 EQ ISZERO PUSH2 0xCBF JUMPI PUSH4 0x4E487B71 PUSH1 0xE0 SHL PUSH1 0x0 MSTORE PUSH1 0x22 PUSH1 0x4 MSTORE PUSH1 0x24 PUSH1 0x0 REVERT JUMPDEST PUSH1 0x20 DUP1 DUP3 MSTORE PUSH1 0x2C SWAP1 DUP3 ADD MSTORE PUSH32 0x46756E6374696F6E206D7573742062652063616C6C6564207468726F75676820 PUSH1 0x40 DUP3 ADD MSTORE PUSH12 0x19195B1959D85D1958D85B1B PUSH1 0xA2 SHL PUSH1 0x60 DUP3 ADD MSTORE PUSH1 0x80 ADD SWAP1 JUMP JUMPDEST PUSH1 0x20 DUP1 DUP3 MSTORE PUSH1 0x2C SWAP1 DUP3 ADD MSTORE PUSH32 0x46756E6374696F6E206D7573742062652063616C6C6564207468726F75676820 PUSH1 0x40 DUP3 ADD MSTORE PUSH12 0x6163746976652070726F7879 PUSH1 0xA0 SHL PUSH1 0x60 DUP3 ADD MSTORE PUSH1 0x80 ADD SWAP1 JUMP JUMPDEST PUSH4 0x4E487B71 PUSH1 0xE0 SHL PUSH1 0x0 MSTORE PUSH1 0x32 PUSH1 0x4 MSTORE PUSH1 0x24 PUSH1 0x0 REVERT JUMPDEST PUSH4 0x4E487B71 PUSH1 0xE0 SHL PUSH1 0x0 MSTORE PUSH1 0x12 PUSH1 0x4 MSTORE PUSH1 0x24 PUSH1 0x0 REVERT JUMPDEST PUSH4 0x4E487B71 PUSH1 0xE0 SHL PUSH1 0x0 MSTORE PUSH1 0x11 PUSH1 0x4 MSTORE PUSH1 0x24 PUSH1 0x0 REVERT JUMPDEST PUSH1 0x0 DUP3 PUSH2 0x1DA6 JUMPI PUSH2 0x1DA6 PUSH2 0x1D6B JUMP JUMPDEST POP DIV SWAP1 JUMP JUMPDEST PUSH1 0x0 DUP3 DUP3 LT ISZERO PUSH2 0x1DBD JUMPI PUSH2 0x1DBD PUSH2 0x1D81 JUMP JUMPDEST POP SUB SWAP1 JUMP JUMPDEST PUSH1 0x0 PUSH1 0x20 DUP3 DUP5 SUB SLT ISZERO PUSH2 0x1DD4 JUMPI PUSH1 0x0 DUP1 REVERT JUMPDEST DUP2 MLOAD DUP1 ISZERO ISZERO DUP2 EQ PUSH2 0x19E1 JUMPI PUSH1 0x0 DUP1 REVERT JUMPDEST PUSH1 0x0 PUSH1 0x0 NOT DUP3 EQ ISZERO PUSH2 0x1DF8 JUMPI PUSH2 0x1DF8 PUSH2 0x1D81 JUMP JUMPDEST POP PUSH1 0x1 ADD SWAP1 JUMP JUMPDEST PUSH1 0x0 DUP2 PUSH1 0x0 NOT DIV DUP4 GT DUP3 ISZERO ISZERO AND ISZERO PUSH2 0x1E19 JUMPI PUSH2 0x1E19 PUSH2 0x1D81 JUMP JUMPDEST POP MUL SWAP1 JUMP JUMPDEST PUSH1 0x0 DUP3 NOT DUP3 GT ISZERO PUSH2 0x1E31 JUMPI PUSH2 0x1E31 PUSH2 0x1D81 JUMP JUMPDEST POP ADD SWAP1 JUMP JUMPDEST PUSH1 0x0 DUP3 PUSH2 0x1E45 JUMPI PUSH2 0x1E45 PUSH2 0x1D6B JUMP JUMPDEST POP MOD SWAP1 JUMP JUMPDEST PUSH1 0x0 PUSH1 0x20 DUP3 DUP5 SUB SLT ISZERO PUSH2 0x1E5C JUMPI PUSH1 0x0 DUP1 REVERT JUMPDEST POP MLOAD SWAP2 SWAP1 POP JUMP JUMPDEST PUSH1 0x20 DUP1 DUP3 MSTORE PUSH1 0x2B SWAP1 DUP3 ADD MSTORE PUSH32 0x496E697469616C697A61626C653A20636F6E7472616374206973206E6F742069 PUSH1 0x40 DUP3 ADD MSTORE PUSH11 0x6E697469616C697A696E67 PUSH1 0xA8 SHL PUSH1 0x60 DUP3 ADD MSTORE PUSH1 0x80 ADD SWAP1 JUMP JUMPDEST PUSH1 0x0 DUP3 MLOAD PUSH2 0x1EC0 DUP2 DUP5 PUSH1 0x20 DUP8 ADD PUSH2 0x1A2B JUMP JUMPDEST SWAP2 SWAP1 SWAP2 ADD SWAP3 SWAP2 POP POP JUMP JUMPDEST PUSH1 0x20 DUP2 MSTORE PUSH1 0x0 PUSH2 0x19E1 PUSH1 0x20 DUP4 ADD DUP5 PUSH2 0x1A57 JUMP INVALID CALLDATASIZE ADDMOD SWAP5 LOG1 EXTCODESIZE LOG1 LOG3 0x21 MOD PUSH8 0xC828492DB98DCA3E KECCAK256 PUSH23 0xCC3735A920A3CA505D382BBC416464726573733A206C6F PUSH24 0x2D6C6576656C2064656C65676174652063616C6C20666169 PUSH13 0x6564A264697066735822122009 GAS 0xE6 SWAP14 0xAC SWAP7 0xCC 0xC6 POP PUSH6 0xDAD81D7C9C96 0xED SELFDESTRUCT PUSH7 0x267F77E4F12AA8 0xA8 RETURNDATASIZE PUSH26 0xBEBF864736F6C63430008090033000000000000000000000000 "},"methodIdentifiers":{"admin()":"f851a440","announceLotteryResult(uint256)":"f981ac3b","getLotteryParticipants(uint256)":"68fb2eba","getLotteryParticipantsLength(uint256)":"d959b706","initialize(address)":"c4d66de8","lotteries(uint256)":"1398e076","lotteryAmountArray(uint256)":"ff72413f","lotteryParticipants(uint256,uint256)":"f00c2656","lotteryWinners(uint256)":"d7a1a5b9","owner()":"8da5cb5b","participateLottery(uint256)":"85fd39ae","proxiableUUID()":"52d1902d","renounceOwnership()":"715018a6","transferOwnership(address)":"f2fde38b","upgradeTo(address)":"3659cfe6","upgradeToAndCall(address,bytes)":"4f1ef286","userList(address)":"1b4e7bd2","users(uint256)":"365b98b2"}},"storageLayout":{"storage":[{"astId":527,"contract":"contracts/lotteryContract.sol:LotteryContract","label":"_initialized","offset":0,"slot":"0","type":"t_uint8"},{"astId":530,"contract":"contracts/lotteryContract.sol:LotteryContract","label":"_initializing","offset":1,"slot":"0","type":"t_bool"},{"astId":509,"contract":"contracts/lotteryContract.sol:LotteryContract","label":"__gap","offset":0,"slot":"1","type":"t_array(t_uint256)50_storage"},{"astId":824,"contract":"contracts/lotteryContract.sol:LotteryContract","label":"__gap","offset":0,"slot":"51","type":"t_array(t_uint256)50_storage"},{"astId":1865,"contract":"contracts/lotteryContract.sol:LotteryContract","label":"__gap","offset":0,"slot":"101","type":"t_array(t_uint256)50_storage"},{"astId":10,"contract":"contracts/lotteryContract.sol:LotteryContract","label":"_owner","offset":0,"slot":"151","type":"t_address"},{"astId":130,"contract":"contracts/lotteryContract.sol:LotteryContract","label":"__gap","offset":0,"slot":"152","type":"t_array(t_uint256)49_storage"},{"astId":2795,"contract":"contracts/lotteryContract.sol:LotteryContract","label":"_token","offset":0,"slot":"201","type":"t_contract(IERC20Upgradeable)1515"},{"astId":2799,"contract":"contracts/lotteryContract.sol:LotteryContract","label":"users","offset":0,"slot":"202","type":"t_array(t_struct(User)2767_storage)dyn_storage"},{"astId":2803,"contract":"contracts/lotteryContract.sol:LotteryContract","label":"lotteries","offset":0,"slot":"203","type":"t_array(t_struct(Lottery)2785_storage)dyn_storage"},{"astId":2806,"contract":"contracts/lotteryContract.sol:LotteryContract","label":"lotteryAmountArray","offset":0,"slot":"204","type":"t_array(t_uint256)dyn_storage"},{"astId":2808,"contract":"contracts/lotteryContract.sol:LotteryContract","label":"admin","offset":0,"slot":"205","type":"t_address"},{"astId":2813,"contract":"contracts/lotteryContract.sol:LotteryContract","label":"userList","offset":0,"slot":"206","type":"t_mapping(t_address,t_struct(User)2767_storage)"},{"astId":2818,"contract":"contracts/lotteryContract.sol:LotteryContract","label":"lotteryParticipants","offset":0,"slot":"207","type":"t_mapping(t_uint256,t_array(t_address)dyn_storage)"},{"astId":2823,"contract":"contracts/lotteryContract.sol:LotteryContract","label":"lotteryWinners","offset":0,"slot":"208","type":"t_mapping(t_uint256,t_struct(lotteryWinner)2774_storage)"}],"types":{"t_address":{"encoding":"inplace","label":"address","numberOfBytes":"20"},"t_array(t_address)dyn_storage":{"base":"t_address","encoding":"dynamic_array","label":"address[]","numberOfBytes":"32"},"t_array(t_struct(Lottery)2785_storage)dyn_storage":{"base":"t_struct(Lottery)2785_storage","encoding":"dynamic_array","label":"struct LotteryContract.Lottery[]","numberOfBytes":"32"},"t_array(t_struct(User)2767_storage)dyn_storage":{"base":"t_struct(User)2767_storage","encoding":"dynamic_array","label":"struct LotteryContract.User[]","numberOfBytes":"32"},"t_array(t_uint256)49_storage":{"base":"t_uint256","encoding":"inplace","label":"uint256[49]","numberOfBytes":"1568"},"t_array(t_uint256)50_storage":{"base":"t_uint256","encoding":"inplace","label":"uint256[50]","numberOfBytes":"1600"},"t_array(t_uint256)dyn_storage":{"base":"t_uint256","encoding":"dynamic_array","label":"uint256[]","numberOfBytes":"32"},"t_bool":{"encoding":"inplace","label":"bool","numberOfBytes":"1"},"t_contract(IERC20Upgradeable)1515":{"encoding":"inplace","label":"contract IERC20Upgradeable","numberOfBytes":"20"},"t_mapping(t_address,t_struct(User)2767_storage)":{"encoding":"mapping","key":"t_address","label":"mapping(address => struct LotteryContract.User)","numberOfBytes":"32","value":"t_struct(User)2767_storage"},"t_mapping(t_uint256,t_array(t_address)dyn_storage)":{"encoding":"mapping","key":"t_uint256","label":"mapping(uint256 => address[])","numberOfBytes":"32","value":"t_array(t_address)dyn_storage"},"t_mapping(t_uint256,t_struct(lotteryWinner)2774_storage)":{"encoding":"mapping","key":"t_uint256","label":"mapping(uint256 => struct LotteryContract.lotteryWinner)","numberOfBytes":"32","value":"t_struct(lotteryWinner)2774_storage"},"t_string_storage":{"encoding":"bytes","label":"string","numberOfBytes":"32"},"t_struct(Lottery)2785_storage":{"encoding":"inplace","label":"struct LotteryContract.Lottery","members":[{"astId":2776,"contract":"contracts/lotteryContract.sol:LotteryContract","label":"lotteryId","offset":0,"slot":"0","type":"t_uint256"},{"astId":2778,"contract":"contracts/lotteryContract.sol:LotteryContract","label":"lotteryName","offset":0,"slot":"1","type":"t_string_storage"},{"astId":2780,"contract":"contracts/lotteryContract.sol:LotteryContract","label":"amount","offset":0,"slot":"2","type":"t_uint256"},{"astId":2782,"contract":"contracts/lotteryContract.sol:LotteryContract","label":"statusCode","offset":0,"slot":"3","type":"t_uint256"},{"astId":2784,"contract":"contracts/lotteryContract.sol:LotteryContract","label":"date","offset":0,"slot":"4","type":"t_uint256"}],"numberOfBytes":"160"},"t_struct(User)2767_storage":{"encoding":"inplace","label":"struct LotteryContract.User","members":[{"astId":2758,"contract":"contracts/lotteryContract.sol:LotteryContract","label":"id","offset":0,"slot":"0","type":"t_uint256"},{"astId":2760,"contract":"contracts/lotteryContract.sol:LotteryContract","label":"walletAddress","offset":0,"slot":"1","type":"t_address"},{"astId":2762,"contract":"contracts/lotteryContract.sol:LotteryContract","label":"name","offset":0,"slot":"2","type":"t_string_storage"},{"astId":2764,"contract":"contracts/lotteryContract.sol:LotteryContract","label":"email","offset":0,"slot":"3","type":"t_string_storage"},{"astId":2766,"contract":"contracts/lotteryContract.sol:LotteryContract","label":"disabled","offset":0,"slot":"4","type":"t_bool"}],"numberOfBytes":"160"},"t_struct(lotteryWinner)2774_storage":{"encoding":"inplace","label":"struct LotteryContract.lotteryWinner","members":[{"astId":2769,"contract":"contracts/lotteryContract.sol:LotteryContract","label":"first","offset":0,"slot":"0","type":"t_address"},{"astId":2771,"contract":"contracts/lotteryContract.sol:LotteryContract","label":"second","offset":0,"slot":"1","type":"t_address"},{"astId":2773,"contract":"contracts/lotteryContract.sol:LotteryContract","label":"third","offset":0,"slot":"2","type":"t_address"}],"numberOfBytes":"96"},"t_uint256":{"encoding":"inplace","label":"uint256","numberOfBytes":"32"},"t_uint8":{"encoding":"inplace","label":"uint8","numberOfBytes":"1"}}}}}}