{
  "_format": "hh-sol-artifact-1",
  "contractName": "MsysERC20",
  "sourceName": "contracts/MSCN.sol",
  "abi": [
    {
      "anonymous": false,
      "inputs": [
        {
          "indexed": false,
          "internalType": "address",
          "name": "previousAdmin",
          "type": "address"
        },
        {
          "indexed": false,
          "internalType": "address",
          "name": "newAdmin",
          "type": "address"
        }
      ],
      "name": "AdminChanged",
      "type": "event"
    },
    {
      "anonymous": false,
      "inputs": [
        {
          "indexed": true,
          "internalType": "address",
          "name": "owner",
          "type": "address"
        },
        {
          "indexed": true,
          "internalType": "address",
          "name": "spender",
          "type": "address"
        },
        {
          "indexed": false,
          "internalType": "uint256",
          "name": "value",
          "type": "uint256"
        }
      ],
      "name": "Approval",
      "type": "event"
    },
    {
      "anonymous": false,
      "inputs": [
        {
          "indexed": true,
          "internalType": "address",
          "name": "beacon",
          "type": "address"
        }
      ],
      "name": "BeaconUpgraded",
      "type": "event"
    },
    {
      "anonymous": false,
      "inputs": [
        {
          "indexed": false,
          "internalType": "uint8",
          "name": "version",
          "type": "uint8"
        }
      ],
      "name": "Initialized",
      "type": "event"
    },
    {
      "anonymous": false,
      "inputs": [
        {
          "indexed": true,
          "internalType": "address",
          "name": "previousOwner",
          "type": "address"
        },
        {
          "indexed": true,
          "internalType": "address",
          "name": "newOwner",
          "type": "address"
        }
      ],
      "name": "OwnershipTransferred",
      "type": "event"
    },
    {
      "anonymous": false,
      "inputs": [
        {
          "indexed": true,
          "internalType": "address",
          "name": "from",
          "type": "address"
        },
        {
          "indexed": true,
          "internalType": "address",
          "name": "to",
          "type": "address"
        },
        {
          "indexed": false,
          "internalType": "uint256",
          "name": "value",
          "type": "uint256"
        }
      ],
      "name": "Transfer",
      "type": "event"
    },
    {
      "anonymous": false,
      "inputs": [
        {
          "indexed": true,
          "internalType": "address",
          "name": "implementation",
          "type": "address"
        }
      ],
      "name": "Upgraded",
      "type": "event"
    },
    {
      "anonymous": false,
      "inputs": [
        {
          "indexed": false,
          "internalType": "string",
          "name": "message",
          "type": "string"
        },
        {
          "indexed": false,
          "internalType": "address",
          "name": "account",
          "type": "address"
        },
        {
          "indexed": false,
          "internalType": "address",
          "name": "admin",
          "type": "address"
        }
      ],
      "name": "log",
      "type": "event"
    },
    {
      "inputs": [
        {
          "internalType": "address",
          "name": "account",
          "type": "address"
        },
        {
          "internalType": "uint256",
          "name": "amount",
          "type": "uint256"
        }
      ],
      "name": "_burnEx",
      "outputs": [],
      "stateMutability": "nonpayable",
      "type": "function"
    },
    {
      "inputs": [
        {
          "internalType": "address",
          "name": "userAccount",
          "type": "address"
        },
        {
          "internalType": "uint256",
          "name": "amount",
          "type": "uint256"
        },
        {
          "internalType": "address",
          "name": "caller",
          "type": "address"
        }
      ],
      "name": "_mintEx",
      "outputs": [],
      "stateMutability": "nonpayable",
      "type": "function"
    },
    {
      "inputs": [
        {
          "internalType": "address",
          "name": "from",
          "type": "address"
        },
        {
          "internalType": "address",
          "name": "to",
          "type": "address"
        },
        {
          "internalType": "uint256",
          "name": "amount",
          "type": "uint256"
        }
      ],
      "name": "_transferEx",
      "outputs": [],
      "stateMutability": "nonpayable",
      "type": "function"
    },
    {
      "inputs": [],
      "name": "admin",
      "outputs": [
        {
          "internalType": "address",
          "name": "",
          "type": "address"
        }
      ],
      "stateMutability": "view",
      "type": "function"
    },
    {
      "inputs": [
        {
          "internalType": "address",
          "name": "owner",
          "type": "address"
        },
        {
          "internalType": "address",
          "name": "spender",
          "type": "address"
        }
      ],
      "name": "allowance",
      "outputs": [
        {
          "internalType": "uint256",
          "name": "",
          "type": "uint256"
        }
      ],
      "stateMutability": "view",
      "type": "function"
    },
    {
      "inputs": [
        {
          "internalType": "address",
          "name": "spender",
          "type": "address"
        },
        {
          "internalType": "uint256",
          "name": "amount",
          "type": "uint256"
        }
      ],
      "name": "approve",
      "outputs": [
        {
          "internalType": "bool",
          "name": "",
          "type": "bool"
        }
      ],
      "stateMutability": "nonpayable",
      "type": "function"
    },
    {
      "inputs": [
        {
          "internalType": "address",
          "name": "account",
          "type": "address"
        }
      ],
      "name": "balanceOf",
      "outputs": [
        {
          "internalType": "uint256",
          "name": "",
          "type": "uint256"
        }
      ],
      "stateMutability": "view",
      "type": "function"
    },
    {
      "inputs": [],
      "name": "decimals",
      "outputs": [
        {
          "internalType": "uint8",
          "name": "",
          "type": "uint8"
        }
      ],
      "stateMutability": "pure",
      "type": "function"
    },
    {
      "inputs": [
        {
          "internalType": "address",
          "name": "spender",
          "type": "address"
        },
        {
          "internalType": "uint256",
          "name": "subtractedValue",
          "type": "uint256"
        }
      ],
      "name": "decreaseAllowance",
      "outputs": [
        {
          "internalType": "bool",
          "name": "",
          "type": "bool"
        }
      ],
      "stateMutability": "nonpayable",
      "type": "function"
    },
    {
      "inputs": [],
      "name": "getBalanceOfSM",
      "outputs": [
        {
          "internalType": "uint256",
          "name": "",
          "type": "uint256"
        }
      ],
      "stateMutability": "view",
      "type": "function"
    },
    {
      "inputs": [
        {
          "internalType": "address",
          "name": "spender",
          "type": "address"
        },
        {
          "internalType": "uint256",
          "name": "addedValue",
          "type": "uint256"
        }
      ],
      "name": "increaseAllowance",
      "outputs": [
        {
          "internalType": "bool",
          "name": "",
          "type": "bool"
        }
      ],
      "stateMutability": "nonpayable",
      "type": "function"
    },
    {
      "inputs": [],
      "name": "initialize",
      "outputs": [],
      "stateMutability": "nonpayable",
      "type": "function"
    },
    {
      "inputs": [],
      "name": "name",
      "outputs": [
        {
          "internalType": "string",
          "name": "",
          "type": "string"
        }
      ],
      "stateMutability": "view",
      "type": "function"
    },
    {
      "inputs": [],
      "name": "owner",
      "outputs": [
        {
          "internalType": "address",
          "name": "",
          "type": "address"
        }
      ],
      "stateMutability": "view",
      "type": "function"
    },
    {
      "inputs": [],
      "name": "proxiableUUID",
      "outputs": [
        {
          "internalType": "bytes32",
          "name": "",
          "type": "bytes32"
        }
      ],
      "stateMutability": "view",
      "type": "function"
    },
    {
      "inputs": [],
      "name": "renounceOwnership",
      "outputs": [],
      "stateMutability": "nonpayable",
      "type": "function"
    },
    {
      "inputs": [],
      "name": "symbol",
      "outputs": [
        {
          "internalType": "string",
          "name": "",
          "type": "string"
        }
      ],
      "stateMutability": "view",
      "type": "function"
    },
    {
      "inputs": [],
      "name": "totalSupply",
      "outputs": [
        {
          "internalType": "uint256",
          "name": "",
          "type": "uint256"
        }
      ],
      "stateMutability": "view",
      "type": "function"
    },
    {
      "inputs": [
        {
          "internalType": "address",
          "name": "to",
          "type": "address"
        },
        {
          "internalType": "uint256",
          "name": "amount",
          "type": "uint256"
        }
      ],
      "name": "transfer",
      "outputs": [
        {
          "internalType": "bool",
          "name": "",
          "type": "bool"
        }
      ],
      "stateMutability": "nonpayable",
      "type": "function"
    },
    {
      "inputs": [
        {
          "internalType": "address",
          "name": "to",
          "type": "address"
        },
        {
          "internalType": "uint256",
          "name": "amount",
          "type": "uint256"
        }
      ],
      "name": "transferEx",
      "outputs": [],
      "stateMutability": "nonpayable",
      "type": "function"
    },
    {
      "inputs": [
        {
          "internalType": "address",
          "name": "from",
          "type": "address"
        },
        {
          "internalType": "address",
          "name": "to",
          "type": "address"
        },
        {
          "internalType": "uint256",
          "name": "amount",
          "type": "uint256"
        }
      ],
      "name": "transferFrom",
      "outputs": [
        {
          "internalType": "bool",
          "name": "",
          "type": "bool"
        }
      ],
      "stateMutability": "nonpayable",
      "type": "function"
    },
    {
      "inputs": [
        {
          "internalType": "address",
          "name": "newOwner",
          "type": "address"
        }
      ],
      "name": "transferOwnership",
      "outputs": [],
      "stateMutability": "nonpayable",
      "type": "function"
    },
    {
      "inputs": [
        {
          "internalType": "address",
          "name": "newImplementation",
          "type": "address"
        }
      ],
      "name": "upgradeTo",
      "outputs": [],
      "stateMutability": "nonpayable",
      "type": "function"
    },
    {
      "inputs": [
        {
          "internalType": "address",
          "name": "newImplementation",
          "type": "address"
        },
        {
          "internalType": "bytes",
          "name": "data",
          "type": "bytes"
        }
      ],
      "name": "upgradeToAndCall",
      "outputs": [],
      "stateMutability": "payable",
      "type": "function"
    }
  ],
  "bytecode": "0x60a06040523060805234801561001457600080fd5b50608051611c1461004c600039600081816105fe0152818161063e015281816107cf0152818161080f015261089e0152611c146000f3fe60806040526004361061014b5760003560e01c806370a08231116100b6578063a457c2d71161006f578063a457c2d714610397578063a9059cbb146103b7578063dd62ed3e146103d7578063e978fb73146103f7578063f2fde38b14610419578063f851a4401461043957600080fd5b806370a08231146102d0578063715018a6146103065780638129fc1c1461031b5780638da5cb5b1461033057806395d89b41146103625780639fe802f11461037757600080fd5b80633659cfe6116101085780633659cfe61461022857806339509351146102485780633dbc6585146102685780633f811646146102885780634f1ef286146102a857806352d1902d146102bb57600080fd5b806306fdde0314610150578063095ea7b31461017b578063152055fb146101ab57806318160ddd146101cd57806323b872dd146101ec578063313ce5671461020c575b600080fd5b34801561015c57600080fd5b50610165610459565b60405161017291906117e7565b60405180910390f35b34801561018757600080fd5b5061019b610196366004611836565b6104eb565b6040519015158152602001610172565b3480156101b757600080fd5b506101cb6101c6366004611860565b610503565b005b3480156101d957600080fd5b506035545b604051908152602001610172565b3480156101f857600080fd5b5061019b61020736600461189c565b6105cd565b34801561021857600080fd5b5060405160008152602001610172565b34801561023457600080fd5b506101cb6102433660046118d8565b6105f3565b34801561025457600080fd5b5061019b610263366004611836565b6106d3565b34801561027457600080fd5b506101cb610283366004611836565b6106f5565b34801561029457600080fd5b506101cb6102a336600461189c565b61075c565b6101cb6102b6366004611909565b6107c4565b3480156102c757600080fd5b506101de610891565b3480156102dc57600080fd5b506101de6102eb3660046118d8565b6001600160a01b031660009081526033602052604090205490565b34801561031257600080fd5b506101cb610944565b34801561032757600080fd5b506101cb610958565b34801561033c57600080fd5b5060c9546001600160a01b03165b6040516001600160a01b039091168152602001610172565b34801561036e57600080fd5b50610165610ad4565b34801561038357600080fd5b506101cb610392366004611836565b610ae3565b3480156103a357600080fd5b5061019b6103b2366004611836565b610b49565b3480156103c357600080fd5b5061019b6103d2366004611836565b610bcf565b3480156103e357600080fd5b506101de6103f23660046119cb565b610bdd565b34801561040357600080fd5b50306000908152603360205260409020546101de565b34801561042557600080fd5b506101cb6104343660046118d8565b610c08565b34801561044557600080fd5b5060fb5461034a906001600160a01b031681565b606060368054610468906119fe565b80601f0160208091040260200160405190810160405280929190818152602001828054610494906119fe565b80156104e15780601f106104b6576101008083540402835291602001916104e1565b820191906000526020600020905b8154815290600101906020018083116104c457829003601f168201915b5050505050905090565b6000336104f9818585610c7e565b5060019392505050565b60fb546040805160608082526010908201526f0caeccadce840dedc40bedad2dce88af60831b60808201523360208201526001600160a01b039092168282015251600080516020611b788339815191529181900360a00190a160fb546001600160a01b038281169116146105be5760405162461bcd60e51b815260206004820152601860248201527f6f6e6c79206f776e65722063616e2063616c6c2074686973000000000000000060448201526064015b60405180910390fd5b6105c88383610da2565b505050565b6000336105db858285610e63565b6105e6858585610edd565b60019150505b9392505050565b306001600160a01b037f000000000000000000000000000000000000000000000000000000000000000016141561063c5760405162461bcd60e51b81526004016105b590611a39565b7f00000000000000000000000000000000000000000000000000000000000000006001600160a01b0316610685600080516020611b98833981519152546001600160a01b031690565b6001600160a01b0316146106ab5760405162461bcd60e51b81526004016105b590611a85565b6106b481611088565b604080516000808252602082019092526106d091839190611090565b50565b6000336104f98185856106e68383610bdd565b6106f09190611ad1565b610c7e565b60fb546040805160608082526010908201526f0caeccadce840dedc40bec4eae4dc8af60831b60808201523360208201526001600160a01b039092168282015251600080516020611b788339815191529181900360a00190a1610758828261120a565b5050565b60fb54604080516060808252601490820152730caeccadce840dedc40bee8e4c2dce6cccae48af60631b60808201523360208201526001600160a01b039092168282015251600080516020611b788339815191529181900360a00190a16105c8838383610edd565b306001600160a01b037f000000000000000000000000000000000000000000000000000000000000000016141561080d5760405162461bcd60e51b81526004016105b590611a39565b7f00000000000000000000000000000000000000000000000000000000000000006001600160a01b0316610856600080516020611b98833981519152546001600160a01b031690565b6001600160a01b03161461087c5760405162461bcd60e51b81526004016105b590611a85565b61088582611088565b61075882826001611090565b6000306001600160a01b037f000000000000000000000000000000000000000000000000000000000000000016146109315760405162461bcd60e51b815260206004820152603860248201527f555550535570677261646561626c653a206d757374206e6f742062652063616c60448201527f6c6564207468726f7567682064656c656761746563616c6c000000000000000060648201526084016105b5565b50600080516020611b9883398151915290565b61094c61133e565b6109566000611398565b565b600054610100900460ff16158080156109785750600054600160ff909116105b806109925750303b158015610992575060005460ff166001145b6109f55760405162461bcd60e51b815260206004820152602e60248201527f496e697469616c697a61626c653a20636f6e747261637420697320616c72656160448201526d191e481a5b9a5d1a585b1a5e995960921b60648201526084016105b5565b6000805460ff191660011790558015610a18576000805461ff0019166101001790555b610a5e6040518060400160405280600881526020016726b9bcb9a1b7b4b760c11b8152506040518060400160405280600481526020016326a9a1a760e11b8152506113ea565b610a6a33612710610da2565b610a7261141b565b610a7a61144a565b60fb80546001600160a01b0319163317905580156106d0576000805461ff0019169055604051600181527f7f26b83ff96e1f2b6a682f133852f6798a09c465da95921460cefb38474024989060200160405180910390a150565b606060378054610468906119fe565b60fb54604080516060808252601390820152720caeccadce840dedc40e8e4c2dce6cccae48af606b1b60808201523360208201526001600160a01b039092168282015251600080516020611b788339815191529181900360a00190a16105c88282610bcf565b60003381610b578286610bdd565b905083811015610bb75760405162461bcd60e51b815260206004820152602560248201527f45524332303a2064656372656173656420616c6c6f77616e63652062656c6f77604482015264207a65726f60d81b60648201526084016105b5565b610bc48286868403610c7e565b506001949350505050565b6000336104f9818585610edd565b6001600160a01b03918216600090815260346020908152604080832093909416825291909152205490565b610c1061133e565b6001600160a01b038116610c755760405162461bcd60e51b815260206004820152602660248201527f4f776e61626c653a206e6577206f776e657220697320746865207a65726f206160448201526564647265737360d01b60648201526084016105b5565b6106d081611398565b6001600160a01b038316610ce05760405162461bcd60e51b8152602060048201526024808201527f45524332303a20617070726f76652066726f6d20746865207a65726f206164646044820152637265737360e01b60648201526084016105b5565b6001600160a01b038216610d415760405162461bcd60e51b815260206004820152602260248201527f45524332303a20617070726f766520746f20746865207a65726f206164647265604482015261737360f01b60648201526084016105b5565b6001600160a01b0383811660008181526034602090815260408083209487168084529482529182902085905590518481527f8c5be1e5ebec7d5bd14f71427d1e84f3dd0314c0f7b2291e5b200ac8c7c3b925910160405180910390a3505050565b6001600160a01b038216610df85760405162461bcd60e51b815260206004820152601f60248201527f45524332303a206d696e7420746f20746865207a65726f20616464726573730060448201526064016105b5565b8060356000828254610e0a9190611ad1565b90915550506001600160a01b0382166000818152603360209081526040808320805486019055518481527fddf252ad1be2c89b69c2b068fc378daa952ba7f163c4a11628f55a4df523b3ef910160405180910390a35050565b6000610e6f8484610bdd565b90506000198114610ed75781811015610eca5760405162461bcd60e51b815260206004820152601d60248201527f45524332303a20696e73756666696369656e7420616c6c6f77616e636500000060448201526064016105b5565b610ed78484848403610c7e565b50505050565b6001600160a01b038316610f415760405162461bcd60e51b815260206004820152602560248201527f45524332303a207472616e736665722066726f6d20746865207a65726f206164604482015264647265737360d81b60648201526084016105b5565b6001600160a01b038216610fa35760405162461bcd60e51b815260206004820152602360248201527f45524332303a207472616e7366657220746f20746865207a65726f206164647260448201526265737360e81b60648201526084016105b5565b6001600160a01b0383166000908152603360205260409020548181101561101b5760405162461bcd60e51b815260206004820152602660248201527f45524332303a207472616e7366657220616d6f756e7420657863656564732062604482015265616c616e636560d01b60648201526084016105b5565b6001600160a01b0380851660008181526033602052604080822086860390559286168082529083902080548601905591517fddf252ad1be2c89b69c2b068fc378daa952ba7f163c4a11628f55a4df523b3ef9061107b9086815260200190565b60405180910390a3610ed7565b6106d061133e565b7f4910fdfa16fed3260ed0e7147f7cc6da11a60208b5b9406d12a635614ffd91435460ff16156110c3576105c883611471565b826001600160a01b03166352d1902d6040518163ffffffff1660e01b815260040160206040518083038186803b1580156110fc57600080fd5b505afa92505050801561112c575060408051601f3d908101601f1916820190925261112991810190611af7565b60015b61118f5760405162461bcd60e51b815260206004820152602e60248201527f45524331393637557067726164653a206e657720696d706c656d656e7461746960448201526d6f6e206973206e6f74205555505360901b60648201526084016105b5565b600080516020611b9883398151915281146111fe5760405162461bcd60e51b815260206004820152602960248201527f45524331393637557067726164653a20756e737570706f727465642070726f786044820152681a58589b195555525160ba1b60648201526084016105b5565b506105c883838361150d565b6001600160a01b03821661126a5760405162461bcd60e51b815260206004820152602160248201527f45524332303a206275726e2066726f6d20746865207a65726f206164647265736044820152607360f81b60648201526084016105b5565b6001600160a01b038216600090815260336020526040902054818110156112de5760405162461bcd60e51b815260206004820152602260248201527f45524332303a206275726e20616d6f756e7420657863656564732062616c616e604482015261636560f01b60648201526084016105b5565b6001600160a01b03831660008181526033602090815260408083208686039055603580548790039055518581529192917fddf252ad1be2c89b69c2b068fc378daa952ba7f163c4a11628f55a4df523b3ef910160405180910390a3505050565b60c9546001600160a01b031633146109565760405162461bcd60e51b815260206004820181905260248201527f4f776e61626c653a2063616c6c6572206973206e6f7420746865206f776e657260448201526064016105b5565b60c980546001600160a01b038381166001600160a01b0319831681179093556040519116919082907f8be0079c531659141344cd1fd0a4f28419497f9722a3daafe3b4186f6b6457e090600090a35050565b600054610100900460ff166114115760405162461bcd60e51b81526004016105b590611b10565b6107588282611532565b600054610100900460ff166114425760405162461bcd60e51b81526004016105b590611b10565b610956611580565b600054610100900460ff166109565760405162461bcd60e51b81526004016105b590611b10565b6001600160a01b0381163b6114de5760405162461bcd60e51b815260206004820152602d60248201527f455243313936373a206e657720696d706c656d656e746174696f6e206973206e60448201526c1bdd08184818dbdb9d1c9858dd609a1b60648201526084016105b5565b600080516020611b9883398151915280546001600160a01b0319166001600160a01b0392909216919091179055565b611516836115b0565b6000825111806115235750805b156105c857610ed783836115f0565b600054610100900460ff166115595760405162461bcd60e51b81526004016105b590611b10565b815161156c906036906020850190611722565b5080516105c8906037906020840190611722565b600054610100900460ff166115a75760405162461bcd60e51b81526004016105b590611b10565b61095633611398565b6115b981611471565b6040516001600160a01b038216907fbc7cd75a20ee27fd9adebab32041f755214dbc6bffa90cc0225b39da2e5c2d3b90600090a250565b60606001600160a01b0383163b6116585760405162461bcd60e51b815260206004820152602660248201527f416464726573733a2064656c65676174652063616c6c20746f206e6f6e2d636f6044820152651b9d1c9858dd60d21b60648201526084016105b5565b600080846001600160a01b0316846040516116739190611b5b565b600060405180830381855af49150503d80600081146116ae576040519150601f19603f3d011682016040523d82523d6000602084013e6116b3565b606091505b50915091506116db8282604051806060016040528060278152602001611bb8602791396116e4565b95945050505050565b606083156116f35750816105ec565b6105ec83838151156117085781518083602001fd5b8060405162461bcd60e51b81526004016105b591906117e7565b82805461172e906119fe565b90600052602060002090601f0160209004810192826117505760008555611796565b82601f1061176957805160ff1916838001178555611796565b82800160010185558215611796579182015b8281111561179657825182559160200191906001019061177b565b506117a29291506117a6565b5090565b5b808211156117a257600081556001016117a7565b60005b838110156117d65781810151838201526020016117be565b83811115610ed75750506000910152565b60208152600082518060208401526118068160408501602087016117bb565b601f01601f19169190910160400192915050565b80356001600160a01b038116811461183157600080fd5b919050565b6000806040838503121561184957600080fd5b6118528361181a565b946020939093013593505050565b60008060006060848603121561187557600080fd5b61187e8461181a565b9250602084013591506118936040850161181a565b90509250925092565b6000806000606084860312156118b157600080fd5b6118ba8461181a565b92506118c86020850161181a565b9150604084013590509250925092565b6000602082840312156118ea57600080fd5b6105ec8261181a565b634e487b7160e01b600052604160045260246000fd5b6000806040838503121561191c57600080fd5b6119258361181a565b9150602083013567ffffffffffffffff8082111561194257600080fd5b818501915085601f83011261195657600080fd5b813581811115611968576119686118f3565b604051601f8201601f19908116603f01168101908382118183101715611990576119906118f3565b816040528281528860208487010111156119a957600080fd5b8260208601602083013760006020848301015280955050505050509250929050565b600080604083850312156119de57600080fd5b6119e78361181a565b91506119f56020840161181a565b90509250929050565b600181811c90821680611a1257607f821691505b60208210811415611a3357634e487b7160e01b600052602260045260246000fd5b50919050565b6020808252602c908201527f46756e6374696f6e206d7573742062652063616c6c6564207468726f7567682060408201526b19195b1959d85d1958d85b1b60a21b606082015260800190565b6020808252602c908201527f46756e6374696f6e206d7573742062652063616c6c6564207468726f7567682060408201526b6163746976652070726f787960a01b606082015260800190565b60008219821115611af257634e487b7160e01b600052601160045260246000fd5b500190565b600060208284031215611b0957600080fd5b5051919050565b6020808252602b908201527f496e697469616c697a61626c653a20636f6e7472616374206973206e6f74206960408201526a6e697469616c697a696e6760a81b606082015260800190565b60008251611b6d8184602087016117bb565b919091019291505056fefcec75e0902c9d61eded5d9f2eed16d5b0f2cd255fe6fa77733f59e1063823e8360894a13ba1a3210667c828492db98dca3e2076cc3735a920a3ca505d382bbc416464726573733a206c6f772d6c6576656c2064656c65676174652063616c6c206661696c6564a26469706673582212207b0049c74b5f375d286af0705ab99105dd2893d983ce987ae753171dcd5cb1f064736f6c63430008090033",
  "linkReferences": {},
  "deployedLinkReferences": {}
}