{
  "_format": "hh-sol-artifact-1",
  "contractName": "LotteryContract",
  "sourceName": "contracts/lotteryContract.sol",
  "abi": [
    {
      "anonymous": false,
      "inputs": [
        {
          "indexed": false,
          "internalType": "address",
          "name": "previousAdmin",
          "type": "address"
        },
        {
          "indexed": false,
          "internalType": "address",
          "name": "newAdmin",
          "type": "address"
        }
      ],
      "name": "AdminChanged",
      "type": "event"
    },
    {
      "anonymous": false,
      "inputs": [
        {
          "indexed": true,
          "internalType": "address",
          "name": "beacon",
          "type": "address"
        }
      ],
      "name": "BeaconUpgraded",
      "type": "event"
    },
    {
      "anonymous": false,
      "inputs": [
        {
          "indexed": false,
          "internalType": "uint8",
          "name": "version",
          "type": "uint8"
        }
      ],
      "name": "Initialized",
      "type": "event"
    },
    {
      "anonymous": false,
      "inputs": [
        {
          "indexed": true,
          "internalType": "address",
          "name": "previousOwner",
          "type": "address"
        },
        {
          "indexed": true,
          "internalType": "address",
          "name": "newOwner",
          "type": "address"
        }
      ],
      "name": "OwnershipTransferred",
      "type": "event"
    },
    {
      "anonymous": false,
      "inputs": [
        {
          "indexed": true,
          "internalType": "address",
          "name": "implementation",
          "type": "address"
        }
      ],
      "name": "Upgraded",
      "type": "event"
    },
    {
      "anonymous": false,
      "inputs": [
        {
          "indexed": false,
          "internalType": "string",
          "name": "message",
          "type": "string"
        },
        {
          "indexed": false,
          "internalType": "address",
          "name": "account",
          "type": "address"
        },
        {
          "indexed": false,
          "internalType": "address",
          "name": "admin",
          "type": "address"
        }
      ],
      "name": "log",
      "type": "event"
    },
    {
      "inputs": [
        {
          "internalType": "string",
          "name": "lotteryName",
          "type": "string"
        },
        {
          "internalType": "uint256",
          "name": "amount",
          "type": "uint256"
        },
        {
          "internalType": "uint256",
          "name": "timeStamp",
          "type": "uint256"
        }
      ],
      "name": "addLottery",
      "outputs": [],
      "stateMutability": "nonpayable",
      "type": "function"
    },
    {
      "inputs": [
        {
          "internalType": "address",
          "name": "walletAddress",
          "type": "address"
        },
        {
          "internalType": "string",
          "name": "name",
          "type": "string"
        },
        {
          "internalType": "string",
          "name": "email",
          "type": "string"
        }
      ],
      "name": "addUser",
      "outputs": [],
      "stateMutability": "nonpayable",
      "type": "function"
    },
    {
      "inputs": [],
      "name": "admin",
      "outputs": [
        {
          "internalType": "address",
          "name": "",
          "type": "address"
        }
      ],
      "stateMutability": "view",
      "type": "function"
    },
    {
      "inputs": [
        {
          "internalType": "uint256",
          "name": "lotteryId",
          "type": "uint256"
        }
      ],
      "name": "announceLotteryResult",
      "outputs": [],
      "stateMutability": "nonpayable",
      "type": "function"
    },
    {
      "inputs": [
        {
          "internalType": "address",
          "name": "userAddress",
          "type": "address"
        }
      ],
      "name": "disableUser",
      "outputs": [],
      "stateMutability": "nonpayable",
      "type": "function"
    },
    {
      "inputs": [
        {
          "internalType": "address",
          "name": "userAddress",
          "type": "address"
        }
      ],
      "name": "enableUser",
      "outputs": [],
      "stateMutability": "nonpayable",
      "type": "function"
    },
    {
      "inputs": [],
      "name": "getAllLotteries",
      "outputs": [
        {
          "components": [
            {
              "internalType": "uint256",
              "name": "lotteryId",
              "type": "uint256"
            },
            {
              "internalType": "string",
              "name": "lotteryName",
              "type": "string"
            },
            {
              "internalType": "uint256",
              "name": "amount",
              "type": "uint256"
            },
            {
              "internalType": "uint256",
              "name": "statusCode",
              "type": "uint256"
            },
            {
              "internalType": "uint256",
              "name": "date",
              "type": "uint256"
            }
          ],
          "internalType": "struct LotteryContract.Lottery[]",
          "name": "",
          "type": "tuple[]"
        }
      ],
      "stateMutability": "view",
      "type": "function"
    },
    {
      "inputs": [],
      "name": "getLotteriesLength",
      "outputs": [
        {
          "internalType": "uint256",
          "name": "",
          "type": "uint256"
        }
      ],
      "stateMutability": "view",
      "type": "function"
    },
    {
      "inputs": [],
      "name": "getLotteryAmountArray",
      "outputs": [
        {
          "internalType": "uint256[]",
          "name": "array",
          "type": "uint256[]"
        }
      ],
      "stateMutability": "view",
      "type": "function"
    },
    {
      "inputs": [
        {
          "internalType": "uint256",
          "name": "lotteryId",
          "type": "uint256"
        }
      ],
      "name": "getLotteryParticipants",
      "outputs": [
        {
          "internalType": "address[]",
          "name": "",
          "type": "address[]"
        }
      ],
      "stateMutability": "view",
      "type": "function"
    },
    {
      "inputs": [
        {
          "internalType": "uint256",
          "name": "lotteryId",
          "type": "uint256"
        }
      ],
      "name": "getLotteryParticipantsLength",
      "outputs": [
        {
          "internalType": "uint256",
          "name": "",
          "type": "uint256"
        }
      ],
      "stateMutability": "view",
      "type": "function"
    },
    {
      "inputs": [],
      "name": "getUsersLength",
      "outputs": [
        {
          "internalType": "uint256",
          "name": "",
          "type": "uint256"
        }
      ],
      "stateMutability": "view",
      "type": "function"
    },
    {
      "inputs": [
        {
          "internalType": "address",
          "name": "token",
          "type": "address"
        }
      ],
      "name": "initialize",
      "outputs": [],
      "stateMutability": "nonpayable",
      "type": "function"
    },
    {
      "inputs": [
        {
          "internalType": "uint256",
          "name": "",
          "type": "uint256"
        }
      ],
      "name": "lotteries",
      "outputs": [
        {
          "internalType": "uint256",
          "name": "lotteryId",
          "type": "uint256"
        },
        {
          "internalType": "string",
          "name": "lotteryName",
          "type": "string"
        },
        {
          "internalType": "uint256",
          "name": "amount",
          "type": "uint256"
        },
        {
          "internalType": "uint256",
          "name": "statusCode",
          "type": "uint256"
        },
        {
          "internalType": "uint256",
          "name": "date",
          "type": "uint256"
        }
      ],
      "stateMutability": "view",
      "type": "function"
    },
    {
      "inputs": [
        {
          "internalType": "uint256",
          "name": "",
          "type": "uint256"
        }
      ],
      "name": "lotteryAmountArray",
      "outputs": [
        {
          "internalType": "uint256",
          "name": "",
          "type": "uint256"
        }
      ],
      "stateMutability": "view",
      "type": "function"
    },
    {
      "inputs": [
        {
          "internalType": "uint256",
          "name": "",
          "type": "uint256"
        },
        {
          "internalType": "uint256",
          "name": "",
          "type": "uint256"
        }
      ],
      "name": "lotteryParticipants",
      "outputs": [
        {
          "internalType": "address",
          "name": "",
          "type": "address"
        }
      ],
      "stateMutability": "view",
      "type": "function"
    },
    {
      "inputs": [
        {
          "internalType": "uint256",
          "name": "",
          "type": "uint256"
        }
      ],
      "name": "lotteryWinners",
      "outputs": [
        {
          "internalType": "address",
          "name": "first",
          "type": "address"
        },
        {
          "internalType": "address",
          "name": "second",
          "type": "address"
        },
        {
          "internalType": "address",
          "name": "third",
          "type": "address"
        }
      ],
      "stateMutability": "view",
      "type": "function"
    },
    {
      "inputs": [],
      "name": "owner",
      "outputs": [
        {
          "internalType": "address",
          "name": "",
          "type": "address"
        }
      ],
      "stateMutability": "view",
      "type": "function"
    },
    {
      "inputs": [
        {
          "internalType": "uint256",
          "name": "lotteryId",
          "type": "uint256"
        }
      ],
      "name": "participateLottery",
      "outputs": [
        {
          "internalType": "bool",
          "name": "success",
          "type": "bool"
        }
      ],
      "stateMutability": "nonpayable",
      "type": "function"
    },
    {
      "inputs": [],
      "name": "proxiableUUID",
      "outputs": [
        {
          "internalType": "bytes32",
          "name": "",
          "type": "bytes32"
        }
      ],
      "stateMutability": "view",
      "type": "function"
    },
    {
      "inputs": [],
      "name": "renounceOwnership",
      "outputs": [],
      "stateMutability": "nonpayable",
      "type": "function"
    },
    {
      "inputs": [
        {
          "internalType": "address",
          "name": "newOwner",
          "type": "address"
        }
      ],
      "name": "transferOwnership",
      "outputs": [],
      "stateMutability": "nonpayable",
      "type": "function"
    },
    {
      "inputs": [
        {
          "internalType": "uint256",
          "name": "lotteryId",
          "type": "uint256"
        },
        {
          "internalType": "uint256",
          "name": "statusCode",
          "type": "uint256"
        }
      ],
      "name": "updateLotteryStatus",
      "outputs": [],
      "stateMutability": "nonpayable",
      "type": "function"
    },
    {
      "inputs": [
        {
          "internalType": "address",
          "name": "newImplementation",
          "type": "address"
        }
      ],
      "name": "upgradeTo",
      "outputs": [],
      "stateMutability": "nonpayable",
      "type": "function"
    },
    {
      "inputs": [
        {
          "internalType": "address",
          "name": "newImplementation",
          "type": "address"
        },
        {
          "internalType": "bytes",
          "name": "data",
          "type": "bytes"
        }
      ],
      "name": "upgradeToAndCall",
      "outputs": [],
      "stateMutability": "payable",
      "type": "function"
    },
    {
      "inputs": [
        {
          "internalType": "address",
          "name": "",
          "type": "address"
        }
      ],
      "name": "userList",
      "outputs": [
        {
          "internalType": "uint256",
          "name": "id",
          "type": "uint256"
        },
        {
          "internalType": "address",
          "name": "walletAddress",
          "type": "address"
        },
        {
          "internalType": "string",
          "name": "name",
          "type": "string"
        },
        {
          "internalType": "string",
          "name": "email",
          "type": "string"
        },
        {
          "internalType": "bool",
          "name": "disabled",
          "type": "bool"
        }
      ],
      "stateMutability": "view",
      "type": "function"
    },
    {
      "inputs": [
        {
          "internalType": "uint256",
          "name": "",
          "type": "uint256"
        }
      ],
      "name": "users",
      "outputs": [
        {
          "internalType": "uint256",
          "name": "id",
          "type": "uint256"
        },
        {
          "internalType": "address",
          "name": "walletAddress",
          "type": "address"
        },
        {
          "internalType": "string",
          "name": "name",
          "type": "string"
        },
        {
          "internalType": "string",
          "name": "email",
          "type": "string"
        },
        {
          "internalType": "bool",
          "name": "disabled",
          "type": "bool"
        }
      ],
      "stateMutability": "view",
      "type": "function"
    }
  ],
  "bytecode": "0x60a06040523060805234801561001457600080fd5b50608051612a1b61004c600039600081816107b3015281816107fc015281816108e20152818161092201526109b50152612a1b6000f3fe60806040526004361061019c5760003560e01c8063c0e5f357116100ec578063ecf3f0af1161008a578063f2fde38b11610064578063f2fde38b14610512578063f851a44014610532578063f981ac3b14610552578063ff72413f1461057257600080fd5b8063ecf3f0af146104b2578063ee6649a1146104d2578063f00c2656146104f257600080fd5b8063d7a1a5b9116100c6578063d7a1a5b9146103d2578063d959b70614610445578063e588e6bc14610472578063e6b6f1381461049257600080fd5b8063c0e5f35714610370578063c4d66de814610392578063d7554a68146103b257600080fd5b806352d1902d11610159578063715018a611610133578063715018a6146102d757806385fd39ae146102ec5780638da5cb5b1461031c578063a5773a471461034e57600080fd5b806352d1902d14610280578063595b1a3e1461029557806368fb2eba146102aa57600080fd5b80631398e076146101a15780631b4e7bd2146101db57806331be23e41461020c5780633659cfe61461022b578063365b98b21461024d5780634f1ef2861461026d575b600080fd5b3480156101ad57600080fd5b506101c16101bc366004612330565b610592565b6040516101d29594939291906123a1565b60405180910390f35b3480156101e757600080fd5b506101fb6101f63660046123f3565b61065c565b6040516101d295949392919061240e565b34801561021857600080fd5b5060cb545b6040519081526020016101d2565b34801561023757600080fd5b5061024b6102463660046123f3565b6107a8565b005b34801561025957600080fd5b506101fb610268366004612330565b610891565b61024b61027b3660046124eb565b6108d7565b34801561028c57600080fd5b5061021d6109a8565b3480156102a157600080fd5b5060ca5461021d565b3480156102b657600080fd5b506102ca6102c5366004612330565b610a5b565b6040516101d2919061254d565b3480156102e357600080fd5b5061024b610ac7565b3480156102f857600080fd5b5061030c610307366004612330565b610adb565b60405190151581526020016101d2565b34801561032857600080fd5b506097546001600160a01b03165b6040516001600160a01b0390911681526020016101d2565b34801561035a57600080fd5b50610363610e20565b6040516101d2919061259a565b34801561037c57600080fd5b50610385610f39565b6040516101d2919061262f565b34801561039e57600080fd5b5061024b6103ad3660046123f3565b610f91565b3480156103be57600080fd5b5061024b6103cd366004612687565b6110d3565b3480156103de57600080fd5b5061041b6103ed366004612330565b60d0602052600090815260409020805460018201546002909201546001600160a01b03918216928216911683565b604080516001600160a01b03948516815292841660208401529216918101919091526060016101d2565b34801561045157600080fd5b5061021d610460366004612330565b600090815260cf602052604090205490565b34801561047e57600080fd5b5061024b61048d3660046123f3565b61143c565b34801561049e57600080fd5b5061024b6104ad3660046126fb565b6114b6565b3480156104be57600080fd5b5061024b6104cd36600461271d565b6114eb565b3480156104de57600080fd5b5061024b6104ed3660046123f3565b611653565b3480156104fe57600080fd5b5061033661050d3660046126fb565b6116d1565b34801561051e57600080fd5b5061024b61052d3660046123f3565b611709565b34801561053e57600080fd5b5060cd54610336906001600160a01b031681565b34801561055e57600080fd5b5061024b61056d366004612330565b61177f565b34801561057e57600080fd5b5061021d61058d366004612330565b611d42565b60cb81815481106105a257600080fd5b600091825260209091206005909102018054600182018054919350906105c79061276b565b80601f01602080910402602001604051908101604052809291908181526020018280546105f39061276b565b80156106405780601f1061061557610100808354040283529160200191610640565b820191906000526020600020905b81548152906001019060200180831161062357829003601f168201915b5050505050908060020154908060030154908060040154905085565b60ce6020526000908152604090208054600182015460028301805492936001600160a01b039092169261068e9061276b565b80601f01602080910402602001604051908101604052809291908181526020018280546106ba9061276b565b80156107075780601f106106dc57610100808354040283529160200191610707565b820191906000526020600020905b8154815290600101906020018083116106ea57829003601f168201915b50505050509080600301805461071c9061276b565b80601f01602080910402602001604051908101604052809291908181526020018280546107489061276b565b80156107955780601f1061076a57610100808354040283529160200191610795565b820191906000526020600020905b81548152906001019060200180831161077857829003601f168201915b5050506004909301549192505060ff1685565b306001600160a01b037f00000000000000000000000000000000000000000000000000000000000000001614156107fa5760405162461bcd60e51b81526004016107f1906127a0565b60405180910390fd5b7f00000000000000000000000000000000000000000000000000000000000000006001600160a01b031661084360008051602061299f833981519152546001600160a01b031690565b6001600160a01b0316146108695760405162461bcd60e51b81526004016107f1906127ec565b61087281611d63565b6040805160008082526020820190925261088e91839190611d6b565b50565b60ca81815481106108a157600080fd5b60009182526020909120600590910201805460018201546002830180549294506001600160a01b03909116929161068e9061276b565b306001600160a01b037f00000000000000000000000000000000000000000000000000000000000000001614156109205760405162461bcd60e51b81526004016107f1906127a0565b7f00000000000000000000000000000000000000000000000000000000000000006001600160a01b031661096960008051602061299f833981519152546001600160a01b031690565b6001600160a01b03161461098f5760405162461bcd60e51b81526004016107f1906127ec565b61099882611d63565b6109a482826001611d6b565b5050565b6000306001600160a01b037f00000000000000000000000000000000000000000000000000000000000000001614610a485760405162461bcd60e51b815260206004820152603860248201527f555550535570677261646561626c653a206d757374206e6f742062652063616c60448201527f6c6564207468726f7567682064656c656761746563616c6c000000000000000060648201526084016107f1565b5060008051602061299f83398151915290565b600081815260cf6020908152604091829020805483518184028101840190945280845260609392830182828015610abb57602002820191906000526020600020905b81546001600160a01b03168152600190910190602001808311610a9d575b50505050509050919050565b610acf611eea565b610ad96000611f44565b565b33600081815260ce602052604081206001015490916001600160a01b0390911614610b565760405162461bcd60e51b815260206004820152602560248201527f4f6e6c7920526567697374657265642055736572732063616e20506172746963604482015264697061746560d81b60648201526084016107f1565b33600090815260ce602052604090206004015460ff1615610bb95760405162461bcd60e51b815260206004820181905260248201527f44697361626c65642055736572732063616e277420506172746963697061746560448201526064016107f1565b60cb5482908110610c005760405162461bcd60e51b8152602060048201526011602482015270125b9d985b1a59081b1bdd1d195c9e5259607a1b60448201526064016107f1565b60cb8181548110610c1357610c13612838565b906000526020600020906005020160030154600214610c6c5760405162461bcd60e51b81526020600482015260156024820152744c6f7474657279206973206e6f742061637469766560581b60448201526064016107f1565b60005b60ca54811015610e1457336001600160a01b031660ca8281548110610c9657610c96612838565b60009182526020909120600160059092020101546001600160a01b03161415610e0257600060cb8581548110610cce57610cce612838565b600091825260208220600260059092020101549150610cee60648361287a565b90506000610cfc828461288e565b60c954604051639fe802f160e01b8152306004820152602481018390529192506001600160a01b031690639fe802f190604401600060405180830381600087803b158015610d4957600080fd5b505af1158015610d5d573d6000803e3d6000fd5b505060c954604051633dbc658560e01b8152336004820152602481018690526001600160a01b039091169250633dbc65859150604401600060405180830381600087803b158015610dad57600080fd5b505af1158015610dc1573d6000803e3d6000fd5b505050600088815260cf602090815260408220805460018181018355918452919092200180546001600160a01b031916331790559650610e1a945050505050565b80610e0c816128a5565b915050610c6f565b50600091505b50919050565b606060cb805480602002602001604051908101604052809291908181526020016000905b82821015610f3057838290600052602060002090600502016040518060a001604052908160008201548152602001600182018054610e819061276b565b80601f0160208091040260200160405190810160405280929190818152602001828054610ead9061276b565b8015610efa5780601f10610ecf57610100808354040283529160200191610efa565b820191906000526020600020905b815481529060010190602001808311610edd57829003601f168201915b50505050508152602001600282015481526020016003820154815260200160048201548152505081526020019060010190610e44565b50505050905090565b606060cc805480602002602001604051908101604052809291908181526020018280548015610f8757602002820191906000526020600020905b815481526020019060010190808311610f73575b5050505050905090565b600054610100900460ff1615808015610fb15750600054600160ff909116105b80610fcb5750303b158015610fcb575060005460ff166001145b61102e5760405162461bcd60e51b815260206004820152602e60248201527f496e697469616c697a61626c653a20636f6e747261637420697320616c72656160448201526d191e481a5b9a5d1a585b1a5e995960921b60648201526084016107f1565b6000805460ff191660011790558015611051576000805461ff0019166101001790555b60c980546001600160a01b0384166001600160a01b03199182161790915560cd805490911633179055611082611f96565b61108a611fc5565b80156109a4576000805461ff0019169055604051600181527f7f26b83ff96e1f2b6a682f133852f6798a09c465da95921460cefb38474024989060200160405180910390a15050565b6110db611eea565b60cd546040805160608082526010908201526f32bb32b73a1037b71030b2322ab9b2b960811b60808201523360208201526001600160a01b0390921682820152517ffcec75e0902c9d61eded5d9f2eed16d5b0f2cd255fe6fa77733f59e1063823e89181900360a00190a160cd546001600160a01b038481169116141561119d5760405162461bcd60e51b815260206004820152601660248201527520b236b4b71031b0b73737ba1031329030902ab9b2b960511b60448201526064016107f1565b6001600160a01b03808416600081815260ce602052604090206001015490911614156112005760405162461bcd60e51b8152602060048201526012602482015271155cd95c88185b1c9958591e48195e1a5cdd60721b60448201526064016107f1565b6040805160a08101825260ca5481526001600160a01b0385811660208084018281528486018881526060860188905260006080870181905293845260ce8352959092208451815591516001830180546001600160a01b0319169190941617909255925180519293926112789260028501920190612297565b5060608201518051611294916003840191602090910190612297565b50608091820151600491909101805460ff19169115159190911790556040805160a08101825260ca80548083526001600160a01b0388811660208086019182529585018981526060860189905260009786018890526001840185559390965283517f42d72674974f694b5f5159593243114d38a5c39c89d6b62fee061ff523240ee1600590930292830190815595517f42d72674974f694b5f5159593243114d38a5c39c89d6b62fee061ff523240ee2830180546001600160a01b0319169190921617905590518051929493611391937f42d72674974f694b5f5159593243114d38a5c39c89d6b62fee061ff523240ee390930192910190612297565b50606082015180516113ad916003840191602090910190612297565b50608091909101516004918201805460ff191691151591909117905560c95460405163152055fb60e01b81526001600160a01b0386811693820193909352611388602482015233604482015291169063152055fb90606401600060405180830381600087803b15801561141f57600080fd5b505af1158015611433573d6000803e3d6000fd5b50505050505050565b611444611eea565b6001600160a01b038116600090815260ce602052604081205460ca8054909190811061147257611472612838565b6000918252602080832060046005909302018201805494151560ff199586161790556001600160a01b03909416825260ce9093526040902090910180549091169055565b6114be611eea565b8060cb83815481106114d2576114d2612838565b9060005260206000209060050201600301819055505050565b6114f3611eea565b60c95460405163152055fb60e01b81523060048201526103e860248201523360448201526001600160a01b039091169063152055fb90606401600060405180830381600087803b15801561154657600080fd5b505af115801561155a573d6000803e3d6000fd5b50506040805160a08101825260cb805480835260208084018a81529484018990526001606085018190526080850189905282018355600092909252825160059091027fa7ce836d032b2bf62b7e2097a8e0a6d8aeb35405ad15271e96d3b0188a1d06fb8101918255935180519396509094506115fb937fa7ce836d032b2bf62b7e2097a8e0a6d8aeb35405ad15271e96d3b0188a1d06fc0192910190612297565b506040820151600282015560608201516003820155608090910151600490910155505060cc805460018101825560009182527f47197230e1e4b29fc0bd84d7d78966c0925452aff72a2a121538b102457e9ebe015550565b61165b611eea565b6001600160a01b038116600090815260ce602052604090205460ca805460019290811061168a5761168a612838565b6000918252602080832060046005909302018201805494151560ff199586161790556001600160a01b03909416825260ce9093526040902090910180549091166001179055565b60cf60205281600052604060002081815481106116ed57600080fd5b6000918252602090912001546001600160a01b03169150829050565b611711611eea565b6001600160a01b0381166117765760405162461bcd60e51b815260206004820152602660248201527f4f776e61626c653a206e6577206f776e657220697320746865207a65726f206160448201526564647265737360d01b60648201526084016107f1565b61088e81611f44565b611787611eea565b60cb54819081106117ce5760405162461bcd60e51b8152602060048201526011602482015270125b9d985b1a59081b1bdd1d195c9e5259607a1b60448201526064016107f1565b60cb81815481106117e1576117e1612838565b90600052602060002090600502016003015460021461183a5760405162461bcd60e51b81526020600482015260156024820152744c6f7474657279206973206e6f742061637469766560581b60448201526064016107f1565b600082815260cf6020526040902054600511156118995760405162461bcd60e51b815260206004820152601f60248201527f4d696e696d756d2035207061727469636970616e74732072657175697265640060448201526064016107f1565b600082815260cf602052604081205460cb8054919291859081106118bf576118bf612838565b6000918252602082206002600590920201015491506118df60648361287a565b6118ea9060636128c0565b6118f490846128c0565b611900906103e86128df565b9050600061190e600c611fec565b9050600061191c607b611fec565b9050600061192b6104d2611fec565b9050600061193987856128f7565b90506000805b84611949816128a5565b9550611957905089866128f7565b915081831461193f575b8361196b816128a5565b9450611979905089856128f7565b90508083148061198857508082145b61196157604051806060016040528060cf60008e815260200190815260200160002085815481106119bb576119bb612838565b60009182526020808320909101546001600160a01b031683528e825260cf8152604090912080549290910191859081106119f7576119f7612838565b60009182526020808320909101546001600160a01b031683528e825260cf815260409091208054929091019184908110611a3357611a33612838565b60009182526020808320909101546001600160a01b039081169093528e825260d081526040808320855181549086166001600160a01b0319918216178255868401516001830180549188169183169190911790559582015160029091018054918616919096161790945560c95460cf90915292902080549290911691633f81164691309187908110611ac757611ac7612838565b6000918252602090912001546001600160a01b0316611ae760648c61287a565b611af29060326128c0565b6040516001600160e01b031960e086901b1681526001600160a01b0393841660048201529290911660248301526044820152606401600060405180830381600087803b158015611b4157600080fd5b505af1158015611b55573d6000803e3d6000fd5b505060c95460008e815260cf6020526040902080546001600160a01b039092169350633f8116469250309186908110611b9057611b90612838565b6000918252602090912001546001600160a01b0316611bb060648c61287a565b611bbb90601e6128c0565b6040516001600160e01b031960e086901b1681526001600160a01b0393841660048201529290911660248301526044820152606401600060405180830381600087803b158015611c0a57600080fd5b505af1158015611c1e573d6000803e3d6000fd5b505060c95460008e815260cf6020526040902080546001600160a01b039092169350633f8116469250309185908110611c5957611c59612838565b6000918252602090912001546001600160a01b0316611c7960648c61287a565b611c849060146128c0565b6040516001600160e01b031960e086901b1681526001600160a01b0393841660048201529290911660248301526044820152606401600060405180830381600087803b158015611cd357600080fd5b505af1158015611ce7573d6000803e3d6000fd5b50505050600360cb8c81548110611d0057611d00612838565b9060005260206000209060050201600301819055508660cc8c81548110611d2957611d29612838565b6000918252602090912001555050505050505050505050565b60cc8181548110611d5257600080fd5b600091825260209091200154905081565b61088e611eea565b7f4910fdfa16fed3260ed0e7147f7cc6da11a60208b5b9406d12a635614ffd91435460ff1615611da357611d9e83612022565b505050565b826001600160a01b03166352d1902d6040518163ffffffff1660e01b815260040160206040518083038186803b158015611ddc57600080fd5b505afa925050508015611e0c575060408051601f3d908101601f19168201909252611e099181019061290b565b60015b611e6f5760405162461bcd60e51b815260206004820152602e60248201527f45524331393637557067726164653a206e657720696d706c656d656e7461746960448201526d6f6e206973206e6f74205555505360901b60648201526084016107f1565b60008051602061299f8339815191528114611ede5760405162461bcd60e51b815260206004820152602960248201527f45524331393637557067726164653a20756e737570706f727465642070726f786044820152681a58589b195555525160ba1b60648201526084016107f1565b50611d9e8383836120be565b6097546001600160a01b03163314610ad95760405162461bcd60e51b815260206004820181905260248201527f4f776e61626c653a2063616c6c6572206973206e6f7420746865206f776e657260448201526064016107f1565b609780546001600160a01b038381166001600160a01b0319831681179093556040519116919082907f8be0079c531659141344cd1fd0a4f28419497f9722a3daafe3b4186f6b6457e090600090a35050565b600054610100900460ff16611fbd5760405162461bcd60e51b81526004016107f190612924565b610ad96120e9565b600054610100900460ff16610ad95760405162461bcd60e51b81526004016107f190612924565b60408051446020808301919091524282840152606080830194909452825180830390940184526080909101909152815191012090565b6001600160a01b0381163b61208f5760405162461bcd60e51b815260206004820152602d60248201527f455243313936373a206e657720696d706c656d656e746174696f6e206973206e60448201526c1bdd08184818dbdb9d1c9858dd609a1b60648201526084016107f1565b60008051602061299f83398151915280546001600160a01b0319166001600160a01b0392909216919091179055565b6120c783612119565b6000825111806120d45750805b15611d9e576120e38383612159565b50505050565b600054610100900460ff166121105760405162461bcd60e51b81526004016107f190612924565b610ad933611f44565b61212281612022565b6040516001600160a01b038216907fbc7cd75a20ee27fd9adebab32041f755214dbc6bffa90cc0225b39da2e5c2d3b90600090a250565b60606001600160a01b0383163b6121c15760405162461bcd60e51b815260206004820152602660248201527f416464726573733a2064656c65676174652063616c6c20746f206e6f6e2d636f6044820152651b9d1c9858dd60d21b60648201526084016107f1565b600080846001600160a01b0316846040516121dc919061296f565b600060405180830381855af49150503d8060008114612217576040519150601f19603f3d011682016040523d82523d6000602084013e61221c565b606091505b509150915061224482826040518060600160405280602781526020016129bf6027913961224d565b95945050505050565b6060831561225c575081612266565b612266838361226d565b9392505050565b81511561227d5781518083602001fd5b8060405162461bcd60e51b81526004016107f1919061298b565b8280546122a39061276b565b90600052602060002090601f0160209004810192826122c5576000855561230b565b82601f106122de57805160ff191683800117855561230b565b8280016001018555821561230b579182015b8281111561230b5782518255916020019190600101906122f0565b5061231792915061231b565b5090565b5b80821115612317576000815560010161231c565b60006020828403121561234257600080fd5b5035919050565b60005b8381101561236457818101518382015260200161234c565b838111156120e35750506000910152565b6000815180845261238d816020860160208601612349565b601f01601f19169290920160200192915050565b85815260a0602082015260006123ba60a0830187612375565b604083019590955250606081019290925260809091015292915050565b80356001600160a01b03811681146123ee57600080fd5b919050565b60006020828403121561240557600080fd5b612266826123d7565b8581526001600160a01b038516602082015260a06040820181905260009061243890830186612375565b828103606084015261244a8186612375565b91505082151560808301529695505050505050565b634e487b7160e01b600052604160045260246000fd5b600067ffffffffffffffff808411156124905761249061245f565b604051601f8501601f19908116603f011681019082821181831017156124b8576124b861245f565b816040528093508581528686860111156124d157600080fd5b858560208301376000602087830101525050509392505050565b600080604083850312156124fe57600080fd5b612507836123d7565b9150602083013567ffffffffffffffff81111561252357600080fd5b8301601f8101851361253457600080fd5b61254385823560208401612475565b9150509250929050565b6020808252825182820181905260009190848201906040850190845b8181101561258e5783516001600160a01b031683529284019291840191600101612569565b50909695505050505050565b60006020808301818452808551808352604092508286019150828160051b87010184880160005b8381101561262157603f19898403018552815160a08151855288820151818a8701526125ef82870182612375565b838a0151878b0152606080850151908801526080938401519390960192909252505093860193908601906001016125c1565b509098975050505050505050565b6020808252825182820181905260009190848201906040850190845b8181101561258e5783518352928401929184019160010161264b565b600082601f83011261267857600080fd5b61226683833560208501612475565b60008060006060848603121561269c57600080fd5b6126a5846123d7565b9250602084013567ffffffffffffffff808211156126c257600080fd5b6126ce87838801612667565b935060408601359150808211156126e457600080fd5b506126f186828701612667565b9150509250925092565b6000806040838503121561270e57600080fd5b50508035926020909101359150565b60008060006060848603121561273257600080fd5b833567ffffffffffffffff81111561274957600080fd5b61275586828701612667565b9660208601359650604090950135949350505050565b600181811c9082168061277f57607f821691505b60208210811415610e1a57634e487b7160e01b600052602260045260246000fd5b6020808252602c908201527f46756e6374696f6e206d7573742062652063616c6c6564207468726f7567682060408201526b19195b1959d85d1958d85b1b60a21b606082015260800190565b6020808252602c908201527f46756e6374696f6e206d7573742062652063616c6c6564207468726f7567682060408201526b6163746976652070726f787960a01b606082015260800190565b634e487b7160e01b600052603260045260246000fd5b634e487b7160e01b600052601260045260246000fd5b634e487b7160e01b600052601160045260246000fd5b6000826128895761288961284e565b500490565b6000828210156128a0576128a0612864565b500390565b60006000198214156128b9576128b9612864565b5060010190565b60008160001904831182151516156128da576128da612864565b500290565b600082198211156128f2576128f2612864565b500190565b6000826129065761290661284e565b500690565b60006020828403121561291d57600080fd5b5051919050565b6020808252602b908201527f496e697469616c697a61626c653a20636f6e7472616374206973206e6f74206960408201526a6e697469616c697a696e6760a81b606082015260800190565b60008251612981818460208701612349565b9190910192915050565b602081526000612266602083018461237556fe360894a13ba1a3210667c828492db98dca3e2076cc3735a920a3ca505d382bbc416464726573733a206c6f772d6c6576656c2064656c65676174652063616c6c206661696c6564a26469706673582212208fac2382ad72c171ec06f64bce1f429311ee17b6d6ebd33c8ba4f14b1a99b15e64736f6c63430008090033",
  "linkReferences": {},
  "deployedLinkReferences": {}
}